{
  "_format": "hh-sol-artifact-1",
  "contractName": "MyEpicNFT",
  "sourceName": "contracts/MyEpicNFT.sol",
  "abi": [
    {
      "inputs": [],
      "stateMutability": "nonpayable",
      "type": "constructor"
    },
    {
      "anonymous": false,
      "inputs": [
        {
          "indexed": true,
          "internalType": "address",
          "name": "owner",
          "type": "address"
        },
        {
          "indexed": true,
          "internalType": "address",
          "name": "approved",
          "type": "address"
        },
        {
          "indexed": true,
          "internalType": "uint256",
          "name": "tokenId",
          "type": "uint256"
        }
      ],
      "name": "Approval",
      "type": "event"
    },
    {
      "anonymous": false,
      "inputs": [
        {
          "indexed": true,
          "internalType": "address",
          "name": "owner",
          "type": "address"
        },
        {
          "indexed": true,
          "internalType": "address",
          "name": "operator",
          "type": "address"
        },
        {
          "indexed": false,
          "internalType": "bool",
          "name": "approved",
          "type": "bool"
        }
      ],
      "name": "ApprovalForAll",
      "type": "event"
    },
    {
      "anonymous": false,
      "inputs": [
        {
          "indexed": false,
          "internalType": "address",
          "name": "sender",
          "type": "address"
        },
        {
          "indexed": false,
          "internalType": "uint256",
          "name": "tokenId",
          "type": "uint256"
        }
      ],
      "name": "NewEpicNFTMinted",
      "type": "event"
    },
    {
      "anonymous": false,
      "inputs": [
        {
          "indexed": true,
          "internalType": "address",
          "name": "from",
          "type": "address"
        },
        {
          "indexed": true,
          "internalType": "address",
          "name": "to",
          "type": "address"
        },
        {
          "indexed": true,
          "internalType": "uint256",
          "name": "tokenId",
          "type": "uint256"
        }
      ],
      "name": "Transfer",
      "type": "event"
    },
    {
      "inputs": [],
      "name": "MAX_TOKENS",
      "outputs": [
        {
          "internalType": "uint256",
          "name": "",
          "type": "uint256"
        }
      ],
      "stateMutability": "view",
      "type": "function"
    },
    {
      "inputs": [
        {
          "internalType": "address",
          "name": "to",
          "type": "address"
        },
        {
          "internalType": "uint256",
          "name": "tokenId",
          "type": "uint256"
        }
      ],
      "name": "approve",
      "outputs": [],
      "stateMutability": "nonpayable",
      "type": "function"
    },
    {
      "inputs": [
        {
          "internalType": "address",
          "name": "owner",
          "type": "address"
        }
      ],
      "name": "balanceOf",
      "outputs": [
        {
          "internalType": "uint256",
          "name": "",
          "type": "uint256"
        }
      ],
      "stateMutability": "view",
      "type": "function"
    },
    {
      "inputs": [
        {
          "internalType": "uint256",
          "name": "tokenId",
          "type": "uint256"
        }
      ],
      "name": "getApproved",
      "outputs": [
        {
          "internalType": "address",
          "name": "",
          "type": "address"
        }
      ],
      "stateMutability": "view",
      "type": "function"
    },
    {
      "inputs": [],
      "name": "getTotal",
      "outputs": [
        {
          "internalType": "uint256",
          "name": "",
          "type": "uint256"
        }
      ],
      "stateMutability": "view",
      "type": "function"
    },
    {
      "inputs": [
        {
          "internalType": "address",
          "name": "owner",
          "type": "address"
        },
        {
          "internalType": "address",
          "name": "operator",
          "type": "address"
        }
      ],
      "name": "isApprovedForAll",
      "outputs": [
        {
          "internalType": "bool",
          "name": "",
          "type": "bool"
        }
      ],
      "stateMutability": "view",
      "type": "function"
    },
    {
      "inputs": [],
      "name": "makeAnEpicNFT",
      "outputs": [],
      "stateMutability": "nonpayable",
      "type": "function"
    },
    {
      "inputs": [],
      "name": "name",
      "outputs": [
        {
          "internalType": "string",
          "name": "",
          "type": "string"
        }
      ],
      "stateMutability": "view",
      "type": "function"
    },
    {
      "inputs": [
        {
          "internalType": "uint256",
          "name": "tokenId",
          "type": "uint256"
        }
      ],
      "name": "ownerOf",
      "outputs": [
        {
          "internalType": "address",
          "name": "",
          "type": "address"
        }
      ],
      "stateMutability": "view",
      "type": "function"
    },
    {
      "inputs": [
        {
          "internalType": "uint256",
          "name": "tokenId",
          "type": "uint256"
        }
      ],
      "name": "pickRandomColor",
      "outputs": [
        {
          "internalType": "string",
          "name": "",
          "type": "string"
        }
      ],
      "stateMutability": "view",
      "type": "function"
    },
    {
      "inputs": [
        {
          "internalType": "uint256",
          "name": "tokenId",
          "type": "uint256"
        }
      ],
      "name": "pickRandomFirstWord",
      "outputs": [
        {
          "internalType": "string",
          "name": "",
          "type": "string"
        }
      ],
      "stateMutability": "view",
      "type": "function"
    },
    {
      "inputs": [
        {
          "internalType": "uint256",
          "name": "tokenId",
          "type": "uint256"
        }
      ],
      "name": "pickRandomSecondWord",
      "outputs": [
        {
          "internalType": "string",
          "name": "",
          "type": "string"
        }
      ],
      "stateMutability": "view",
      "type": "function"
    },
    {
      "inputs": [
        {
          "internalType": "uint256",
          "name": "tokenId",
          "type": "uint256"
        }
      ],
      "name": "pickRandomThirdWord",
      "outputs": [
        {
          "internalType": "string",
          "name": "",
          "type": "string"
        }
      ],
      "stateMutability": "view",
      "type": "function"
    },
    {
      "inputs": [
        {
          "internalType": "address",
          "name": "from",
          "type": "address"
        },
        {
          "internalType": "address",
          "name": "to",
          "type": "address"
        },
        {
          "internalType": "uint256",
          "name": "tokenId",
          "type": "uint256"
        }
      ],
      "name": "safeTransferFrom",
      "outputs": [],
      "stateMutability": "nonpayable",
      "type": "function"
    },
    {
      "inputs": [
        {
          "internalType": "address",
          "name": "from",
          "type": "address"
        },
        {
          "internalType": "address",
          "name": "to",
          "type": "address"
        },
        {
          "internalType": "uint256",
          "name": "tokenId",
          "type": "uint256"
        },
        {
          "internalType": "bytes",
          "name": "_data",
          "type": "bytes"
        }
      ],
      "name": "safeTransferFrom",
      "outputs": [],
      "stateMutability": "nonpayable",
      "type": "function"
    },
    {
      "inputs": [
        {
          "internalType": "address",
          "name": "operator",
          "type": "address"
        },
        {
          "internalType": "bool",
          "name": "approved",
          "type": "bool"
        }
      ],
      "name": "setApprovalForAll",
      "outputs": [],
      "stateMutability": "nonpayable",
      "type": "function"
    },
    {
      "inputs": [
        {
          "internalType": "bytes4",
          "name": "interfaceId",
          "type": "bytes4"
        }
      ],
      "name": "supportsInterface",
      "outputs": [
        {
          "internalType": "bool",
          "name": "",
          "type": "bool"
        }
      ],
      "stateMutability": "view",
      "type": "function"
    },
    {
      "inputs": [],
      "name": "symbol",
      "outputs": [
        {
          "internalType": "string",
          "name": "",
          "type": "string"
        }
      ],
      "stateMutability": "view",
      "type": "function"
    },
    {
      "inputs": [
        {
          "internalType": "uint256",
          "name": "tokenId",
          "type": "uint256"
        }
      ],
      "name": "tokenURI",
      "outputs": [
        {
          "internalType": "string",
          "name": "",
          "type": "string"
        }
      ],
      "stateMutability": "view",
      "type": "function"
    },
    {
      "inputs": [
        {
          "internalType": "address",
          "name": "from",
          "type": "address"
        },
        {
          "internalType": "address",
          "name": "to",
          "type": "address"
        },
        {
          "internalType": "uint256",
          "name": "tokenId",
          "type": "uint256"
        }
      ],
      "name": "transferFrom",
      "outputs": [],
      "stateMutability": "nonpayable",
      "type": "function"
    }
  ],
  "bytecode": "0x6080604052601460085560405180610100016040528060d38152602001620047bb60d39139600990805190602001906200003b92919062000831565b506040518060800160405280605681526020016200488e60569139600a90805190602001906200006d92919062000831565b506040518060c001604052806040518060400160405280600981526020017f536f6e7269656e646f000000000000000000000000000000000000000000000081525081526020016040518060400160405280600881526020017f43686f63616e746500000000000000000000000000000000000000000000000081525081526020016040518060400160405280600881526020017f4d757363756c617200000000000000000000000000000000000000000000000081525081526020016040518060400160405280600881526020017f416465637561646f00000000000000000000000000000000000000000000000081525081526020016040518060400160405280600681526020017f496e7574696c000000000000000000000000000000000000000000000000000081525081526020016040518060400160405280600981526020017f4272696c6c616e74650000000000000000000000000000000000000000000000815250815250600b906006620001eb929190620008c2565b506040518060c001604052806040518060400160405280600581526020017f5a6f6d626900000000000000000000000000000000000000000000000000000081525081526020016040518060400160405280600781526020017f436f6c6f6e69610000000000000000000000000000000000000000000000000081525081526020016040518060400160405280600481526020017f4d69656c0000000000000000000000000000000000000000000000000000000081525081526020016040518060400160405280600581526020017f4172626f6c00000000000000000000000000000000000000000000000000000081525081526020016040518060400160405280600781526020017f506c616e6574610000000000000000000000000000000000000000000000000081525081526020016040518060400160405280600a81526020017f44657072656461646f7200000000000000000000000000000000000000000000815250815250600c90600662000369929190620008c2565b506040518060c001604052806040518060400160405280600981526020017f436f7272697369766f000000000000000000000000000000000000000000000081525081526020016040518060400160405280600c81526020017f4165726f64696e616d69636f000000000000000000000000000000000000000081525081526020016040518060400160405280600581526020017f4e6567726f00000000000000000000000000000000000000000000000000000081525081526020016040518060400160405280600581526020017f4c6172676f00000000000000000000000000000000000000000000000000000081525081526020016040518060400160405280600981526020017f4372756a69656e7465000000000000000000000000000000000000000000000081525081526020016040518060400160405280600981526020017f4465636164656e74650000000000000000000000000000000000000000000000815250815250600d906006620004e7929190620008c2565b506040518060c001604052806040518060400160405280600381526020017f726564000000000000000000000000000000000000000000000000000000000081525081526020016040518060400160405280600781526020017f233038433241380000000000000000000000000000000000000000000000000081525081526020016040518060400160405280600581526020017f626c61636b00000000000000000000000000000000000000000000000000000081525081526020016040518060400160405280600681526020017f79656c6c6f77000000000000000000000000000000000000000000000000000081525081526020016040518060400160405280600481526020017f626c75650000000000000000000000000000000000000000000000000000000081525081526020016040518060400160405280600581526020017f677265656e000000000000000000000000000000000000000000000000000000815250815250600e90600662000665929190620008c2565b503480156200067357600080fd5b506040518060400160405280600981526020017f5371756172654e465400000000000000000000000000000000000000000000008152506040518060400160405280600681526020017f53515541524500000000000000000000000000000000000000000000000000008152508160009080519060200190620006f892919062000831565b5080600190805190602001906200071192919062000831565b5050506200075f6040518060400160405280601e81526020017f54686973206973206d79204e465420636f6e74726163742e20576f61682100008152506200076560201b6200144f1760201c565b62000ae3565b62000805816040516024016200077c9190620009f7565b6040516020818303038152906040527f41304fac000000000000000000000000000000000000000000000000000000007bffffffffffffffffffffffffffffffffffffffffffffffffffffffff19166020820180517bffffffffffffffffffffffffffffffffffffffffffffffffffffffff83818316178352505050506200080860201b60201c565b50565b60008151905060006a636f6e736f6c652e6c6f679050602083016000808483855afa5050505050565b8280546200083f9062000a6d565b90600052602060002090601f016020900481019282620008635760008555620008af565b82601f106200087e57805160ff1916838001178555620008af565b82800160010185558215620008af579182015b82811115620008ae57825182559160200191906001019062000891565b5b509050620008be919062000929565b5090565b82805482825590600052602060002090810192821562000916579160200282015b82811115620009155782518290805190602001906200090492919062000831565b5091602001919060010190620008e3565b5b50905062000925919062000948565b5090565b5b80821115620009445760008160009055506001016200092a565b5090565b5b808211156200096c576000818162000962919062000970565b5060010162000949565b5090565b5080546200097e9062000a6d565b6000825580601f10620009925750620009b3565b601f016020900490600052602060002090810190620009b2919062000929565b5b50565b6000620009c38262000a1b565b620009cf818562000a26565b9350620009e181856020860162000a37565b620009ec8162000ad2565b840191505092915050565b6000602082019050818103600083015262000a138184620009b6565b905092915050565b600081519050919050565b600082825260208201905092915050565b60005b8381101562000a5757808201518184015260208101905062000a3a565b8381111562000a67576000848401525b50505050565b6000600282049050600182168062000a8657607f821691505b6020821081141562000a9d5762000a9c62000aa3565b5b50919050565b7f4e487b7100000000000000000000000000000000000000000000000000000000600052602260045260246000fd5b6000601f19601f8301169050919050565b613cc88062000af36000396000f3fe608060405234801561001057600080fd5b506004361061012c5760003560e01c8063775a25e3116100ad578063c575757a11610071578063c575757a14610367578063c87b56dd14610397578063de9d132f146103c7578063e985e9c5146103d1578063f47c84c5146104015761012c565b8063775a25e3146102c357806395d89b41146102e1578063a22cb465146102ff578063b187301f1461031b578063b88d4fde1461034b5761012c565b80632de38d68116100f45780632de38d68146101e757806342842e0e14610217578063514dc8c6146102335780636352211e1461026357806370a08231146102935761012c565b806301ffc9a71461013157806306fdde0314610161578063081812fc1461017f578063095ea7b3146101af57806323b872dd146101cb575b600080fd5b61014b600480360381019061014691906126e2565b61041f565b6040516101589190612e6e565b60405180910390f35b610169610501565b6040516101769190612e89565b60405180910390f35b61019960048036038101906101949190612734565b610593565b6040516101a69190612dde565b60405180910390f35b6101c960048036038101906101c491906126a6565b610618565b005b6101e560048036038101906101e091906125a0565b610730565b005b61020160048036038101906101fc9190612734565b610790565b60405161020e9190612e89565b60405180910390f35b610231600480360381019061022c91906125a0565b6108ae565b005b61024d60048036038101906102489190612734565b6108ce565b60405161025a9190612e89565b60405180910390f35b61027d60048036038101906102789190612734565b6109ec565b60405161028a9190612dde565b60405180910390f35b6102ad60048036038101906102a8919061253b565b610a9e565b6040516102ba9190613109565b60405180910390f35b6102cb610b56565b6040516102d89190613109565b60405180910390f35b6102e9610b67565b6040516102f69190612e89565b60405180910390f35b6103196004803603810190610314919061266a565b610bf9565b005b61033560048036038101906103309190612734565b610d7a565b6040516103429190612e89565b60405180910390f35b610365600480360381019061036091906125ef565b610e98565b005b610381600480360381019061037c9190612734565b610efa565b60405161038e9190612e89565b60405180910390f35b6103b160048036038101906103ac9190612734565b611018565b6040516103be9190612e89565b60405180910390f35b6103cf61116a565b005b6103eb60048036038101906103e69190612564565b6113b5565b6040516103f89190612e6e565b60405180910390f35b610409611449565b6040516104169190613109565b60405180910390f35b60007f80ac58cd000000000000000000000000000000000000000000000000000000007bffffffffffffffffffffffffffffffffffffffffffffffffffffffff1916827bffffffffffffffffffffffffffffffffffffffffffffffffffffffff191614806104ea57507f5b5e139f000000000000000000000000000000000000000000000000000000007bffffffffffffffffffffffffffffffffffffffffffffffffffffffff1916827bffffffffffffffffffffffffffffffffffffffffffffffffffffffff1916145b806104fa57506104f9826114e8565b5b9050919050565b6060600080546105109061339d565b80601f016020809104026020016040519081016040528092919081815260200182805461053c9061339d565b80156105895780601f1061055e57610100808354040283529160200191610589565b820191906000526020600020905b81548152906001019060200180831161056c57829003601f168201915b5050505050905090565b600061059e82611552565b6105dd576040517f08c379a00000000000000000000000000000000000000000000000000000000081526004016105d490613069565b60405180910390fd5b6004600083815260200190815260200160002060009054906101000a900473ffffffffffffffffffffffffffffffffffffffff169050919050565b6000610623826109ec565b90508073ffffffffffffffffffffffffffffffffffffffff168373ffffffffffffffffffffffffffffffffffffffff161415610694576040517f08c379a000000000000000000000000000000000000000000000000000000000815260040161068b906130c9565b60405180910390fd5b8073ffffffffffffffffffffffffffffffffffffffff166106b36115be565b73ffffffffffffffffffffffffffffffffffffffff1614806106e257506106e1816106dc6115be565b6113b5565b5b610721576040517f08c379a000000000000000000000000000000000000000000000000000000000815260040161071890612fa9565b60405180910390fd5b61072b83836115c6565b505050565b61074161073b6115be565b8261167f565b610780576040517f08c379a0000000000000000000000000000000000000000000000000000000008152600401610777906130e9565b60405180910390fd5b61078b83838361175d565b505050565b606060006107c46107a0846119b9565b6040516020016107b09190612d78565b604051602081830303815290604052611b66565b9050600b80549050816107d79190613449565b9050600b8181548110610813577f4e487b7100000000000000000000000000000000000000000000000000000000600052603260045260246000fd5b9060005260206000200180546108289061339d565b80601f01602080910402602001604051908101604052809291908181526020018280546108549061339d565b80156108a15780601f10610876576101008083540402835291602001916108a1565b820191906000526020600020905b81548152906001019060200180831161088457829003601f168201915b5050505050915050919050565b6108c983838360405180602001604052806000815250610e98565b505050565b606060006109026108de846119b9565b6040516020016108ee9190612dbc565b604051602081830303815290604052611b66565b9050600e80549050816109159190613449565b9050600e8181548110610951577f4e487b7100000000000000000000000000000000000000000000000000000000600052603260045260246000fd5b9060005260206000200180546109669061339d565b80601f01602080910402602001604051908101604052809291908181526020018280546109929061339d565b80156109df5780601f106109b4576101008083540402835291602001916109df565b820191906000526020600020905b8154815290600101906020018083116109c257829003601f168201915b5050505050915050919050565b6000806002600084815260200190815260200160002060009054906101000a900473ffffffffffffffffffffffffffffffffffffffff169050600073ffffffffffffffffffffffffffffffffffffffff168173ffffffffffffffffffffffffffffffffffffffff161415610a95576040517f08c379a0000000000000000000000000000000000000000000000000000000008152600401610a8c90612fe9565b60405180910390fd5b80915050919050565b60008073ffffffffffffffffffffffffffffffffffffffff168273ffffffffffffffffffffffffffffffffffffffff161415610b0f576040517f08c379a0000000000000000000000000000000000000000000000000000000008152600401610b0690612fc9565b60405180910390fd5b600360008373ffffffffffffffffffffffffffffffffffffffff1673ffffffffffffffffffffffffffffffffffffffff168152602001908152602001600020549050919050565b6000610b626007611b99565b905090565b606060018054610b769061339d565b80601f0160208091040260200160405190810160405280929190818152602001828054610ba29061339d565b8015610bef5780601f10610bc457610100808354040283529160200191610bef565b820191906000526020600020905b815481529060010190602001808311610bd257829003601f168201915b5050505050905090565b610c016115be565b73ffffffffffffffffffffffffffffffffffffffff168273ffffffffffffffffffffffffffffffffffffffff161415610c6f576040517f08c379a0000000000000000000000000000000000000000000000000000000008152600401610c6690612f69565b60405180910390fd5b8060056000610c7c6115be565b73ffffffffffffffffffffffffffffffffffffffff1673ffffffffffffffffffffffffffffffffffffffff16815260200190815260200160002060008473ffffffffffffffffffffffffffffffffffffffff1673ffffffffffffffffffffffffffffffffffffffff16815260200190815260200160002060006101000a81548160ff0219169083151502179055508173ffffffffffffffffffffffffffffffffffffffff16610d296115be565b73ffffffffffffffffffffffffffffffffffffffff167f17307eab39ab6107e8899845ad3d59bd9653f200f220920489ca2b5937696c3183604051610d6e9190612e6e565b60405180910390a35050565b60606000610dae610d8a846119b9565b604051602001610d9a9190612d11565b604051602081830303815290604052611b66565b9050600c8054905081610dc19190613449565b9050600c8181548110610dfd577f4e487b7100000000000000000000000000000000000000000000000000000000600052603260045260246000fd5b906000526020600020018054610e129061339d565b80601f0160208091040260200160405190810160405280929190818152602001828054610e3e9061339d565b8015610e8b5780601f10610e6057610100808354040283529160200191610e8b565b820191906000526020600020905b815481529060010190602001808311610e6e57829003601f168201915b5050505050915050919050565b610ea9610ea36115be565b8361167f565b610ee8576040517f08c379a0000000000000000000000000000000000000000000000000000000008152600401610edf906130e9565b60405180910390fd5b610ef484848484611ba7565b50505050565b60606000610f2e610f0a846119b9565b604051602001610f1a9190612cef565b604051602081830303815290604052611b66565b9050600d8054905081610f419190613449565b9050600d8181548110610f7d577f4e487b7100000000000000000000000000000000000000000000000000000000600052603260045260246000fd5b906000526020600020018054610f929061339d565b80601f0160208091040260200160405190810160405280929190818152602001828054610fbe9061339d565b801561100b5780601f10610fe05761010080835404028352916020019161100b565b820191906000526020600020905b815481529060010190602001808311610fee57829003601f168201915b5050505050915050919050565b606061102382611552565b611062576040517f08c379a000000000000000000000000000000000000000000000000000000000815260040161105990613049565b60405180910390fd5b60006006600084815260200190815260200160002080546110829061339d565b80601f01602080910402602001604051908101604052809291908181526020018280546110ae9061339d565b80156110fb5780601f106110d0576101008083540402835291602001916110fb565b820191906000526020600020905b8154815290600101906020018083116110de57829003601f168201915b50505050509050600061110c611c03565b9050600081511415611122578192505050611165565b60008251111561115757808260405160200161113f929190612c51565b60405160208183030381529060405292505050611165565b61116084611c1a565b925050505b919050565b60006111766007611b99565b905060085460018261118891906131d2565b11156111c9576040517f08c379a00000000000000000000000000000000000000000000000000000000081526004016111c090612ee9565b60405180910390fd5b60006111d482610790565b905060006111e183610d7a565b905060006111ee84610efa565b9050600083838360405160200161120793929190612c75565b60405160208183030381529060405290506000611223866108ce565b90506000600982600a856040516020016112409493929190612ca6565b604051602081830303815290604052905060006112858461126084611cc1565b604051602001611271929190612d33565b604051602081830303815290604052611cc1565b905060008160405160200161129a9190612d9a565b60405160208183030381529060405290506112e96040518060400160405280601581526020017f0a2d2d2d2d2d2d2d2d2d2d2d2d2d2d2d2d2d2d2d2d000000000000000000000081525061144f565b6112f28161144f565b6113306040518060400160405280601581526020017f2d2d2d2d2d2d2d2d2d2d2d2d2d2d2d2d2d2d2d2d0a000000000000000000000081525061144f565b61133a338a611e7f565b6113448982611e9d565b61134e6007611f11565b611371604051806060016040528060258152602001613c2e602591398a33611f27565b7febb98688741ffa4c7589bf325de30cf7becb63de567842e1ccdb6cb949fdc82c338a6040516113a2929190612e45565b60405180910390a1505050505050505050565b6000600560008473ffffffffffffffffffffffffffffffffffffffff1673ffffffffffffffffffffffffffffffffffffffff16815260200190815260200160002060008373ffffffffffffffffffffffffffffffffffffffff1673ffffffffffffffffffffffffffffffffffffffff16815260200190815260200160002060009054906101000a900460ff16905092915050565b60085481565b6114e5816040516024016114639190612e89565b6040516020818303038152906040527f41304fac000000000000000000000000000000000000000000000000000000007bffffffffffffffffffffffffffffffffffffffffffffffffffffffff19166020820180517bffffffffffffffffffffffffffffffffffffffffffffffffffffffff8381831617835250505050611fc6565b50565b60007f01ffc9a7000000000000000000000000000000000000000000000000000000007bffffffffffffffffffffffffffffffffffffffffffffffffffffffff1916827bffffffffffffffffffffffffffffffffffffffffffffffffffffffff1916149050919050565b60008073ffffffffffffffffffffffffffffffffffffffff166002600084815260200190815260200160002060009054906101000a900473ffffffffffffffffffffffffffffffffffffffff1673ffffffffffffffffffffffffffffffffffffffff1614159050919050565b600033905090565b816004600083815260200190815260200160002060006101000a81548173ffffffffffffffffffffffffffffffffffffffff021916908373ffffffffffffffffffffffffffffffffffffffff160217905550808273ffffffffffffffffffffffffffffffffffffffff16611639836109ec565b73ffffffffffffffffffffffffffffffffffffffff167f8c5be1e5ebec7d5bd14f71427d1e84f3dd0314c0f7b2291e5b200ac8c7c3b92560405160405180910390a45050565b600061168a82611552565b6116c9576040517f08c379a00000000000000000000000000000000000000000000000000000000081526004016116c090612f89565b60405180910390fd5b60006116d4836109ec565b90508073ffffffffffffffffffffffffffffffffffffffff168473ffffffffffffffffffffffffffffffffffffffff16148061174357508373ffffffffffffffffffffffffffffffffffffffff1661172b84610593565b73ffffffffffffffffffffffffffffffffffffffff16145b80611754575061175381856113b5565b5b91505092915050565b8273ffffffffffffffffffffffffffffffffffffffff1661177d826109ec565b73ffffffffffffffffffffffffffffffffffffffff16146117d3576040517f08c379a00000000000000000000000000000000000000000000000000000000081526004016117ca90613089565b60405180910390fd5b600073ffffffffffffffffffffffffffffffffffffffff168273ffffffffffffffffffffffffffffffffffffffff161415611843576040517f08c379a000000000000000000000000000000000000000000000000000000000815260040161183a90612f49565b60405180910390fd5b61184e838383611fef565b6118596000826115c6565b6001600360008573ffffffffffffffffffffffffffffffffffffffff1673ffffffffffffffffffffffffffffffffffffffff16815260200190815260200160002060008282546118a991906132b3565b925050819055506001600360008473ffffffffffffffffffffffffffffffffffffffff1673ffffffffffffffffffffffffffffffffffffffff168152602001908152602001600020600082825461190091906131d2565b92505081905550816002600083815260200190815260200160002060006101000a81548173ffffffffffffffffffffffffffffffffffffffff021916908373ffffffffffffffffffffffffffffffffffffffff160217905550808273ffffffffffffffffffffffffffffffffffffffff168473ffffffffffffffffffffffffffffffffffffffff167fddf252ad1be2c89b69c2b068fc378daa952ba7f163c4a11628f55a4df523b3ef60405160405180910390a4505050565b60606000821415611a01576040518060400160405280600181526020017f30000000000000000000000000000000000000000000000000000000000000008152509050611b61565b600082905060005b60008214611a33578080611a1c90613400565b915050600a82611a2c9190613228565b9150611a09565b60008167ffffffffffffffff811115611a75577f4e487b7100000000000000000000000000000000000000000000000000000000600052604160045260246000fd5b6040519080825280601f01601f191660200182016040528015611aa75781602001600182028036833780820191505090505b5090505b60008514611b5a57600182611ac091906132b3565b9150600a85611acf9190613449565b6030611adb91906131d2565b60f81b818381518110611b17577f4e487b7100000000000000000000000000000000000000000000000000000000600052603260045260246000fd5b60200101907effffffffffffffffffffffffffffffffffffffffffffffffffffffffffffff1916908160001a905350600a85611b539190613228565b9450611aab565b8093505050505b919050565b600081604051602001611b799190612c3a565b6040516020818303038152906040528051906020012060001c9050919050565b600081600001549050919050565b611bb284848461175d565b611bbe84848484611ff4565b611bfd576040517f08c379a0000000000000000000000000000000000000000000000000000000008152600401611bf490612f09565b60405180910390fd5b50505050565b606060405180602001604052806000815250905090565b6060611c2582611552565b611c64576040517f08c379a0000000000000000000000000000000000000000000000000000000008152600401611c5b906130a9565b60405180910390fd5b6000611c6e611c03565b90506000815111611c8e5760405180602001604052806000815250611cb9565b80611c98846119b9565b604051602001611ca9929190612c51565b6040516020818303038152906040525b915050919050565b60606000825190506000811415611cea5760405180602001604052806000815250915050611e7a565b60006003600283611cfb91906131d2565b611d059190613228565b6004611d119190613259565b90506000602082611d2291906131d2565b67ffffffffffffffff811115611d61577f4e487b7100000000000000000000000000000000000000000000000000000000600052604160045260246000fd5b6040519080825280601f01601f191660200182016040528015611d935781602001600182028036833780820191505090505b5090506000604051806060016040528060408152602001613c53604091399050600181016020830160005b86811015611e375760038101905062ffffff818a015116603f8160121c168401518060081b905060ff603f83600c1c1686015116810190508060081b905060ff603f8360061c1686015116810190508060081b905060ff603f831686015116810190508060e01b90508084526004840193505050611dbe565b506003860660018114611e515760028114611e6157611e6c565b613d3d60f01b6002830352611e6c565b603d60f81b60018303525b508484525050819450505050505b919050565b611e9982826040518060200160405280600081525061218b565b5050565b611ea682611552565b611ee5576040517f08c379a0000000000000000000000000000000000000000000000000000000008152600401611edc90613009565b60405180910390fd5b80600660008481526020019081526020016000209080519060200190611f0c9291906123c7565b505050565b6001816000016000828254019250508190555050565b611fc1838383604051602401611f3f93929190612eab565b6040516020818303038152906040527fe3849f79000000000000000000000000000000000000000000000000000000007bffffffffffffffffffffffffffffffffffffffffffffffffffffffff19166020820180517bffffffffffffffffffffffffffffffffffffffffffffffffffffffff8381831617835250505050611fc6565b505050565b60008151905060006a636f6e736f6c652e6c6f679050602083016000808483855afa5050505050565b505050565b60006120158473ffffffffffffffffffffffffffffffffffffffff166121e6565b1561217e578373ffffffffffffffffffffffffffffffffffffffff1663150b7a0261203e6115be565b8786866040518563ffffffff1660e01b81526004016120609493929190612df9565b602060405180830381600087803b15801561207a57600080fd5b505af19250505080156120ab57506040513d601f19601f820116820180604052508101906120a8919061270b565b60015b61212e573d80600081146120db576040519150601f19603f3d011682016040523d82523d6000602084013e6120e0565b606091505b50600081511415612126576040517f08c379a000000000000000000000000000000000000000000000000000000000815260040161211d90612f09565b60405180910390fd5b805181602001fd5b63150b7a0260e01b7bffffffffffffffffffffffffffffffffffffffffffffffffffffffff1916817bffffffffffffffffffffffffffffffffffffffffffffffffffffffff191614915050612183565b600190505b949350505050565b61219583836121f9565b6121a26000848484611ff4565b6121e1576040517f08c379a00000000000000000000000000000000000000000000000000000000081526004016121d890612f09565b60405180910390fd5b505050565b600080823b905060008111915050919050565b600073ffffffffffffffffffffffffffffffffffffffff168273ffffffffffffffffffffffffffffffffffffffff161415612269576040517f08c379a000000000000000000000000000000000000000000000000000000000815260040161226090613029565b60405180910390fd5b61227281611552565b156122b2576040517f08c379a00000000000000000000000000000000000000000000000000000000081526004016122a990612f29565b60405180910390fd5b6122be60008383611fef565b6001600360008473ffffffffffffffffffffffffffffffffffffffff1673ffffffffffffffffffffffffffffffffffffffff168152602001908152602001600020600082825461230e91906131d2565b92505081905550816002600083815260200190815260200160002060006101000a81548173ffffffffffffffffffffffffffffffffffffffff021916908373ffffffffffffffffffffffffffffffffffffffff160217905550808273ffffffffffffffffffffffffffffffffffffffff16600073ffffffffffffffffffffffffffffffffffffffff167fddf252ad1be2c89b69c2b068fc378daa952ba7f163c4a11628f55a4df523b3ef60405160405180910390a45050565b8280546123d39061339d565b90600052602060002090601f0160209004810192826123f5576000855561243c565b82601f1061240e57805160ff191683800117855561243c565b8280016001018555821561243c579182015b8281111561243b578251825591602001919060010190612420565b5b509050612449919061244d565b5090565b5b8082111561246657600081600090555060010161244e565b5090565b600061247d61247884613149565b613124565b90508281526020810184848401111561249557600080fd5b6124a084828561335b565b509392505050565b6000813590506124b781613bd1565b92915050565b6000813590506124cc81613be8565b92915050565b6000813590506124e181613bff565b92915050565b6000815190506124f681613bff565b92915050565b600082601f83011261250d57600080fd5b813561251d84826020860161246a565b91505092915050565b60008135905061253581613c16565b92915050565b60006020828403121561254d57600080fd5b600061255b848285016124a8565b91505092915050565b6000806040838503121561257757600080fd5b6000612585858286016124a8565b9250506020612596858286016124a8565b9150509250929050565b6000806000606084860312156125b557600080fd5b60006125c3868287016124a8565b93505060206125d4868287016124a8565b92505060406125e586828701612526565b9150509250925092565b6000806000806080858703121561260557600080fd5b6000612613878288016124a8565b9450506020612624878288016124a8565b935050604061263587828801612526565b925050606085013567ffffffffffffffff81111561265257600080fd5b61265e878288016124fc565b91505092959194509250565b6000806040838503121561267d57600080fd5b600061268b858286016124a8565b925050602061269c858286016124bd565b9150509250929050565b600080604083850312156126b957600080fd5b60006126c7858286016124a8565b92505060206126d885828601612526565b9150509250929050565b6000602082840312156126f457600080fd5b6000612702848285016124d2565b91505092915050565b60006020828403121561271d57600080fd5b600061272b848285016124e7565b91505092915050565b60006020828403121561274657600080fd5b600061275484828501612526565b91505092915050565b612766816132e7565b82525050565b612775816132f9565b82525050565b60006127868261318f565b61279081856131a5565b93506127a081856020860161336a565b6127a981613536565b840191505092915050565b60006127bf8261319a565b6127c981856131b6565b93506127d981856020860161336a565b6127e281613536565b840191505092915050565b60006127f88261319a565b61280281856131c7565b935061281281856020860161336a565b80840191505092915050565b6000815461282b8161339d565b61283581866131c7565b94506001821660008114612850576001811461286157612894565b60ff19831686528186019350612894565b61286a8561317a565b60005b8381101561288c5781548189015260018201915060208101905061286d565b838801955050505b50505092915050565b60006128aa6011836131b6565b91506128b582613547565b602082019050919050565b60006128cd6032836131b6565b91506128d882613570565b604082019050919050565b60006128f0601c836131b6565b91506128fb826135bf565b602082019050919050565b6000612913600a836131c7565b915061291e826135e8565b600a82019050919050565b60006129366024836131b6565b915061294182613611565b604082019050919050565b60006129596019836131b6565b915061296482613660565b602082019050919050565b600061297c6063836131c7565b915061298782613689565b606382019050919050565b600061299f600b836131c7565b91506129aa82613724565b600b82019050919050565b60006129c2602c836131b6565b91506129cd8261374d565b604082019050919050565b60006129e5600d836131c7565b91506129f08261379c565b600d82019050919050565b6000612a086038836131b6565b9150612a13826137c5565b604082019050919050565b6000612a2b602a836131b6565b9150612a3682613814565b604082019050919050565b6000612a4e6029836131b6565b9150612a5982613863565b604082019050919050565b6000612a71602e836131b6565b9150612a7c826138b2565b604082019050919050565b6000612a946002836131c7565b9150612a9f82613901565b600282019050919050565b6000612ab76020836131b6565b9150612ac28261392a565b602082019050919050565b6000612ada6031836131b6565b9150612ae582613953565b604082019050919050565b6000612afd602c836131b6565b9150612b08826139a2565b604082019050919050565b6000612b206029836131b6565b9150612b2b826139f1565b604082019050919050565b6000612b43602f836131b6565b9150612b4e82613a40565b604082019050919050565b6000612b66600a836131c7565b9150612b7182613a8f565b600a82019050919050565b6000612b896021836131b6565b9150612b9482613ab8565b604082019050919050565b6000612bac600a836131c7565b9150612bb782613b07565b600a82019050919050565b6000612bcf601d836131c7565b9150612bda82613b30565b601d82019050919050565b6000612bf26031836131b6565b9150612bfd82613b59565b604082019050919050565b6000612c156005836131c7565b9150612c2082613ba8565b600582019050919050565b612c3481613351565b82525050565b6000612c4682846127ed565b915081905092915050565b6000612c5d82856127ed565b9150612c6982846127ed565b91508190509392505050565b6000612c8182866127ed565b9150612c8d82856127ed565b9150612c9982846127ed565b9150819050949350505050565b6000612cb2828761281e565b9150612cbe82866127ed565b9150612cca828561281e565b9150612cd682846127ed565b9150612ce1826129d8565b915081905095945050505050565b6000612cfa82612906565b9150612d0682846127ed565b915081905092915050565b6000612d1c82612992565b9150612d2882846127ed565b915081905092915050565b6000612d3e82612b59565b9150612d4a82856127ed565b9150612d558261296f565b9150612d6182846127ed565b9150612d6c82612a87565b91508190509392505050565b6000612d8382612b9f565b9150612d8f82846127ed565b915081905092915050565b6000612da582612bc2565b9150612db182846127ed565b915081905092915050565b6000612dc782612c08565b9150612dd382846127ed565b915081905092915050565b6000602082019050612df3600083018461275d565b92915050565b6000608082019050612e0e600083018761275d565b612e1b602083018661275d565b612e286040830185612c2b565b8181036060830152612e3a818461277b565b905095945050505050565b6000604082019050612e5a600083018561275d565b612e676020830184612c2b565b9392505050565b6000602082019050612e83600083018461276c565b92915050565b60006020820190508181036000830152612ea381846127b4565b905092915050565b60006060820190508181036000830152612ec581866127b4565b9050612ed46020830185612c2b565b612ee1604083018461275d565b949350505050565b60006020820190508181036000830152612f028161289d565b9050919050565b60006020820190508181036000830152612f22816128c0565b9050919050565b60006020820190508181036000830152612f42816128e3565b9050919050565b60006020820190508181036000830152612f6281612929565b9050919050565b60006020820190508181036000830152612f828161294c565b9050919050565b60006020820190508181036000830152612fa2816129b5565b9050919050565b60006020820190508181036000830152612fc2816129fb565b9050919050565b60006020820190508181036000830152612fe281612a1e565b9050919050565b6000602082019050818103600083015261300281612a41565b9050919050565b6000602082019050818103600083015261302281612a64565b9050919050565b6000602082019050818103600083015261304281612aaa565b9050919050565b6000602082019050818103600083015261306281612acd565b9050919050565b6000602082019050818103600083015261308281612af0565b9050919050565b600060208201905081810360008301526130a281612b13565b9050919050565b600060208201905081810360008301526130c281612b36565b9050919050565b600060208201905081810360008301526130e281612b7c565b9050919050565b6000602082019050818103600083015261310281612be5565b9050919050565b600060208201905061311e6000830184612c2b565b92915050565b600061312e61313f565b905061313a82826133cf565b919050565b6000604051905090565b600067ffffffffffffffff82111561316457613163613507565b5b61316d82613536565b9050602081019050919050565b60008190508160005260206000209050919050565b600081519050919050565b600081519050919050565b600082825260208201905092915050565b600082825260208201905092915050565b600081905092915050565b60006131dd82613351565b91506131e883613351565b9250827fffffffffffffffffffffffffffffffffffffffffffffffffffffffffffffffff0382111561321d5761321c61347a565b5b828201905092915050565b600061323382613351565b915061323e83613351565b92508261324e5761324d6134a9565b5b828204905092915050565b600061326482613351565b915061326f83613351565b9250817fffffffffffffffffffffffffffffffffffffffffffffffffffffffffffffffff04831182151516156132a8576132a761347a565b5b828202905092915050565b60006132be82613351565b91506132c983613351565b9250828210156132dc576132db61347a565b5b828203905092915050565b60006132f282613331565b9050919050565b60008115159050919050565b60007fffffffff0000000000000000000000000000000000000000000000000000000082169050919050565b600073ffffffffffffffffffffffffffffffffffffffff82169050919050565b6000819050919050565b82818337600083830152505050565b60005b8381101561338857808201518184015260208101905061336d565b83811115613397576000848401525b50505050565b600060028204905060018216806133b557607f821691505b602082108114156133c9576133c86134d8565b5b50919050565b6133d882613536565b810181811067ffffffffffffffff821117156133f7576133f6613507565b5b80604052505050565b600061340b82613351565b91507fffffffffffffffffffffffffffffffffffffffffffffffffffffffffffffffff82141561343e5761343d61347a565b5b600182019050919050565b600061345482613351565b915061345f83613351565b92508261346f5761346e6134a9565b5b828206905092915050565b7f4e487b7100000000000000000000000000000000000000000000000000000000600052601160045260246000fd5b7f4e487b7100000000000000000000000000000000000000000000000000000000600052601260045260246000fd5b7f4e487b7100000000000000000000000000000000000000000000000000000000600052602260045260246000fd5b7f4e487b7100000000000000000000000000000000000000000000000000000000600052604160045260246000fd5b6000601f19601f8301169050919050565b7f4d617820737570706c79206f66204e4654000000000000000000000000000000600082015250565b7f4552433732313a207472616e7366657220746f206e6f6e20455243373231526560008201527f63656976657220696d706c656d656e7465720000000000000000000000000000602082015250565b7f4552433732313a20746f6b656e20616c7265616479206d696e74656400000000600082015250565b7f54484952445f574f524400000000000000000000000000000000000000000000600082015250565b7f4552433732313a207472616e7366657220746f20746865207a65726f2061646460008201527f7265737300000000000000000000000000000000000000000000000000000000602082015250565b7f4552433732313a20617070726f766520746f2063616c6c657200000000000000600082015250565b7f222c20226465736372697074696f6e223a20224120686967686c79206163636c60008201527f61696d656420636f6c6c656374696f6e206f6620737175617265732e222c202260208201527f696d616765223a2022646174613a696d6167652f7376672b786d6c3b6261736560408201527f36342c0000000000000000000000000000000000000000000000000000000000606082015250565b7f5345434f4e445f574f5244000000000000000000000000000000000000000000600082015250565b7f4552433732313a206f70657261746f7220717565727920666f72206e6f6e657860008201527f697374656e7420746f6b656e0000000000000000000000000000000000000000602082015250565b7f3c2f746578743e3c2f7376673e00000000000000000000000000000000000000600082015250565b7f4552433732313a20617070726f76652063616c6c6572206973206e6f74206f7760008201527f6e6572206e6f7220617070726f76656420666f7220616c6c0000000000000000602082015250565b7f4552433732313a2062616c616e636520717565727920666f7220746865207a6560008201527f726f206164647265737300000000000000000000000000000000000000000000602082015250565b7f4552433732313a206f776e657220717565727920666f72206e6f6e657869737460008201527f656e7420746f6b656e0000000000000000000000000000000000000000000000602082015250565b7f45524337323155524953746f726167653a2055524920736574206f66206e6f6e60008201527f6578697374656e7420746f6b656e000000000000000000000000000000000000602082015250565b7f227d000000000000000000000000000000000000000000000000000000000000600082015250565b7f4552433732313a206d696e7420746f20746865207a65726f2061646472657373600082015250565b7f45524337323155524953746f726167653a2055524920717565727920666f722060008201527f6e6f6e6578697374656e7420746f6b656e000000000000000000000000000000602082015250565b7f4552433732313a20617070726f76656420717565727920666f72206e6f6e657860008201527f697374656e7420746f6b656e0000000000000000000000000000000000000000602082015250565b7f4552433732313a207472616e73666572206f6620746f6b656e2074686174206960008201527f73206e6f74206f776e0000000000000000000000000000000000000000000000602082015250565b7f4552433732314d657461646174613a2055524920717565727920666f72206e6f60008201527f6e6578697374656e7420746f6b656e0000000000000000000000000000000000602082015250565b7f7b226e616d65223a202200000000000000000000000000000000000000000000600082015250565b7f4552433732313a20617070726f76616c20746f2063757272656e74206f776e6560008201527f7200000000000000000000000000000000000000000000000000000000000000602082015250565b7f46495253545f574f524400000000000000000000000000000000000000000000600082015250565b7f646174613a6170706c69636174696f6e2f6a736f6e3b6261736536342c000000600082015250565b7f4552433732313a207472616e736665722063616c6c6572206973206e6f74206f60008201527f776e6572206e6f7220617070726f766564000000000000000000000000000000602082015250565b7f434f4c4f52000000000000000000000000000000000000000000000000000000600082015250565b613bda816132e7565b8114613be557600080fd5b50565b613bf1816132f9565b8114613bfc57600080fd5b50565b613c0881613305565b8114613c1357600080fd5b50565b613c1f81613351565b8114613c2a57600080fd5b5056fe416e204e465420772f20494420257320686173206265656e206d696e74656420746f2025734142434445464748494a4b4c4d4e4f505152535455565758595a6162636465666768696a6b6c6d6e6f707172737475767778797a303132333435363738392b2fa2646970667358221220c924aa9c0da20109d5eebc82eb1e207822e56faaff7733bb27b68127415c527e64736f6c634300080400333c73766720786d6c6e733d27687474703a2f2f7777772e77332e6f72672f323030302f73766727207072657365727665417370656374526174696f3d27784d696e594d696e206d656574272076696577426f783d273020302033353020333530273e3c7374796c653e2e62617365207b2066696c6c3a2077686974653b20666f6e742d66616d696c793a2073657269663b20666f6e742d73697a653a20323470783b207d3c2f7374796c653e3c726563742077696474683d273130302527206865696768743d2731303025272066696c6c3d27272f3e3c7465787420783d273530252720793d273530252720636c6173733d27626173652720646f6d696e616e742d626173656c696e653d276d6964646c652720746578742d616e63686f723d276d6964646c65273e",
  "linkReferences": {},
  "deployedLinkReferences": {}
}