{
  "_format": "hh-sol-artifact-1",
  "contractName": "PunksNFT",
  "sourceName": "contracts/PunksNFT.sol",
  "abi": [
    {
      "inputs": [],
      "stateMutability": "nonpayable",
      "type": "constructor"
    },
    {
      "anonymous": false,
      "inputs": [
        {
          "indexed": true,
          "internalType": "address",
          "name": "owner",
          "type": "address"
        },
        {
          "indexed": true,
          "internalType": "address",
          "name": "approved",
          "type": "address"
        },
        {
          "indexed": true,
          "internalType": "uint256",
          "name": "tokenId",
          "type": "uint256"
        }
      ],
      "name": "Approval",
      "type": "event"
    },
    {
      "anonymous": false,
      "inputs": [
        {
          "indexed": true,
          "internalType": "address",
          "name": "owner",
          "type": "address"
        },
        {
          "indexed": true,
          "internalType": "address",
          "name": "operator",
          "type": "address"
        },
        {
          "indexed": false,
          "internalType": "bool",
          "name": "approved",
          "type": "bool"
        }
      ],
      "name": "ApprovalForAll",
      "type": "event"
    },
    {
      "anonymous": false,
      "inputs": [
        {
          "indexed": false,
          "internalType": "address",
          "name": "sender",
          "type": "address"
        },
        {
          "indexed": false,
          "internalType": "uint256",
          "name": "tokenId",
          "type": "uint256"
        }
      ],
      "name": "NewNFTMinted",
      "type": "event"
    },
    {
      "anonymous": false,
      "inputs": [
        {
          "indexed": true,
          "internalType": "address",
          "name": "previousOwner",
          "type": "address"
        },
        {
          "indexed": true,
          "internalType": "address",
          "name": "newOwner",
          "type": "address"
        }
      ],
      "name": "OwnershipTransferred",
      "type": "event"
    },
    {
      "anonymous": false,
      "inputs": [
        {
          "indexed": true,
          "internalType": "address",
          "name": "from",
          "type": "address"
        },
        {
          "indexed": true,
          "internalType": "address",
          "name": "to",
          "type": "address"
        },
        {
          "indexed": true,
          "internalType": "uint256",
          "name": "tokenId",
          "type": "uint256"
        }
      ],
      "name": "Transfer",
      "type": "event"
    },
    {
      "inputs": [],
      "name": "BASE_URI",
      "outputs": [
        {
          "internalType": "string",
          "name": "",
          "type": "string"
        }
      ],
      "stateMutability": "view",
      "type": "function"
    },
    {
      "inputs": [],
      "name": "CURRENT_PRICE",
      "outputs": [
        {
          "internalType": "uint256",
          "name": "",
          "type": "uint256"
        }
      ],
      "stateMutability": "view",
      "type": "function"
    },
    {
      "inputs": [],
      "name": "DEV",
      "outputs": [
        {
          "internalType": "address",
          "name": "",
          "type": "address"
        }
      ],
      "stateMutability": "view",
      "type": "function"
    },
    {
      "inputs": [],
      "name": "MAX_TOKENS",
      "outputs": [
        {
          "internalType": "uint256",
          "name": "",
          "type": "uint256"
        }
      ],
      "stateMutability": "view",
      "type": "function"
    },
    {
      "inputs": [
        {
          "internalType": "address",
          "name": "to",
          "type": "address"
        },
        {
          "internalType": "uint256",
          "name": "tokenId",
          "type": "uint256"
        }
      ],
      "name": "approve",
      "outputs": [],
      "stateMutability": "nonpayable",
      "type": "function"
    },
    {
      "inputs": [
        {
          "internalType": "address",
          "name": "owner",
          "type": "address"
        }
      ],
      "name": "balanceOf",
      "outputs": [
        {
          "internalType": "uint256",
          "name": "",
          "type": "uint256"
        }
      ],
      "stateMutability": "view",
      "type": "function"
    },
    {
      "inputs": [],
      "name": "contractURI",
      "outputs": [
        {
          "internalType": "string",
          "name": "",
          "type": "string"
        }
      ],
      "stateMutability": "view",
      "type": "function"
    },
    {
      "inputs": [
        {
          "internalType": "uint256",
          "name": "tokenId",
          "type": "uint256"
        }
      ],
      "name": "getApproved",
      "outputs": [
        {
          "internalType": "address",
          "name": "",
          "type": "address"
        }
      ],
      "stateMutability": "view",
      "type": "function"
    },
    {
      "inputs": [
        {
          "internalType": "address",
          "name": "owner",
          "type": "address"
        },
        {
          "internalType": "address",
          "name": "operator",
          "type": "address"
        }
      ],
      "name": "isApprovedForAll",
      "outputs": [
        {
          "internalType": "bool",
          "name": "",
          "type": "bool"
        }
      ],
      "stateMutability": "view",
      "type": "function"
    },
    {
      "inputs": [],
      "name": "makeNFT",
      "outputs": [],
      "stateMutability": "payable",
      "type": "function"
    },
    {
      "inputs": [],
      "name": "name",
      "outputs": [
        {
          "internalType": "string",
          "name": "",
          "type": "string"
        }
      ],
      "stateMutability": "view",
      "type": "function"
    },
    {
      "inputs": [],
      "name": "owner",
      "outputs": [
        {
          "internalType": "address",
          "name": "",
          "type": "address"
        }
      ],
      "stateMutability": "view",
      "type": "function"
    },
    {
      "inputs": [
        {
          "internalType": "uint256",
          "name": "tokenId",
          "type": "uint256"
        }
      ],
      "name": "ownerOf",
      "outputs": [
        {
          "internalType": "address",
          "name": "",
          "type": "address"
        }
      ],
      "stateMutability": "view",
      "type": "function"
    },
    {
      "inputs": [],
      "name": "renounceOwnership",
      "outputs": [],
      "stateMutability": "nonpayable",
      "type": "function"
    },
    {
      "inputs": [],
      "name": "reserveNFT",
      "outputs": [],
      "stateMutability": "nonpayable",
      "type": "function"
    },
    {
      "inputs": [
        {
          "internalType": "address",
          "name": "from",
          "type": "address"
        },
        {
          "internalType": "address",
          "name": "to",
          "type": "address"
        },
        {
          "internalType": "uint256",
          "name": "tokenId",
          "type": "uint256"
        }
      ],
      "name": "safeTransferFrom",
      "outputs": [],
      "stateMutability": "nonpayable",
      "type": "function"
    },
    {
      "inputs": [
        {
          "internalType": "address",
          "name": "from",
          "type": "address"
        },
        {
          "internalType": "address",
          "name": "to",
          "type": "address"
        },
        {
          "internalType": "uint256",
          "name": "tokenId",
          "type": "uint256"
        },
        {
          "internalType": "bytes",
          "name": "_data",
          "type": "bytes"
        }
      ],
      "name": "safeTransferFrom",
      "outputs": [],
      "stateMutability": "nonpayable",
      "type": "function"
    },
    {
      "inputs": [
        {
          "internalType": "address",
          "name": "operator",
          "type": "address"
        },
        {
          "internalType": "bool",
          "name": "approved",
          "type": "bool"
        }
      ],
      "name": "setApprovalForAll",
      "outputs": [],
      "stateMutability": "nonpayable",
      "type": "function"
    },
    {
      "inputs": [
        {
          "internalType": "string",
          "name": "BaseURI",
          "type": "string"
        }
      ],
      "name": "setBaseURI",
      "outputs": [],
      "stateMutability": "nonpayable",
      "type": "function"
    },
    {
      "inputs": [
        {
          "internalType": "uint256",
          "name": "currentPrice",
          "type": "uint256"
        }
      ],
      "name": "setCurrentPrice",
      "outputs": [],
      "stateMutability": "nonpayable",
      "type": "function"
    },
    {
      "inputs": [
        {
          "internalType": "bytes4",
          "name": "interfaceId",
          "type": "bytes4"
        }
      ],
      "name": "supportsInterface",
      "outputs": [
        {
          "internalType": "bool",
          "name": "",
          "type": "bool"
        }
      ],
      "stateMutability": "view",
      "type": "function"
    },
    {
      "inputs": [],
      "name": "symbol",
      "outputs": [
        {
          "internalType": "string",
          "name": "",
          "type": "string"
        }
      ],
      "stateMutability": "view",
      "type": "function"
    },
    {
      "inputs": [
        {
          "internalType": "uint256",
          "name": "tokenId",
          "type": "uint256"
        }
      ],
      "name": "tokenURI",
      "outputs": [
        {
          "internalType": "string",
          "name": "",
          "type": "string"
        }
      ],
      "stateMutability": "view",
      "type": "function"
    },
    {
      "inputs": [],
      "name": "totalSupply",
      "outputs": [
        {
          "internalType": "uint256",
          "name": "",
          "type": "uint256"
        }
      ],
      "stateMutability": "view",
      "type": "function"
    },
    {
      "inputs": [
        {
          "internalType": "address",
          "name": "from",
          "type": "address"
        },
        {
          "internalType": "address",
          "name": "to",
          "type": "address"
        },
        {
          "internalType": "uint256",
          "name": "tokenId",
          "type": "uint256"
        }
      ],
      "name": "transferFrom",
      "outputs": [],
      "stateMutability": "nonpayable",
      "type": "function"
    },
    {
      "inputs": [
        {
          "internalType": "address",
          "name": "newOwner",
          "type": "address"
        }
      ],
      "name": "transferOwnership",
      "outputs": [],
      "stateMutability": "nonpayable",
      "type": "function"
    },
    {
      "inputs": [],
      "name": "withdraw",
      "outputs": [],
      "stateMutability": "nonpayable",
      "type": "function"
    }
  ],
  "bytecode": "0x6080604052610fa060095566354a6ba7a18000600a5560405180606001604052806025815260200162003bdf60259139600b908051906020019062000046929190620001e9565b503480156200005457600080fd5b506040518060400160405280600e81526020017f416943727970746f50756e6b73350000000000000000000000000000000000008152506040518060400160405280600681526020017f50554e4b533500000000000000000000000000000000000000000000000000008152508160009080519060200190620000d9929190620001e9565b508060019080519060200190620000f2929190620001e9565b50505062000115620001096200011b60201b60201c565b6200012360201b60201c565b620002fe565b600033905090565b6000600760009054906101000a900473ffffffffffffffffffffffffffffffffffffffff16905081600760006101000a81548173ffffffffffffffffffffffffffffffffffffffff021916908373ffffffffffffffffffffffffffffffffffffffff1602179055508173ffffffffffffffffffffffffffffffffffffffff168173ffffffffffffffffffffffffffffffffffffffff167f8be0079c531659141344cd1fd0a4f28419497f9722a3daafe3b4186f6b6457e060405160405180910390a35050565b828054620001f79062000299565b90600052602060002090601f0160209004810192826200021b576000855562000267565b82601f106200023657805160ff191683800117855562000267565b8280016001018555821562000267579182015b828111156200026657825182559160200191906001019062000249565b5b5090506200027691906200027a565b5090565b5b80821115620002955760008160009055506001016200027b565b5090565b60006002820490506001821680620002b257607f821691505b60208210811415620002c957620002c8620002cf565b5b50919050565b7f4e487b7100000000000000000000000000000000000000000000000000000000600052602260045260246000fd5b6138d1806200030e6000396000f3fe60806040526004361061019c5760003560e01c8063715018a6116100ec578063c617f4ed1161008a578063e8a3d48511610064578063e8a3d4851461056d578063e985e9c514610598578063f2fde38b146105d5578063f47c84c5146105fe5761019c565b8063c617f4ed146104ee578063c87b56dd14610505578063dbddb26a146105425761019c565b8063a22cb465116100c6578063a22cb46514610467578063b036b4bd14610490578063b88d4fde1461049a578063c1eb5ddd146104c35761019c565b8063715018a6146103fa5780638da5cb5b1461041157806395d89b411461043c5761019c565b806323b872dd116101595780634b369a61116101335780634b369a611461032c57806355f804b3146103575780636352211e1461038057806370a08231146103bd5761019c565b806323b872dd146102c35780633ccfd60b146102ec57806342842e0e146103035761019c565b806301ffc9a7146101a157806306fdde03146101de578063081812fc14610209578063095ea7b31461024657806318160ddd1461026f57806318b200711461029a575b600080fd5b3480156101ad57600080fd5b506101c860048036038101906101c39190612776565b610629565b6040516101d59190612c4f565b60405180910390f35b3480156101ea57600080fd5b506101f361070b565b6040516102009190612c6a565b60405180910390f35b34801561021557600080fd5b50610230600480360381019061022b9190612809565b61079d565b60405161023d9190612bbf565b60405180910390f35b34801561025257600080fd5b5061026d6004803603810190610268919061273a565b610822565b005b34801561027b57600080fd5b5061028461093a565b6040516102919190612eec565b60405180910390f35b3480156102a657600080fd5b506102c160048036038101906102bc9190612809565b61094b565b005b3480156102cf57600080fd5b506102ea60048036038101906102e59190612634565b6109d1565b005b3480156102f857600080fd5b50610301610a31565b005b34801561030f57600080fd5b5061032a60048036038101906103259190612634565b610b6f565b005b34801561033857600080fd5b50610341610b8f565b60405161034e9190612eec565b60405180910390f35b34801561036357600080fd5b5061037e600480360381019061037991906127c8565b610b95565b005b34801561038c57600080fd5b506103a760048036038101906103a29190612809565b610c2b565b6040516103b49190612bbf565b60405180910390f35b3480156103c957600080fd5b506103e460048036038101906103df91906125cf565b610cdd565b6040516103f19190612eec565b60405180910390f35b34801561040657600080fd5b5061040f610d95565b005b34801561041d57600080fd5b50610426610e1d565b6040516104339190612bbf565b60405180910390f35b34801561044857600080fd5b50610451610e47565b60405161045e9190612c6a565b60405180910390f35b34801561047357600080fd5b5061048e600480360381019061048991906126fe565b610ed9565b005b61049861105a565b005b3480156104a657600080fd5b506104c160048036038101906104bc9190612683565b611141565b005b3480156104cf57600080fd5b506104d86111a3565b6040516104e59190612bbf565b60405180910390f35b3480156104fa57600080fd5b506105036111bb565b005b34801561051157600080fd5b5061052c60048036038101906105279190612809565b6112fc565b6040516105399190612c6a565b60405180910390f35b34801561054e57600080fd5b5061055761144e565b6040516105649190612c6a565b60405180910390f35b34801561057957600080fd5b506105826114dc565b60405161058f9190612c6a565b60405180910390f35b3480156105a457600080fd5b506105bf60048036038101906105ba91906125f8565b61156e565b6040516105cc9190612c4f565b60405180910390f35b3480156105e157600080fd5b506105fc60048036038101906105f791906125cf565b611602565b005b34801561060a57600080fd5b506106136116fa565b6040516106209190612eec565b60405180910390f35b60007f80ac58cd000000000000000000000000000000000000000000000000000000007bffffffffffffffffffffffffffffffffffffffffffffffffffffffff1916827bffffffffffffffffffffffffffffffffffffffffffffffffffffffff191614806106f457507f5b5e139f000000000000000000000000000000000000000000000000000000007bffffffffffffffffffffffffffffffffffffffffffffffffffffffff1916827bffffffffffffffffffffffffffffffffffffffffffffffffffffffff1916145b80610704575061070382611700565b5b9050919050565b60606000805461071a9061319c565b80601f01602080910402602001604051908101604052809291908181526020018280546107469061319c565b80156107935780601f1061076857610100808354040283529160200191610793565b820191906000526020600020905b81548152906001019060200180831161077657829003601f168201915b5050505050905090565b60006107a88261176a565b6107e7576040517f08c379a00000000000000000000000000000000000000000000000000000000081526004016107de90612e2c565b60405180910390fd5b6004600083815260200190815260200160002060009054906101000a900473ffffffffffffffffffffffffffffffffffffffff169050919050565b600061082d82610c2b565b90508073ffffffffffffffffffffffffffffffffffffffff168373ffffffffffffffffffffffffffffffffffffffff16141561089e576040517f08c379a000000000000000000000000000000000000000000000000000000000815260040161089590612eac565b60405180910390fd5b8073ffffffffffffffffffffffffffffffffffffffff166108bd6117d6565b73ffffffffffffffffffffffffffffffffffffffff1614806108ec57506108eb816108e66117d6565b61156e565b5b61092b576040517f08c379a000000000000000000000000000000000000000000000000000000000815260040161092290612d6c565b60405180910390fd5b61093583836117de565b505050565b60006109466008611897565b905090565b6109536117d6565b73ffffffffffffffffffffffffffffffffffffffff16610971610e1d565b73ffffffffffffffffffffffffffffffffffffffff16146109c7576040517f08c379a00000000000000000000000000000000000000000000000000000000081526004016109be90612e4c565b60405180910390fd5b80600a8190555050565b6109e26109dc6117d6565b826118a5565b610a21576040517f08c379a0000000000000000000000000000000000000000000000000000000008152600401610a1890612ecc565b60405180910390fd5b610a2c838383611983565b505050565b610a396117d6565b73ffffffffffffffffffffffffffffffffffffffff16610a57610e1d565b73ffffffffffffffffffffffffffffffffffffffff1614610aad576040517f08c379a0000000000000000000000000000000000000000000000000000000008152600401610aa490612e4c565b60405180910390fd5b60004790507399872620911cbc41b66bc5d4123e21f09abc0c4473ffffffffffffffffffffffffffffffffffffffff166108fc6064600a84610aef9190613058565b610af99190613027565b9081150290604051600060405180830381858888f19350505050158015610b24573d6000803e3d6000fd5b503373ffffffffffffffffffffffffffffffffffffffff166108fc479081150290604051600060405180830381858888f19350505050158015610b6b573d6000803e3d6000fd5b5050565b610b8a83838360405180602001604052806000815250611141565b505050565b600a5481565b610b9d6117d6565b73ffffffffffffffffffffffffffffffffffffffff16610bbb610e1d565b73ffffffffffffffffffffffffffffffffffffffff1614610c11576040517f08c379a0000000000000000000000000000000000000000000000000000000008152600401610c0890612e4c565b60405180910390fd5b80600b9080519060200190610c279291906123f3565b5050565b6000806002600084815260200190815260200160002060009054906101000a900473ffffffffffffffffffffffffffffffffffffffff169050600073ffffffffffffffffffffffffffffffffffffffff168173ffffffffffffffffffffffffffffffffffffffff161415610cd4576040517f08c379a0000000000000000000000000000000000000000000000000000000008152600401610ccb90612dac565b60405180910390fd5b80915050919050565b60008073ffffffffffffffffffffffffffffffffffffffff168273ffffffffffffffffffffffffffffffffffffffff161415610d4e576040517f08c379a0000000000000000000000000000000000000000000000000000000008152600401610d4590612d8c565b60405180910390fd5b600360008373ffffffffffffffffffffffffffffffffffffffff1673ffffffffffffffffffffffffffffffffffffffff168152602001908152602001600020549050919050565b610d9d6117d6565b73ffffffffffffffffffffffffffffffffffffffff16610dbb610e1d565b73ffffffffffffffffffffffffffffffffffffffff1614610e11576040517f08c379a0000000000000000000000000000000000000000000000000000000008152600401610e0890612e4c565b60405180910390fd5b610e1b6000611bdf565b565b6000600760009054906101000a900473ffffffffffffffffffffffffffffffffffffffff16905090565b606060018054610e569061319c565b80601f0160208091040260200160405190810160405280929190818152602001828054610e829061319c565b8015610ecf5780601f10610ea457610100808354040283529160200191610ecf565b820191906000526020600020905b815481529060010190602001808311610eb257829003601f168201915b5050505050905090565b610ee16117d6565b73ffffffffffffffffffffffffffffffffffffffff168273ffffffffffffffffffffffffffffffffffffffff161415610f4f576040517f08c379a0000000000000000000000000000000000000000000000000000000008152600401610f4690612d2c565b60405180910390fd5b8060056000610f5c6117d6565b73ffffffffffffffffffffffffffffffffffffffff1673ffffffffffffffffffffffffffffffffffffffff16815260200190815260200160002060008473ffffffffffffffffffffffffffffffffffffffff1673ffffffffffffffffffffffffffffffffffffffff16815260200190815260200160002060006101000a81548160ff0219169083151502179055508173ffffffffffffffffffffffffffffffffffffffff166110096117d6565b73ffffffffffffffffffffffffffffffffffffffff167f17307eab39ab6107e8899845ad3d59bd9653f200f220920489ca2b5937696c318360405161104e9190612c4f565b60405180910390a35050565b60006110666008611897565b905034600a5411156110ad576040517f08c379a00000000000000000000000000000000000000000000000000000000081526004016110a490612dcc565b60405180910390fd5b60095481106110f1576040517f08c379a00000000000000000000000000000000000000000000000000000000081526004016110e890612c8c565b60405180910390fd5b6110fb3382611ca5565b6111056008611cc3565b7f1c05098ed1ff38e6238d2b1b04b2c7977d4c94ce651bda6473f9dba8dbf01da03382604051611136929190612c26565b60405180910390a150565b61115261114c6117d6565b836118a5565b611191576040517f08c379a000000000000000000000000000000000000000000000000000000000815260040161118890612ecc565b60405180910390fd5b61119d84848484611cd9565b50505050565b7399872620911cbc41b66bc5d4123e21f09abc0c4481565b6111c36117d6565b73ffffffffffffffffffffffffffffffffffffffff166111e1610e1d565b73ffffffffffffffffffffffffffffffffffffffff1614611237576040517f08c379a000000000000000000000000000000000000000000000000000000000815260040161122e90612e4c565b60405180910390fd5b6000600190505b603281116112f95760006112526008611897565b90506009548110611298576040517f08c379a000000000000000000000000000000000000000000000000000000000815260040161128f90612c8c565b60405180910390fd5b6112a23382611ca5565b6112ac6008611cc3565b7f1c05098ed1ff38e6238d2b1b04b2c7977d4c94ce651bda6473f9dba8dbf01da033826040516112dd929190612c26565b60405180910390a15080806112f1906131ff565b91505061123e565b50565b60606113078261176a565b611346576040517f08c379a000000000000000000000000000000000000000000000000000000000815260040161133d90612e0c565b60405180910390fd5b60006006600084815260200190815260200160002080546113669061319c565b80601f01602080910402602001604051908101604052809291908181526020018280546113929061319c565b80156113df5780601f106113b4576101008083540402835291602001916113df565b820191906000526020600020905b8154815290600101906020018083116113c257829003601f168201915b5050505050905060006113f0611d35565b9050600081511415611406578192505050611449565b60008251111561143b578082604051602001611423929190612b9b565b60405160208183030381529060405292505050611449565b61144484611dc7565b925050505b919050565b600b805461145b9061319c565b80601f01602080910402602001604051908101604052809291908181526020018280546114879061319c565b80156114d45780601f106114a9576101008083540402835291602001916114d4565b820191906000526020600020905b8154815290600101906020018083116114b757829003601f168201915b505050505081565b6060600b80546114eb9061319c565b80601f01602080910402602001604051908101604052809291908181526020018280546115179061319c565b80156115645780601f1061153957610100808354040283529160200191611564565b820191906000526020600020905b81548152906001019060200180831161154757829003601f168201915b5050505050905090565b6000600560008473ffffffffffffffffffffffffffffffffffffffff1673ffffffffffffffffffffffffffffffffffffffff16815260200190815260200160002060008373ffffffffffffffffffffffffffffffffffffffff1673ffffffffffffffffffffffffffffffffffffffff16815260200190815260200160002060009054906101000a900460ff16905092915050565b61160a6117d6565b73ffffffffffffffffffffffffffffffffffffffff16611628610e1d565b73ffffffffffffffffffffffffffffffffffffffff161461167e576040517f08c379a000000000000000000000000000000000000000000000000000000000815260040161167590612e4c565b60405180910390fd5b600073ffffffffffffffffffffffffffffffffffffffff168173ffffffffffffffffffffffffffffffffffffffff1614156116ee576040517f08c379a00000000000000000000000000000000000000000000000000000000081526004016116e590612ccc565b60405180910390fd5b6116f781611bdf565b50565b60095481565b60007f01ffc9a7000000000000000000000000000000000000000000000000000000007bffffffffffffffffffffffffffffffffffffffffffffffffffffffff1916827bffffffffffffffffffffffffffffffffffffffffffffffffffffffff1916149050919050565b60008073ffffffffffffffffffffffffffffffffffffffff166002600084815260200190815260200160002060009054906101000a900473ffffffffffffffffffffffffffffffffffffffff1673ffffffffffffffffffffffffffffffffffffffff1614159050919050565b600033905090565b816004600083815260200190815260200160002060006101000a81548173ffffffffffffffffffffffffffffffffffffffff021916908373ffffffffffffffffffffffffffffffffffffffff160217905550808273ffffffffffffffffffffffffffffffffffffffff1661185183610c2b565b73ffffffffffffffffffffffffffffffffffffffff167f8c5be1e5ebec7d5bd14f71427d1e84f3dd0314c0f7b2291e5b200ac8c7c3b92560405160405180910390a45050565b600081600001549050919050565b60006118b08261176a565b6118ef576040517f08c379a00000000000000000000000000000000000000000000000000000000081526004016118e690612d4c565b60405180910390fd5b60006118fa83610c2b565b90508073ffffffffffffffffffffffffffffffffffffffff168473ffffffffffffffffffffffffffffffffffffffff16148061196957508373ffffffffffffffffffffffffffffffffffffffff166119518461079d565b73ffffffffffffffffffffffffffffffffffffffff16145b8061197a5750611979818561156e565b5b91505092915050565b8273ffffffffffffffffffffffffffffffffffffffff166119a382610c2b565b73ffffffffffffffffffffffffffffffffffffffff16146119f9576040517f08c379a00000000000000000000000000000000000000000000000000000000081526004016119f090612e6c565b60405180910390fd5b600073ffffffffffffffffffffffffffffffffffffffff168273ffffffffffffffffffffffffffffffffffffffff161415611a69576040517f08c379a0000000000000000000000000000000000000000000000000000000008152600401611a6090612d0c565b60405180910390fd5b611a74838383611e6e565b611a7f6000826117de565b6001600360008573ffffffffffffffffffffffffffffffffffffffff1673ffffffffffffffffffffffffffffffffffffffff1681526020019081526020016000206000828254611acf91906130b2565b925050819055506001600360008473ffffffffffffffffffffffffffffffffffffffff1673ffffffffffffffffffffffffffffffffffffffff1681526020019081526020016000206000828254611b269190612fd1565b92505081905550816002600083815260200190815260200160002060006101000a81548173ffffffffffffffffffffffffffffffffffffffff021916908373ffffffffffffffffffffffffffffffffffffffff160217905550808273ffffffffffffffffffffffffffffffffffffffff168473ffffffffffffffffffffffffffffffffffffffff167fddf252ad1be2c89b69c2b068fc378daa952ba7f163c4a11628f55a4df523b3ef60405160405180910390a4505050565b6000600760009054906101000a900473ffffffffffffffffffffffffffffffffffffffff16905081600760006101000a81548173ffffffffffffffffffffffffffffffffffffffff021916908373ffffffffffffffffffffffffffffffffffffffff1602179055508173ffffffffffffffffffffffffffffffffffffffff168173ffffffffffffffffffffffffffffffffffffffff167f8be0079c531659141344cd1fd0a4f28419497f9722a3daafe3b4186f6b6457e060405160405180910390a35050565b611cbf828260405180602001604052806000815250611e73565b5050565b6001816000016000828254019250508190555050565b611ce4848484611983565b611cf084848484611ece565b611d2f576040517f08c379a0000000000000000000000000000000000000000000000000000000008152600401611d2690612cac565b60405180910390fd5b50505050565b6060600b8054611d449061319c565b80601f0160208091040260200160405190810160405280929190818152602001828054611d709061319c565b8015611dbd5780601f10611d9257610100808354040283529160200191611dbd565b820191906000526020600020905b815481529060010190602001808311611da057829003601f168201915b5050505050905090565b6060611dd28261176a565b611e11576040517f08c379a0000000000000000000000000000000000000000000000000000000008152600401611e0890612e8c565b60405180910390fd5b6000611e1b611d35565b90506000815111611e3b5760405180602001604052806000815250611e66565b80611e4584612065565b604051602001611e56929190612b9b565b6040516020818303038152906040525b915050919050565b505050565b611e7d8383612212565b611e8a6000848484611ece565b611ec9576040517f08c379a0000000000000000000000000000000000000000000000000000000008152600401611ec090612cac565b60405180910390fd5b505050565b6000611eef8473ffffffffffffffffffffffffffffffffffffffff166123e0565b15612058578373ffffffffffffffffffffffffffffffffffffffff1663150b7a02611f186117d6565b8786866040518563ffffffff1660e01b8152600401611f3a9493929190612bda565b602060405180830381600087803b158015611f5457600080fd5b505af1925050508015611f8557506040513d601f19601f82011682018060405250810190611f82919061279f565b60015b612008573d8060008114611fb5576040519150601f19603f3d011682016040523d82523d6000602084013e611fba565b606091505b50600081511415612000576040517f08c379a0000000000000000000000000000000000000000000000000000000008152600401611ff790612cac565b60405180910390fd5b805181602001fd5b63150b7a0260e01b7bffffffffffffffffffffffffffffffffffffffffffffffffffffffff1916817bffffffffffffffffffffffffffffffffffffffffffffffffffffffff19161491505061205d565b600190505b949350505050565b606060008214156120ad576040518060400160405280600181526020017f3000000000000000000000000000000000000000000000000000000000000000815250905061220d565b600082905060005b600082146120df5780806120c8906131ff565b915050600a826120d89190613027565b91506120b5565b60008167ffffffffffffffff811115612121577f4e487b7100000000000000000000000000000000000000000000000000000000600052604160045260246000fd5b6040519080825280601f01601f1916602001820160405280156121535781602001600182028036833780820191505090505b5090505b600085146122065760018261216c91906130b2565b9150600a8561217b9190613248565b60306121879190612fd1565b60f81b8183815181106121c3577f4e487b7100000000000000000000000000000000000000000000000000000000600052603260045260246000fd5b60200101907effffffffffffffffffffffffffffffffffffffffffffffffffffffffffffff1916908160001a905350600a856121ff9190613027565b9450612157565b8093505050505b919050565b600073ffffffffffffffffffffffffffffffffffffffff168273ffffffffffffffffffffffffffffffffffffffff161415612282576040517f08c379a000000000000000000000000000000000000000000000000000000000815260040161227990612dec565b60405180910390fd5b61228b8161176a565b156122cb576040517f08c379a00000000000000000000000000000000000000000000000000000000081526004016122c290612cec565b60405180910390fd5b6122d760008383611e6e565b6001600360008473ffffffffffffffffffffffffffffffffffffffff1673ffffffffffffffffffffffffffffffffffffffff16815260200190815260200160002060008282546123279190612fd1565b92505081905550816002600083815260200190815260200160002060006101000a81548173ffffffffffffffffffffffffffffffffffffffff021916908373ffffffffffffffffffffffffffffffffffffffff160217905550808273ffffffffffffffffffffffffffffffffffffffff16600073ffffffffffffffffffffffffffffffffffffffff167fddf252ad1be2c89b69c2b068fc378daa952ba7f163c4a11628f55a4df523b3ef60405160405180910390a45050565b600080823b905060008111915050919050565b8280546123ff9061319c565b90600052602060002090601f0160209004810192826124215760008555612468565b82601f1061243a57805160ff1916838001178555612468565b82800160010185558215612468579182015b8281111561246757825182559160200191906001019061244c565b5b5090506124759190612479565b5090565b5b8082111561249257600081600090555060010161247a565b5090565b60006124a96124a484612f2c565b612f07565b9050828152602081018484840111156124c157600080fd5b6124cc84828561315a565b509392505050565b60006124e76124e284612f5d565b612f07565b9050828152602081018484840111156124ff57600080fd5b61250a84828561315a565b509392505050565b6000813590506125218161383f565b92915050565b60008135905061253681613856565b92915050565b60008135905061254b8161386d565b92915050565b6000815190506125608161386d565b92915050565b600082601f83011261257757600080fd5b8135612587848260208601612496565b91505092915050565b600082601f8301126125a157600080fd5b81356125b18482602086016124d4565b91505092915050565b6000813590506125c981613884565b92915050565b6000602082840312156125e157600080fd5b60006125ef84828501612512565b91505092915050565b6000806040838503121561260b57600080fd5b600061261985828601612512565b925050602061262a85828601612512565b9150509250929050565b60008060006060848603121561264957600080fd5b600061265786828701612512565b935050602061266886828701612512565b9250506040612679868287016125ba565b9150509250925092565b6000806000806080858703121561269957600080fd5b60006126a787828801612512565b94505060206126b887828801612512565b93505060406126c9878288016125ba565b925050606085013567ffffffffffffffff8111156126e657600080fd5b6126f287828801612566565b91505092959194509250565b6000806040838503121561271157600080fd5b600061271f85828601612512565b925050602061273085828601612527565b9150509250929050565b6000806040838503121561274d57600080fd5b600061275b85828601612512565b925050602061276c858286016125ba565b9150509250929050565b60006020828403121561278857600080fd5b60006127968482850161253c565b91505092915050565b6000602082840312156127b157600080fd5b60006127bf84828501612551565b91505092915050565b6000602082840312156127da57600080fd5b600082013567ffffffffffffffff8111156127f457600080fd5b61280084828501612590565b91505092915050565b60006020828403121561281b57600080fd5b6000612829848285016125ba565b91505092915050565b61283b816130e6565b82525050565b61284a816130f8565b82525050565b600061285b82612f8e565b6128658185612fa4565b9350612875818560208601613169565b61287e81613335565b840191505092915050565b600061289482612f99565b61289e8185612fb5565b93506128ae818560208601613169565b6128b781613335565b840191505092915050565b60006128cd82612f99565b6128d78185612fc6565b93506128e7818560208601613169565b80840191505092915050565b6000612900601183612fb5565b915061290b82613346565b602082019050919050565b6000612923603283612fb5565b915061292e8261336f565b604082019050919050565b6000612946602683612fb5565b9150612951826133be565b604082019050919050565b6000612969601c83612fb5565b91506129748261340d565b602082019050919050565b600061298c602483612fb5565b915061299782613436565b604082019050919050565b60006129af601983612fb5565b91506129ba82613485565b602082019050919050565b60006129d2602c83612fb5565b91506129dd826134ae565b604082019050919050565b60006129f5603883612fb5565b9150612a00826134fd565b604082019050919050565b6000612a18602a83612fb5565b9150612a238261354c565b604082019050919050565b6000612a3b602983612fb5565b9150612a468261359b565b604082019050919050565b6000612a5e601983612fb5565b9150612a69826135ea565b602082019050919050565b6000612a81602083612fb5565b9150612a8c82613613565b602082019050919050565b6000612aa4603183612fb5565b9150612aaf8261363c565b604082019050919050565b6000612ac7602c83612fb5565b9150612ad28261368b565b604082019050919050565b6000612aea602083612fb5565b9150612af5826136da565b602082019050919050565b6000612b0d602983612fb5565b9150612b1882613703565b604082019050919050565b6000612b30602f83612fb5565b9150612b3b82613752565b604082019050919050565b6000612b53602183612fb5565b9150612b5e826137a1565b604082019050919050565b6000612b76603183612fb5565b9150612b81826137f0565b604082019050919050565b612b9581613150565b82525050565b6000612ba782856128c2565b9150612bb382846128c2565b91508190509392505050565b6000602082019050612bd46000830184612832565b92915050565b6000608082019050612bef6000830187612832565b612bfc6020830186612832565b612c096040830185612b8c565b8181036060830152612c1b8184612850565b905095945050505050565b6000604082019050612c3b6000830185612832565b612c486020830184612b8c565b9392505050565b6000602082019050612c646000830184612841565b92915050565b60006020820190508181036000830152612c848184612889565b905092915050565b60006020820190508181036000830152612ca5816128f3565b9050919050565b60006020820190508181036000830152612cc581612916565b9050919050565b60006020820190508181036000830152612ce581612939565b9050919050565b60006020820190508181036000830152612d058161295c565b9050919050565b60006020820190508181036000830152612d258161297f565b9050919050565b60006020820190508181036000830152612d45816129a2565b9050919050565b60006020820190508181036000830152612d65816129c5565b9050919050565b60006020820190508181036000830152612d85816129e8565b9050919050565b60006020820190508181036000830152612da581612a0b565b9050919050565b60006020820190508181036000830152612dc581612a2e565b9050919050565b60006020820190508181036000830152612de581612a51565b9050919050565b60006020820190508181036000830152612e0581612a74565b9050919050565b60006020820190508181036000830152612e2581612a97565b9050919050565b60006020820190508181036000830152612e4581612aba565b9050919050565b60006020820190508181036000830152612e6581612add565b9050919050565b60006020820190508181036000830152612e8581612b00565b9050919050565b60006020820190508181036000830152612ea581612b23565b9050919050565b60006020820190508181036000830152612ec581612b46565b9050919050565b60006020820190508181036000830152612ee581612b69565b9050919050565b6000602082019050612f016000830184612b8c565b92915050565b6000612f11612f22565b9050612f1d82826131ce565b919050565b6000604051905090565b600067ffffffffffffffff821115612f4757612f46613306565b5b612f5082613335565b9050602081019050919050565b600067ffffffffffffffff821115612f7857612f77613306565b5b612f8182613335565b9050602081019050919050565b600081519050919050565b600081519050919050565b600082825260208201905092915050565b600082825260208201905092915050565b600081905092915050565b6000612fdc82613150565b9150612fe783613150565b9250827fffffffffffffffffffffffffffffffffffffffffffffffffffffffffffffffff0382111561301c5761301b613279565b5b828201905092915050565b600061303282613150565b915061303d83613150565b92508261304d5761304c6132a8565b5b828204905092915050565b600061306382613150565b915061306e83613150565b9250817fffffffffffffffffffffffffffffffffffffffffffffffffffffffffffffffff04831182151516156130a7576130a6613279565b5b828202905092915050565b60006130bd82613150565b91506130c883613150565b9250828210156130db576130da613279565b5b828203905092915050565b60006130f182613130565b9050919050565b60008115159050919050565b60007fffffffff0000000000000000000000000000000000000000000000000000000082169050919050565b600073ffffffffffffffffffffffffffffffffffffffff82169050919050565b6000819050919050565b82818337600083830152505050565b60005b8381101561318757808201518184015260208101905061316c565b83811115613196576000848401525b50505050565b600060028204905060018216806131b457607f821691505b602082108114156131c8576131c76132d7565b5b50919050565b6131d782613335565b810181811067ffffffffffffffff821117156131f6576131f5613306565b5b80604052505050565b600061320a82613150565b91507fffffffffffffffffffffffffffffffffffffffffffffffffffffffffffffffff82141561323d5761323c613279565b5b600182019050919050565b600061325382613150565b915061325e83613150565b92508261326e5761326d6132a8565b5b828206905092915050565b7f4e487b7100000000000000000000000000000000000000000000000000000000600052601160045260246000fd5b7f4e487b7100000000000000000000000000000000000000000000000000000000600052601260045260246000fd5b7f4e487b7100000000000000000000000000000000000000000000000000000000600052602260045260246000fd5b7f4e487b7100000000000000000000000000000000000000000000000000000000600052604160045260246000fd5b6000601f19601f8301169050919050565b7f4d617820737570706c79206f66204e4654000000000000000000000000000000600082015250565b7f4552433732313a207472616e7366657220746f206e6f6e20455243373231526560008201527f63656976657220696d706c656d656e7465720000000000000000000000000000602082015250565b7f4f776e61626c653a206e6577206f776e657220697320746865207a65726f206160008201527f6464726573730000000000000000000000000000000000000000000000000000602082015250565b7f4552433732313a20746f6b656e20616c7265616479206d696e74656400000000600082015250565b7f4552433732313a207472616e7366657220746f20746865207a65726f2061646460008201527f7265737300000000000000000000000000000000000000000000000000000000602082015250565b7f4552433732313a20617070726f766520746f2063616c6c657200000000000000600082015250565b7f4552433732313a206f70657261746f7220717565727920666f72206e6f6e657860008201527f697374656e7420746f6b656e0000000000000000000000000000000000000000602082015250565b7f4552433732313a20617070726f76652063616c6c6572206973206e6f74206f7760008201527f6e6572206e6f7220617070726f76656420666f7220616c6c0000000000000000602082015250565b7f4552433732313a2062616c616e636520717565727920666f7220746865207a6560008201527f726f206164647265737300000000000000000000000000000000000000000000602082015250565b7f4552433732313a206f776e657220717565727920666f72206e6f6e657869737460008201527f656e7420746f6b656e0000000000000000000000000000000000000000000000602082015250565b7f56616c75652073656e74206973206e6f7420636f727265637400000000000000600082015250565b7f4552433732313a206d696e7420746f20746865207a65726f2061646472657373600082015250565b7f45524337323155524953746f726167653a2055524920717565727920666f722060008201527f6e6f6e6578697374656e7420746f6b656e000000000000000000000000000000602082015250565b7f4552433732313a20617070726f76656420717565727920666f72206e6f6e657860008201527f697374656e7420746f6b656e0000000000000000000000000000000000000000602082015250565b7f4f776e61626c653a2063616c6c6572206973206e6f7420746865206f776e6572600082015250565b7f4552433732313a207472616e73666572206f6620746f6b656e2074686174206960008201527f73206e6f74206f776e0000000000000000000000000000000000000000000000602082015250565b7f4552433732314d657461646174613a2055524920717565727920666f72206e6f60008201527f6e6578697374656e7420746f6b656e0000000000000000000000000000000000602082015250565b7f4552433732313a20617070726f76616c20746f2063757272656e74206f776e6560008201527f7200000000000000000000000000000000000000000000000000000000000000602082015250565b7f4552433732313a207472616e736665722063616c6c6572206973206e6f74206f60008201527f776e6572206e6f7220617070726f766564000000000000000000000000000000602082015250565b613848816130e6565b811461385357600080fd5b50565b61385f816130f8565b811461386a57600080fd5b50565b61387681613104565b811461388157600080fd5b50565b61388d81613150565b811461389857600080fd5b5056fea264697066735822122036caf00db4cb75a238164c2554b34a3a4e894ce424976518b44ee16d1f204b2b64736f6c6343000804003368747470733a2f2f616963727970746f70756e6b732e626169636f6d2e636f6d2f6170692f",
  "linkReferences": {},
  "deployedLinkReferences": {}
}