{
  "_format": "hh-sol-artifact-1",
  "contractName": "PunksNFT",
  "sourceName": "contracts/PunksNFT.sol",
  "abi": [
    {
      "inputs": [],
      "stateMutability": "nonpayable",
      "type": "constructor"
    },
    {
      "anonymous": false,
      "inputs": [
        {
          "indexed": true,
          "internalType": "address",
          "name": "owner",
          "type": "address"
        },
        {
          "indexed": true,
          "internalType": "address",
          "name": "approved",
          "type": "address"
        },
        {
          "indexed": true,
          "internalType": "uint256",
          "name": "tokenId",
          "type": "uint256"
        }
      ],
      "name": "Approval",
      "type": "event"
    },
    {
      "anonymous": false,
      "inputs": [
        {
          "indexed": true,
          "internalType": "address",
          "name": "owner",
          "type": "address"
        },
        {
          "indexed": true,
          "internalType": "address",
          "name": "operator",
          "type": "address"
        },
        {
          "indexed": false,
          "internalType": "bool",
          "name": "approved",
          "type": "bool"
        }
      ],
      "name": "ApprovalForAll",
      "type": "event"
    },
    {
      "anonymous": false,
      "inputs": [
        {
          "indexed": false,
          "internalType": "address",
          "name": "sender",
          "type": "address"
        },
        {
          "indexed": false,
          "internalType": "uint256",
          "name": "tokenId",
          "type": "uint256"
        }
      ],
      "name": "NewNFTMinted",
      "type": "event"
    },
    {
      "anonymous": false,
      "inputs": [
        {
          "indexed": true,
          "internalType": "address",
          "name": "previousOwner",
          "type": "address"
        },
        {
          "indexed": true,
          "internalType": "address",
          "name": "newOwner",
          "type": "address"
        }
      ],
      "name": "OwnershipTransferred",
      "type": "event"
    },
    {
      "anonymous": false,
      "inputs": [
        {
          "indexed": true,
          "internalType": "address",
          "name": "from",
          "type": "address"
        },
        {
          "indexed": true,
          "internalType": "address",
          "name": "to",
          "type": "address"
        },
        {
          "indexed": true,
          "internalType": "uint256",
          "name": "tokenId",
          "type": "uint256"
        }
      ],
      "name": "Transfer",
      "type": "event"
    },
    {
      "inputs": [],
      "name": "BASE_URI",
      "outputs": [
        {
          "internalType": "string",
          "name": "",
          "type": "string"
        }
      ],
      "stateMutability": "view",
      "type": "function"
    },
    {
      "inputs": [],
      "name": "CURRENT_PRICE",
      "outputs": [
        {
          "internalType": "uint256",
          "name": "",
          "type": "uint256"
        }
      ],
      "stateMutability": "view",
      "type": "function"
    },
    {
      "inputs": [],
      "name": "DEV",
      "outputs": [
        {
          "internalType": "address",
          "name": "",
          "type": "address"
        }
      ],
      "stateMutability": "view",
      "type": "function"
    },
    {
      "inputs": [],
      "name": "MAX_TOKENS",
      "outputs": [
        {
          "internalType": "uint256",
          "name": "",
          "type": "uint256"
        }
      ],
      "stateMutability": "view",
      "type": "function"
    },
    {
      "inputs": [
        {
          "internalType": "address",
          "name": "to",
          "type": "address"
        },
        {
          "internalType": "uint256",
          "name": "tokenId",
          "type": "uint256"
        }
      ],
      "name": "approve",
      "outputs": [],
      "stateMutability": "nonpayable",
      "type": "function"
    },
    {
      "inputs": [
        {
          "internalType": "address",
          "name": "owner",
          "type": "address"
        }
      ],
      "name": "balanceOf",
      "outputs": [
        {
          "internalType": "uint256",
          "name": "",
          "type": "uint256"
        }
      ],
      "stateMutability": "view",
      "type": "function"
    },
    {
      "inputs": [],
      "name": "contractURI",
      "outputs": [
        {
          "internalType": "string",
          "name": "",
          "type": "string"
        }
      ],
      "stateMutability": "view",
      "type": "function"
    },
    {
      "inputs": [
        {
          "internalType": "uint256",
          "name": "tokenId",
          "type": "uint256"
        }
      ],
      "name": "getApproved",
      "outputs": [
        {
          "internalType": "address",
          "name": "",
          "type": "address"
        }
      ],
      "stateMutability": "view",
      "type": "function"
    },
    {
      "inputs": [
        {
          "internalType": "address",
          "name": "owner",
          "type": "address"
        },
        {
          "internalType": "address",
          "name": "operator",
          "type": "address"
        }
      ],
      "name": "isApprovedForAll",
      "outputs": [
        {
          "internalType": "bool",
          "name": "",
          "type": "bool"
        }
      ],
      "stateMutability": "view",
      "type": "function"
    },
    {
      "inputs": [],
      "name": "makeNFT",
      "outputs": [],
      "stateMutability": "payable",
      "type": "function"
    },
    {
      "inputs": [],
      "name": "name",
      "outputs": [
        {
          "internalType": "string",
          "name": "",
          "type": "string"
        }
      ],
      "stateMutability": "view",
      "type": "function"
    },
    {
      "inputs": [],
      "name": "owner",
      "outputs": [
        {
          "internalType": "address",
          "name": "",
          "type": "address"
        }
      ],
      "stateMutability": "view",
      "type": "function"
    },
    {
      "inputs": [
        {
          "internalType": "uint256",
          "name": "tokenId",
          "type": "uint256"
        }
      ],
      "name": "ownerOf",
      "outputs": [
        {
          "internalType": "address",
          "name": "",
          "type": "address"
        }
      ],
      "stateMutability": "view",
      "type": "function"
    },
    {
      "inputs": [],
      "name": "renounceOwnership",
      "outputs": [],
      "stateMutability": "nonpayable",
      "type": "function"
    },
    {
      "inputs": [
        {
          "internalType": "uint256",
          "name": "count",
          "type": "uint256"
        }
      ],
      "name": "reserveNFT",
      "outputs": [],
      "stateMutability": "nonpayable",
      "type": "function"
    },
    {
      "inputs": [
        {
          "internalType": "address",
          "name": "from",
          "type": "address"
        },
        {
          "internalType": "address",
          "name": "to",
          "type": "address"
        },
        {
          "internalType": "uint256",
          "name": "tokenId",
          "type": "uint256"
        }
      ],
      "name": "safeTransferFrom",
      "outputs": [],
      "stateMutability": "nonpayable",
      "type": "function"
    },
    {
      "inputs": [
        {
          "internalType": "address",
          "name": "from",
          "type": "address"
        },
        {
          "internalType": "address",
          "name": "to",
          "type": "address"
        },
        {
          "internalType": "uint256",
          "name": "tokenId",
          "type": "uint256"
        },
        {
          "internalType": "bytes",
          "name": "_data",
          "type": "bytes"
        }
      ],
      "name": "safeTransferFrom",
      "outputs": [],
      "stateMutability": "nonpayable",
      "type": "function"
    },
    {
      "inputs": [
        {
          "internalType": "address",
          "name": "operator",
          "type": "address"
        },
        {
          "internalType": "bool",
          "name": "approved",
          "type": "bool"
        }
      ],
      "name": "setApprovalForAll",
      "outputs": [],
      "stateMutability": "nonpayable",
      "type": "function"
    },
    {
      "inputs": [
        {
          "internalType": "string",
          "name": "BaseURI",
          "type": "string"
        }
      ],
      "name": "setBaseURI",
      "outputs": [],
      "stateMutability": "nonpayable",
      "type": "function"
    },
    {
      "inputs": [
        {
          "internalType": "uint256",
          "name": "currentPrice",
          "type": "uint256"
        }
      ],
      "name": "setCurrentPrice",
      "outputs": [],
      "stateMutability": "nonpayable",
      "type": "function"
    },
    {
      "inputs": [
        {
          "internalType": "bytes4",
          "name": "interfaceId",
          "type": "bytes4"
        }
      ],
      "name": "supportsInterface",
      "outputs": [
        {
          "internalType": "bool",
          "name": "",
          "type": "bool"
        }
      ],
      "stateMutability": "view",
      "type": "function"
    },
    {
      "inputs": [],
      "name": "symbol",
      "outputs": [
        {
          "internalType": "string",
          "name": "",
          "type": "string"
        }
      ],
      "stateMutability": "view",
      "type": "function"
    },
    {
      "inputs": [
        {
          "internalType": "uint256",
          "name": "tokenId",
          "type": "uint256"
        }
      ],
      "name": "tokenURI",
      "outputs": [
        {
          "internalType": "string",
          "name": "",
          "type": "string"
        }
      ],
      "stateMutability": "view",
      "type": "function"
    },
    {
      "inputs": [],
      "name": "totalSupply",
      "outputs": [
        {
          "internalType": "uint256",
          "name": "",
          "type": "uint256"
        }
      ],
      "stateMutability": "view",
      "type": "function"
    },
    {
      "inputs": [
        {
          "internalType": "address",
          "name": "from",
          "type": "address"
        },
        {
          "internalType": "address",
          "name": "to",
          "type": "address"
        },
        {
          "internalType": "uint256",
          "name": "tokenId",
          "type": "uint256"
        }
      ],
      "name": "transferFrom",
      "outputs": [],
      "stateMutability": "nonpayable",
      "type": "function"
    },
    {
      "inputs": [
        {
          "internalType": "address",
          "name": "newOwner",
          "type": "address"
        }
      ],
      "name": "transferOwnership",
      "outputs": [],
      "stateMutability": "nonpayable",
      "type": "function"
    },
    {
      "inputs": [],
      "name": "withdraw",
      "outputs": [],
      "stateMutability": "nonpayable",
      "type": "function"
    }
  ],
  "bytecode": "0x6080604052610fa060095566354a6ba7a18000600a556040518060400160405280601e81526020017f68747470733a2f2f70756e6b706f727472616974732e636f6d2f6170692f0000815250600b90805190602001906200006292919062000205565b503480156200007057600080fd5b506040518060400160405280600e81526020017f416943727970746f50756e6b73350000000000000000000000000000000000008152506040518060400160405280600681526020017f50554e4b533500000000000000000000000000000000000000000000000000008152508160009080519060200190620000f592919062000205565b5080600190805190602001906200010e92919062000205565b50505062000131620001256200013760201b60201c565b6200013f60201b60201c565b6200031a565b600033905090565b6000600760009054906101000a900473ffffffffffffffffffffffffffffffffffffffff16905081600760006101000a81548173ffffffffffffffffffffffffffffffffffffffff021916908373ffffffffffffffffffffffffffffffffffffffff1602179055508173ffffffffffffffffffffffffffffffffffffffff168173ffffffffffffffffffffffffffffffffffffffff167f8be0079c531659141344cd1fd0a4f28419497f9722a3daafe3b4186f6b6457e060405160405180910390a35050565b8280546200021390620002b5565b90600052602060002090601f01602090048101928262000237576000855562000283565b82601f106200025257805160ff191683800117855562000283565b8280016001018555821562000283579182015b828111156200028257825182559160200191906001019062000265565b5b50905062000292919062000296565b5090565b5b80821115620002b157600081600090555060010162000297565b5090565b60006002820490506001821680620002ce57607f821691505b60208210811415620002e557620002e4620002eb565b5b50919050565b7f4e487b7100000000000000000000000000000000000000000000000000000000600052602260045260246000fd5b6138e3806200032a6000396000f3fe60806040526004361061019c5760003560e01c806370a08231116100ec578063c1eb5ddd1161008a578063e8a3d48511610064578063e8a3d4851461057f578063e985e9c5146105aa578063f2fde38b146105e7578063f47c84c5146106105761019c565b8063c1eb5ddd146104ec578063c87b56dd14610517578063dbddb26a146105545761019c565b806395d89b41116100c657806395d89b4114610465578063a22cb46514610490578063b036b4bd146104b9578063b88d4fde146104c35761019c565b806370a08231146103e6578063715018a6146104235780638da5cb5b1461043a5761019c565b806323b872dd1161015957806342842e0e1161013357806342842e0e1461032c5780634b369a611461035557806355f804b3146103805780636352211e146103a95761019c565b806323b872dd146102c3578063397be3fd146102ec5780633ccfd60b146103155761019c565b806301ffc9a7146101a157806306fdde03146101de578063081812fc14610209578063095ea7b31461024657806318160ddd1461026f57806318b200711461029a575b600080fd5b3480156101ad57600080fd5b506101c860048036038101906101c39190612788565b61063b565b6040516101d59190612c61565b60405180910390f35b3480156101ea57600080fd5b506101f361071d565b6040516102009190612c7c565b60405180910390f35b34801561021557600080fd5b50610230600480360381019061022b919061281b565b6107af565b60405161023d9190612bd1565b60405180910390f35b34801561025257600080fd5b5061026d6004803603810190610268919061274c565b610834565b005b34801561027b57600080fd5b5061028461094c565b6040516102919190612efe565b60405180910390f35b3480156102a657600080fd5b506102c160048036038101906102bc919061281b565b61095d565b005b3480156102cf57600080fd5b506102ea60048036038101906102e59190612646565b6109e3565b005b3480156102f857600080fd5b50610313600480360381019061030e919061281b565b610a43565b005b34801561032157600080fd5b5061032a610b84565b005b34801561033857600080fd5b50610353600480360381019061034e9190612646565b610cc2565b005b34801561036157600080fd5b5061036a610ce2565b6040516103779190612efe565b60405180910390f35b34801561038c57600080fd5b506103a760048036038101906103a291906127da565b610ce8565b005b3480156103b557600080fd5b506103d060048036038101906103cb919061281b565b610d7e565b6040516103dd9190612bd1565b60405180910390f35b3480156103f257600080fd5b5061040d600480360381019061040891906125e1565b610e30565b60405161041a9190612efe565b60405180910390f35b34801561042f57600080fd5b50610438610ee8565b005b34801561044657600080fd5b5061044f610f70565b60405161045c9190612bd1565b60405180910390f35b34801561047157600080fd5b5061047a610f9a565b6040516104879190612c7c565b60405180910390f35b34801561049c57600080fd5b506104b760048036038101906104b29190612710565b61102c565b005b6104c16111ad565b005b3480156104cf57600080fd5b506104ea60048036038101906104e59190612695565b611294565b005b3480156104f857600080fd5b506105016112f6565b60405161050e9190612bd1565b60405180910390f35b34801561052357600080fd5b5061053e6004803603810190610539919061281b565b61130e565b60405161054b9190612c7c565b60405180910390f35b34801561056057600080fd5b50610569611460565b6040516105769190612c7c565b60405180910390f35b34801561058b57600080fd5b506105946114ee565b6040516105a19190612c7c565b60405180910390f35b3480156105b657600080fd5b506105d160048036038101906105cc919061260a565b611580565b6040516105de9190612c61565b60405180910390f35b3480156105f357600080fd5b5061060e600480360381019061060991906125e1565b611614565b005b34801561061c57600080fd5b5061062561170c565b6040516106329190612efe565b60405180910390f35b60007f80ac58cd000000000000000000000000000000000000000000000000000000007bffffffffffffffffffffffffffffffffffffffffffffffffffffffff1916827bffffffffffffffffffffffffffffffffffffffffffffffffffffffff1916148061070657507f5b5e139f000000000000000000000000000000000000000000000000000000007bffffffffffffffffffffffffffffffffffffffffffffffffffffffff1916827bffffffffffffffffffffffffffffffffffffffffffffffffffffffff1916145b80610716575061071582611712565b5b9050919050565b60606000805461072c906131ae565b80601f0160208091040260200160405190810160405280929190818152602001828054610758906131ae565b80156107a55780601f1061077a576101008083540402835291602001916107a5565b820191906000526020600020905b81548152906001019060200180831161078857829003601f168201915b5050505050905090565b60006107ba8261177c565b6107f9576040517f08c379a00000000000000000000000000000000000000000000000000000000081526004016107f090612e3e565b60405180910390fd5b6004600083815260200190815260200160002060009054906101000a900473ffffffffffffffffffffffffffffffffffffffff169050919050565b600061083f82610d7e565b90508073ffffffffffffffffffffffffffffffffffffffff168373ffffffffffffffffffffffffffffffffffffffff1614156108b0576040517f08c379a00000000000000000000000000000000000000000000000000000000081526004016108a790612ebe565b60405180910390fd5b8073ffffffffffffffffffffffffffffffffffffffff166108cf6117e8565b73ffffffffffffffffffffffffffffffffffffffff1614806108fe57506108fd816108f86117e8565b611580565b5b61093d576040517f08c379a000000000000000000000000000000000000000000000000000000000815260040161093490612d7e565b60405180910390fd5b61094783836117f0565b505050565b600061095860086118a9565b905090565b6109656117e8565b73ffffffffffffffffffffffffffffffffffffffff16610983610f70565b73ffffffffffffffffffffffffffffffffffffffff16146109d9576040517f08c379a00000000000000000000000000000000000000000000000000000000081526004016109d090612e5e565b60405180910390fd5b80600a8190555050565b6109f46109ee6117e8565b826118b7565b610a33576040517f08c379a0000000000000000000000000000000000000000000000000000000008152600401610a2a90612ede565b60405180910390fd5b610a3e838383611995565b505050565b610a4b6117e8565b73ffffffffffffffffffffffffffffffffffffffff16610a69610f70565b73ffffffffffffffffffffffffffffffffffffffff1614610abf576040517f08c379a0000000000000000000000000000000000000000000000000000000008152600401610ab690612e5e565b60405180910390fd5b6000600190505b818111610b80576000610ad960086118a9565b90506009548110610b1f576040517f08c379a0000000000000000000000000000000000000000000000000000000008152600401610b1690612c9e565b60405180910390fd5b610b293382611bf1565b610b336008611c0f565b7f1c05098ed1ff38e6238d2b1b04b2c7977d4c94ce651bda6473f9dba8dbf01da03382604051610b64929190612c38565b60405180910390a1508080610b7890613211565b915050610ac6565b5050565b610b8c6117e8565b73ffffffffffffffffffffffffffffffffffffffff16610baa610f70565b73ffffffffffffffffffffffffffffffffffffffff1614610c00576040517f08c379a0000000000000000000000000000000000000000000000000000000008152600401610bf790612e5e565b60405180910390fd5b60004790507399872620911cbc41b66bc5d4123e21f09abc0c4473ffffffffffffffffffffffffffffffffffffffff166108fc6064600a84610c42919061306a565b610c4c9190613039565b9081150290604051600060405180830381858888f19350505050158015610c77573d6000803e3d6000fd5b503373ffffffffffffffffffffffffffffffffffffffff166108fc479081150290604051600060405180830381858888f19350505050158015610cbe573d6000803e3d6000fd5b5050565b610cdd83838360405180602001604052806000815250611294565b505050565b600a5481565b610cf06117e8565b73ffffffffffffffffffffffffffffffffffffffff16610d0e610f70565b73ffffffffffffffffffffffffffffffffffffffff1614610d64576040517f08c379a0000000000000000000000000000000000000000000000000000000008152600401610d5b90612e5e565b60405180910390fd5b80600b9080519060200190610d7a929190612405565b5050565b6000806002600084815260200190815260200160002060009054906101000a900473ffffffffffffffffffffffffffffffffffffffff169050600073ffffffffffffffffffffffffffffffffffffffff168173ffffffffffffffffffffffffffffffffffffffff161415610e27576040517f08c379a0000000000000000000000000000000000000000000000000000000008152600401610e1e90612dbe565b60405180910390fd5b80915050919050565b60008073ffffffffffffffffffffffffffffffffffffffff168273ffffffffffffffffffffffffffffffffffffffff161415610ea1576040517f08c379a0000000000000000000000000000000000000000000000000000000008152600401610e9890612d9e565b60405180910390fd5b600360008373ffffffffffffffffffffffffffffffffffffffff1673ffffffffffffffffffffffffffffffffffffffff168152602001908152602001600020549050919050565b610ef06117e8565b73ffffffffffffffffffffffffffffffffffffffff16610f0e610f70565b73ffffffffffffffffffffffffffffffffffffffff1614610f64576040517f08c379a0000000000000000000000000000000000000000000000000000000008152600401610f5b90612e5e565b60405180910390fd5b610f6e6000611c25565b565b6000600760009054906101000a900473ffffffffffffffffffffffffffffffffffffffff16905090565b606060018054610fa9906131ae565b80601f0160208091040260200160405190810160405280929190818152602001828054610fd5906131ae565b80156110225780601f10610ff757610100808354040283529160200191611022565b820191906000526020600020905b81548152906001019060200180831161100557829003601f168201915b5050505050905090565b6110346117e8565b73ffffffffffffffffffffffffffffffffffffffff168273ffffffffffffffffffffffffffffffffffffffff1614156110a2576040517f08c379a000000000000000000000000000000000000000000000000000000000815260040161109990612d3e565b60405180910390fd5b80600560006110af6117e8565b73ffffffffffffffffffffffffffffffffffffffff1673ffffffffffffffffffffffffffffffffffffffff16815260200190815260200160002060008473ffffffffffffffffffffffffffffffffffffffff1673ffffffffffffffffffffffffffffffffffffffff16815260200190815260200160002060006101000a81548160ff0219169083151502179055508173ffffffffffffffffffffffffffffffffffffffff1661115c6117e8565b73ffffffffffffffffffffffffffffffffffffffff167f17307eab39ab6107e8899845ad3d59bd9653f200f220920489ca2b5937696c31836040516111a19190612c61565b60405180910390a35050565b60006111b960086118a9565b905034600a541115611200576040517f08c379a00000000000000000000000000000000000000000000000000000000081526004016111f790612dde565b60405180910390fd5b6009548110611244576040517f08c379a000000000000000000000000000000000000000000000000000000000815260040161123b90612c9e565b60405180910390fd5b61124e3382611bf1565b6112586008611c0f565b7f1c05098ed1ff38e6238d2b1b04b2c7977d4c94ce651bda6473f9dba8dbf01da03382604051611289929190612c38565b60405180910390a150565b6112a561129f6117e8565b836118b7565b6112e4576040517f08c379a00000000000000000000000000000000000000000000000000000000081526004016112db90612ede565b60405180910390fd5b6112f084848484611ceb565b50505050565b7399872620911cbc41b66bc5d4123e21f09abc0c4481565b60606113198261177c565b611358576040517f08c379a000000000000000000000000000000000000000000000000000000000815260040161134f90612e1e565b60405180910390fd5b6000600660008481526020019081526020016000208054611378906131ae565b80601f01602080910402602001604051908101604052809291908181526020018280546113a4906131ae565b80156113f15780601f106113c6576101008083540402835291602001916113f1565b820191906000526020600020905b8154815290600101906020018083116113d457829003601f168201915b505050505090506000611402611d47565b905060008151141561141857819250505061145b565b60008251111561144d578082604051602001611435929190612bad565b6040516020818303038152906040529250505061145b565b61145684611dd9565b925050505b919050565b600b805461146d906131ae565b80601f0160208091040260200160405190810160405280929190818152602001828054611499906131ae565b80156114e65780601f106114bb576101008083540402835291602001916114e6565b820191906000526020600020905b8154815290600101906020018083116114c957829003601f168201915b505050505081565b6060600b80546114fd906131ae565b80601f0160208091040260200160405190810160405280929190818152602001828054611529906131ae565b80156115765780601f1061154b57610100808354040283529160200191611576565b820191906000526020600020905b81548152906001019060200180831161155957829003601f168201915b5050505050905090565b6000600560008473ffffffffffffffffffffffffffffffffffffffff1673ffffffffffffffffffffffffffffffffffffffff16815260200190815260200160002060008373ffffffffffffffffffffffffffffffffffffffff1673ffffffffffffffffffffffffffffffffffffffff16815260200190815260200160002060009054906101000a900460ff16905092915050565b61161c6117e8565b73ffffffffffffffffffffffffffffffffffffffff1661163a610f70565b73ffffffffffffffffffffffffffffffffffffffff1614611690576040517f08c379a000000000000000000000000000000000000000000000000000000000815260040161168790612e5e565b60405180910390fd5b600073ffffffffffffffffffffffffffffffffffffffff168173ffffffffffffffffffffffffffffffffffffffff161415611700576040517f08c379a00000000000000000000000000000000000000000000000000000000081526004016116f790612cde565b60405180910390fd5b61170981611c25565b50565b60095481565b60007f01ffc9a7000000000000000000000000000000000000000000000000000000007bffffffffffffffffffffffffffffffffffffffffffffffffffffffff1916827bffffffffffffffffffffffffffffffffffffffffffffffffffffffff1916149050919050565b60008073ffffffffffffffffffffffffffffffffffffffff166002600084815260200190815260200160002060009054906101000a900473ffffffffffffffffffffffffffffffffffffffff1673ffffffffffffffffffffffffffffffffffffffff1614159050919050565b600033905090565b816004600083815260200190815260200160002060006101000a81548173ffffffffffffffffffffffffffffffffffffffff021916908373ffffffffffffffffffffffffffffffffffffffff160217905550808273ffffffffffffffffffffffffffffffffffffffff1661186383610d7e565b73ffffffffffffffffffffffffffffffffffffffff167f8c5be1e5ebec7d5bd14f71427d1e84f3dd0314c0f7b2291e5b200ac8c7c3b92560405160405180910390a45050565b600081600001549050919050565b60006118c28261177c565b611901576040517f08c379a00000000000000000000000000000000000000000000000000000000081526004016118f890612d5e565b60405180910390fd5b600061190c83610d7e565b90508073ffffffffffffffffffffffffffffffffffffffff168473ffffffffffffffffffffffffffffffffffffffff16148061197b57508373ffffffffffffffffffffffffffffffffffffffff16611963846107af565b73ffffffffffffffffffffffffffffffffffffffff16145b8061198c575061198b8185611580565b5b91505092915050565b8273ffffffffffffffffffffffffffffffffffffffff166119b582610d7e565b73ffffffffffffffffffffffffffffffffffffffff1614611a0b576040517f08c379a0000000000000000000000000000000000000000000000000000000008152600401611a0290612e7e565b60405180910390fd5b600073ffffffffffffffffffffffffffffffffffffffff168273ffffffffffffffffffffffffffffffffffffffff161415611a7b576040517f08c379a0000000000000000000000000000000000000000000000000000000008152600401611a7290612d1e565b60405180910390fd5b611a86838383611e80565b611a916000826117f0565b6001600360008573ffffffffffffffffffffffffffffffffffffffff1673ffffffffffffffffffffffffffffffffffffffff1681526020019081526020016000206000828254611ae191906130c4565b925050819055506001600360008473ffffffffffffffffffffffffffffffffffffffff1673ffffffffffffffffffffffffffffffffffffffff1681526020019081526020016000206000828254611b389190612fe3565b92505081905550816002600083815260200190815260200160002060006101000a81548173ffffffffffffffffffffffffffffffffffffffff021916908373ffffffffffffffffffffffffffffffffffffffff160217905550808273ffffffffffffffffffffffffffffffffffffffff168473ffffffffffffffffffffffffffffffffffffffff167fddf252ad1be2c89b69c2b068fc378daa952ba7f163c4a11628f55a4df523b3ef60405160405180910390a4505050565b611c0b828260405180602001604052806000815250611e85565b5050565b6001816000016000828254019250508190555050565b6000600760009054906101000a900473ffffffffffffffffffffffffffffffffffffffff16905081600760006101000a81548173ffffffffffffffffffffffffffffffffffffffff021916908373ffffffffffffffffffffffffffffffffffffffff1602179055508173ffffffffffffffffffffffffffffffffffffffff168173ffffffffffffffffffffffffffffffffffffffff167f8be0079c531659141344cd1fd0a4f28419497f9722a3daafe3b4186f6b6457e060405160405180910390a35050565b611cf6848484611995565b611d0284848484611ee0565b611d41576040517f08c379a0000000000000000000000000000000000000000000000000000000008152600401611d3890612cbe565b60405180910390fd5b50505050565b6060600b8054611d56906131ae565b80601f0160208091040260200160405190810160405280929190818152602001828054611d82906131ae565b8015611dcf5780601f10611da457610100808354040283529160200191611dcf565b820191906000526020600020905b815481529060010190602001808311611db257829003601f168201915b5050505050905090565b6060611de48261177c565b611e23576040517f08c379a0000000000000000000000000000000000000000000000000000000008152600401611e1a90612e9e565b60405180910390fd5b6000611e2d611d47565b90506000815111611e4d5760405180602001604052806000815250611e78565b80611e5784612077565b604051602001611e68929190612bad565b6040516020818303038152906040525b915050919050565b505050565b611e8f8383612224565b611e9c6000848484611ee0565b611edb576040517f08c379a0000000000000000000000000000000000000000000000000000000008152600401611ed290612cbe565b60405180910390fd5b505050565b6000611f018473ffffffffffffffffffffffffffffffffffffffff166123f2565b1561206a578373ffffffffffffffffffffffffffffffffffffffff1663150b7a02611f2a6117e8565b8786866040518563ffffffff1660e01b8152600401611f4c9493929190612bec565b602060405180830381600087803b158015611f6657600080fd5b505af1925050508015611f9757506040513d601f19601f82011682018060405250810190611f9491906127b1565b60015b61201a573d8060008114611fc7576040519150601f19603f3d011682016040523d82523d6000602084013e611fcc565b606091505b50600081511415612012576040517f08c379a000000000000000000000000000000000000000000000000000000000815260040161200990612cbe565b60405180910390fd5b805181602001fd5b63150b7a0260e01b7bffffffffffffffffffffffffffffffffffffffffffffffffffffffff1916817bffffffffffffffffffffffffffffffffffffffffffffffffffffffff19161491505061206f565b600190505b949350505050565b606060008214156120bf576040518060400160405280600181526020017f3000000000000000000000000000000000000000000000000000000000000000815250905061221f565b600082905060005b600082146120f15780806120da90613211565b915050600a826120ea9190613039565b91506120c7565b60008167ffffffffffffffff811115612133577f4e487b7100000000000000000000000000000000000000000000000000000000600052604160045260246000fd5b6040519080825280601f01601f1916602001820160405280156121655781602001600182028036833780820191505090505b5090505b600085146122185760018261217e91906130c4565b9150600a8561218d919061325a565b60306121999190612fe3565b60f81b8183815181106121d5577f4e487b7100000000000000000000000000000000000000000000000000000000600052603260045260246000fd5b60200101907effffffffffffffffffffffffffffffffffffffffffffffffffffffffffffff1916908160001a905350600a856122119190613039565b9450612169565b8093505050505b919050565b600073ffffffffffffffffffffffffffffffffffffffff168273ffffffffffffffffffffffffffffffffffffffff161415612294576040517f08c379a000000000000000000000000000000000000000000000000000000000815260040161228b90612dfe565b60405180910390fd5b61229d8161177c565b156122dd576040517f08c379a00000000000000000000000000000000000000000000000000000000081526004016122d490612cfe565b60405180910390fd5b6122e960008383611e80565b6001600360008473ffffffffffffffffffffffffffffffffffffffff1673ffffffffffffffffffffffffffffffffffffffff16815260200190815260200160002060008282546123399190612fe3565b92505081905550816002600083815260200190815260200160002060006101000a81548173ffffffffffffffffffffffffffffffffffffffff021916908373ffffffffffffffffffffffffffffffffffffffff160217905550808273ffffffffffffffffffffffffffffffffffffffff16600073ffffffffffffffffffffffffffffffffffffffff167fddf252ad1be2c89b69c2b068fc378daa952ba7f163c4a11628f55a4df523b3ef60405160405180910390a45050565b600080823b905060008111915050919050565b828054612411906131ae565b90600052602060002090601f016020900481019282612433576000855561247a565b82601f1061244c57805160ff191683800117855561247a565b8280016001018555821561247a579182015b8281111561247957825182559160200191906001019061245e565b5b509050612487919061248b565b5090565b5b808211156124a457600081600090555060010161248c565b5090565b60006124bb6124b684612f3e565b612f19565b9050828152602081018484840111156124d357600080fd5b6124de84828561316c565b509392505050565b60006124f96124f484612f6f565b612f19565b90508281526020810184848401111561251157600080fd5b61251c84828561316c565b509392505050565b60008135905061253381613851565b92915050565b60008135905061254881613868565b92915050565b60008135905061255d8161387f565b92915050565b6000815190506125728161387f565b92915050565b600082601f83011261258957600080fd5b81356125998482602086016124a8565b91505092915050565b600082601f8301126125b357600080fd5b81356125c38482602086016124e6565b91505092915050565b6000813590506125db81613896565b92915050565b6000602082840312156125f357600080fd5b600061260184828501612524565b91505092915050565b6000806040838503121561261d57600080fd5b600061262b85828601612524565b925050602061263c85828601612524565b9150509250929050565b60008060006060848603121561265b57600080fd5b600061266986828701612524565b935050602061267a86828701612524565b925050604061268b868287016125cc565b9150509250925092565b600080600080608085870312156126ab57600080fd5b60006126b987828801612524565b94505060206126ca87828801612524565b93505060406126db878288016125cc565b925050606085013567ffffffffffffffff8111156126f857600080fd5b61270487828801612578565b91505092959194509250565b6000806040838503121561272357600080fd5b600061273185828601612524565b925050602061274285828601612539565b9150509250929050565b6000806040838503121561275f57600080fd5b600061276d85828601612524565b925050602061277e858286016125cc565b9150509250929050565b60006020828403121561279a57600080fd5b60006127a88482850161254e565b91505092915050565b6000602082840312156127c357600080fd5b60006127d184828501612563565b91505092915050565b6000602082840312156127ec57600080fd5b600082013567ffffffffffffffff81111561280657600080fd5b612812848285016125a2565b91505092915050565b60006020828403121561282d57600080fd5b600061283b848285016125cc565b91505092915050565b61284d816130f8565b82525050565b61285c8161310a565b82525050565b600061286d82612fa0565b6128778185612fb6565b935061288781856020860161317b565b61289081613347565b840191505092915050565b60006128a682612fab565b6128b08185612fc7565b93506128c081856020860161317b565b6128c981613347565b840191505092915050565b60006128df82612fab565b6128e98185612fd8565b93506128f981856020860161317b565b80840191505092915050565b6000612912601183612fc7565b915061291d82613358565b602082019050919050565b6000612935603283612fc7565b915061294082613381565b604082019050919050565b6000612958602683612fc7565b9150612963826133d0565b604082019050919050565b600061297b601c83612fc7565b91506129868261341f565b602082019050919050565b600061299e602483612fc7565b91506129a982613448565b604082019050919050565b60006129c1601983612fc7565b91506129cc82613497565b602082019050919050565b60006129e4602c83612fc7565b91506129ef826134c0565b604082019050919050565b6000612a07603883612fc7565b9150612a128261350f565b604082019050919050565b6000612a2a602a83612fc7565b9150612a358261355e565b604082019050919050565b6000612a4d602983612fc7565b9150612a58826135ad565b604082019050919050565b6000612a70601983612fc7565b9150612a7b826135fc565b602082019050919050565b6000612a93602083612fc7565b9150612a9e82613625565b602082019050919050565b6000612ab6603183612fc7565b9150612ac18261364e565b604082019050919050565b6000612ad9602c83612fc7565b9150612ae48261369d565b604082019050919050565b6000612afc602083612fc7565b9150612b07826136ec565b602082019050919050565b6000612b1f602983612fc7565b9150612b2a82613715565b604082019050919050565b6000612b42602f83612fc7565b9150612b4d82613764565b604082019050919050565b6000612b65602183612fc7565b9150612b70826137b3565b604082019050919050565b6000612b88603183612fc7565b9150612b9382613802565b604082019050919050565b612ba781613162565b82525050565b6000612bb982856128d4565b9150612bc582846128d4565b91508190509392505050565b6000602082019050612be66000830184612844565b92915050565b6000608082019050612c016000830187612844565b612c0e6020830186612844565b612c1b6040830185612b9e565b8181036060830152612c2d8184612862565b905095945050505050565b6000604082019050612c4d6000830185612844565b612c5a6020830184612b9e565b9392505050565b6000602082019050612c766000830184612853565b92915050565b60006020820190508181036000830152612c96818461289b565b905092915050565b60006020820190508181036000830152612cb781612905565b9050919050565b60006020820190508181036000830152612cd781612928565b9050919050565b60006020820190508181036000830152612cf78161294b565b9050919050565b60006020820190508181036000830152612d178161296e565b9050919050565b60006020820190508181036000830152612d3781612991565b9050919050565b60006020820190508181036000830152612d57816129b4565b9050919050565b60006020820190508181036000830152612d77816129d7565b9050919050565b60006020820190508181036000830152612d97816129fa565b9050919050565b60006020820190508181036000830152612db781612a1d565b9050919050565b60006020820190508181036000830152612dd781612a40565b9050919050565b60006020820190508181036000830152612df781612a63565b9050919050565b60006020820190508181036000830152612e1781612a86565b9050919050565b60006020820190508181036000830152612e3781612aa9565b9050919050565b60006020820190508181036000830152612e5781612acc565b9050919050565b60006020820190508181036000830152612e7781612aef565b9050919050565b60006020820190508181036000830152612e9781612b12565b9050919050565b60006020820190508181036000830152612eb781612b35565b9050919050565b60006020820190508181036000830152612ed781612b58565b9050919050565b60006020820190508181036000830152612ef781612b7b565b9050919050565b6000602082019050612f136000830184612b9e565b92915050565b6000612f23612f34565b9050612f2f82826131e0565b919050565b6000604051905090565b600067ffffffffffffffff821115612f5957612f58613318565b5b612f6282613347565b9050602081019050919050565b600067ffffffffffffffff821115612f8a57612f89613318565b5b612f9382613347565b9050602081019050919050565b600081519050919050565b600081519050919050565b600082825260208201905092915050565b600082825260208201905092915050565b600081905092915050565b6000612fee82613162565b9150612ff983613162565b9250827fffffffffffffffffffffffffffffffffffffffffffffffffffffffffffffffff0382111561302e5761302d61328b565b5b828201905092915050565b600061304482613162565b915061304f83613162565b92508261305f5761305e6132ba565b5b828204905092915050565b600061307582613162565b915061308083613162565b9250817fffffffffffffffffffffffffffffffffffffffffffffffffffffffffffffffff04831182151516156130b9576130b861328b565b5b828202905092915050565b60006130cf82613162565b91506130da83613162565b9250828210156130ed576130ec61328b565b5b828203905092915050565b600061310382613142565b9050919050565b60008115159050919050565b60007fffffffff0000000000000000000000000000000000000000000000000000000082169050919050565b600073ffffffffffffffffffffffffffffffffffffffff82169050919050565b6000819050919050565b82818337600083830152505050565b60005b8381101561319957808201518184015260208101905061317e565b838111156131a8576000848401525b50505050565b600060028204905060018216806131c657607f821691505b602082108114156131da576131d96132e9565b5b50919050565b6131e982613347565b810181811067ffffffffffffffff8211171561320857613207613318565b5b80604052505050565b600061321c82613162565b91507fffffffffffffffffffffffffffffffffffffffffffffffffffffffffffffffff82141561324f5761324e61328b565b5b600182019050919050565b600061326582613162565b915061327083613162565b9250826132805761327f6132ba565b5b828206905092915050565b7f4e487b7100000000000000000000000000000000000000000000000000000000600052601160045260246000fd5b7f4e487b7100000000000000000000000000000000000000000000000000000000600052601260045260246000fd5b7f4e487b7100000000000000000000000000000000000000000000000000000000600052602260045260246000fd5b7f4e487b7100000000000000000000000000000000000000000000000000000000600052604160045260246000fd5b6000601f19601f8301169050919050565b7f4d617820737570706c79206f66204e4654000000000000000000000000000000600082015250565b7f4552433732313a207472616e7366657220746f206e6f6e20455243373231526560008201527f63656976657220696d706c656d656e7465720000000000000000000000000000602082015250565b7f4f776e61626c653a206e6577206f776e657220697320746865207a65726f206160008201527f6464726573730000000000000000000000000000000000000000000000000000602082015250565b7f4552433732313a20746f6b656e20616c7265616479206d696e74656400000000600082015250565b7f4552433732313a207472616e7366657220746f20746865207a65726f2061646460008201527f7265737300000000000000000000000000000000000000000000000000000000602082015250565b7f4552433732313a20617070726f766520746f2063616c6c657200000000000000600082015250565b7f4552433732313a206f70657261746f7220717565727920666f72206e6f6e657860008201527f697374656e7420746f6b656e0000000000000000000000000000000000000000602082015250565b7f4552433732313a20617070726f76652063616c6c6572206973206e6f74206f7760008201527f6e6572206e6f7220617070726f76656420666f7220616c6c0000000000000000602082015250565b7f4552433732313a2062616c616e636520717565727920666f7220746865207a6560008201527f726f206164647265737300000000000000000000000000000000000000000000602082015250565b7f4552433732313a206f776e657220717565727920666f72206e6f6e657869737460008201527f656e7420746f6b656e0000000000000000000000000000000000000000000000602082015250565b7f56616c75652073656e74206973206e6f7420636f727265637400000000000000600082015250565b7f4552433732313a206d696e7420746f20746865207a65726f2061646472657373600082015250565b7f45524337323155524953746f726167653a2055524920717565727920666f722060008201527f6e6f6e6578697374656e7420746f6b656e000000000000000000000000000000602082015250565b7f4552433732313a20617070726f76656420717565727920666f72206e6f6e657860008201527f697374656e7420746f6b656e0000000000000000000000000000000000000000602082015250565b7f4f776e61626c653a2063616c6c6572206973206e6f7420746865206f776e6572600082015250565b7f4552433732313a207472616e73666572206f6620746f6b656e2074686174206960008201527f73206e6f74206f776e0000000000000000000000000000000000000000000000602082015250565b7f4552433732314d657461646174613a2055524920717565727920666f72206e6f60008201527f6e6578697374656e7420746f6b656e0000000000000000000000000000000000602082015250565b7f4552433732313a20617070726f76616c20746f2063757272656e74206f776e6560008201527f7200000000000000000000000000000000000000000000000000000000000000602082015250565b7f4552433732313a207472616e736665722063616c6c6572206973206e6f74206f60008201527f776e6572206e6f7220617070726f766564000000000000000000000000000000602082015250565b61385a816130f8565b811461386557600080fd5b50565b6138718161310a565b811461387c57600080fd5b50565b61388881613116565b811461389357600080fd5b50565b61389f81613162565b81146138aa57600080fd5b5056fea2646970667358221220ecf9d70d2bec30b7840a529b992f152cc1e66e21d53f51c7816512df023dd90e64736f6c63430008040033",
  "linkReferences": {},
  "deployedLinkReferences": {}
}