{
  "_format": "hh-sol-artifact-1",
  "contractName": "PunksNFT",
  "sourceName": "contracts/PunksNFT.sol",
  "abi": [
    {
      "inputs": [],
      "stateMutability": "nonpayable",
      "type": "constructor"
    },
    {
      "anonymous": false,
      "inputs": [
        {
          "indexed": true,
          "internalType": "address",
          "name": "owner",
          "type": "address"
        },
        {
          "indexed": true,
          "internalType": "address",
          "name": "approved",
          "type": "address"
        },
        {
          "indexed": true,
          "internalType": "uint256",
          "name": "tokenId",
          "type": "uint256"
        }
      ],
      "name": "Approval",
      "type": "event"
    },
    {
      "anonymous": false,
      "inputs": [
        {
          "indexed": true,
          "internalType": "address",
          "name": "owner",
          "type": "address"
        },
        {
          "indexed": true,
          "internalType": "address",
          "name": "operator",
          "type": "address"
        },
        {
          "indexed": false,
          "internalType": "bool",
          "name": "approved",
          "type": "bool"
        }
      ],
      "name": "ApprovalForAll",
      "type": "event"
    },
    {
      "anonymous": false,
      "inputs": [
        {
          "indexed": false,
          "internalType": "address",
          "name": "sender",
          "type": "address"
        },
        {
          "indexed": false,
          "internalType": "uint256",
          "name": "tokenId",
          "type": "uint256"
        }
      ],
      "name": "NewNFTMinted",
      "type": "event"
    },
    {
      "anonymous": false,
      "inputs": [
        {
          "indexed": true,
          "internalType": "address",
          "name": "previousOwner",
          "type": "address"
        },
        {
          "indexed": true,
          "internalType": "address",
          "name": "newOwner",
          "type": "address"
        }
      ],
      "name": "OwnershipTransferred",
      "type": "event"
    },
    {
      "anonymous": false,
      "inputs": [
        {
          "indexed": true,
          "internalType": "address",
          "name": "from",
          "type": "address"
        },
        {
          "indexed": true,
          "internalType": "address",
          "name": "to",
          "type": "address"
        },
        {
          "indexed": true,
          "internalType": "uint256",
          "name": "tokenId",
          "type": "uint256"
        }
      ],
      "name": "Transfer",
      "type": "event"
    },
    {
      "inputs": [],
      "name": "BASE_URI",
      "outputs": [
        {
          "internalType": "string",
          "name": "",
          "type": "string"
        }
      ],
      "stateMutability": "view",
      "type": "function"
    },
    {
      "inputs": [],
      "name": "CURRENT_PRICE",
      "outputs": [
        {
          "internalType": "uint256",
          "name": "",
          "type": "uint256"
        }
      ],
      "stateMutability": "view",
      "type": "function"
    },
    {
      "inputs": [],
      "name": "MAX_TOKENS",
      "outputs": [
        {
          "internalType": "uint256",
          "name": "",
          "type": "uint256"
        }
      ],
      "stateMutability": "view",
      "type": "function"
    },
    {
      "inputs": [
        {
          "internalType": "address",
          "name": "to",
          "type": "address"
        },
        {
          "internalType": "uint256",
          "name": "tokenId",
          "type": "uint256"
        }
      ],
      "name": "approve",
      "outputs": [],
      "stateMutability": "nonpayable",
      "type": "function"
    },
    {
      "inputs": [
        {
          "internalType": "address",
          "name": "owner",
          "type": "address"
        }
      ],
      "name": "balanceOf",
      "outputs": [
        {
          "internalType": "uint256",
          "name": "",
          "type": "uint256"
        }
      ],
      "stateMutability": "view",
      "type": "function"
    },
    {
      "inputs": [
        {
          "internalType": "uint256",
          "name": "tokenId",
          "type": "uint256"
        }
      ],
      "name": "getApproved",
      "outputs": [
        {
          "internalType": "address",
          "name": "",
          "type": "address"
        }
      ],
      "stateMutability": "view",
      "type": "function"
    },
    {
      "inputs": [
        {
          "internalType": "address",
          "name": "owner",
          "type": "address"
        },
        {
          "internalType": "address",
          "name": "operator",
          "type": "address"
        }
      ],
      "name": "isApprovedForAll",
      "outputs": [
        {
          "internalType": "bool",
          "name": "",
          "type": "bool"
        }
      ],
      "stateMutability": "view",
      "type": "function"
    },
    {
      "inputs": [],
      "name": "makeNFT",
      "outputs": [],
      "stateMutability": "payable",
      "type": "function"
    },
    {
      "inputs": [],
      "name": "name",
      "outputs": [
        {
          "internalType": "string",
          "name": "",
          "type": "string"
        }
      ],
      "stateMutability": "view",
      "type": "function"
    },
    {
      "inputs": [],
      "name": "owner",
      "outputs": [
        {
          "internalType": "address",
          "name": "",
          "type": "address"
        }
      ],
      "stateMutability": "view",
      "type": "function"
    },
    {
      "inputs": [
        {
          "internalType": "uint256",
          "name": "tokenId",
          "type": "uint256"
        }
      ],
      "name": "ownerOf",
      "outputs": [
        {
          "internalType": "address",
          "name": "",
          "type": "address"
        }
      ],
      "stateMutability": "view",
      "type": "function"
    },
    {
      "inputs": [],
      "name": "renounceOwnership",
      "outputs": [],
      "stateMutability": "nonpayable",
      "type": "function"
    },
    {
      "inputs": [],
      "name": "reserveNFT",
      "outputs": [],
      "stateMutability": "nonpayable",
      "type": "function"
    },
    {
      "inputs": [
        {
          "internalType": "address",
          "name": "from",
          "type": "address"
        },
        {
          "internalType": "address",
          "name": "to",
          "type": "address"
        },
        {
          "internalType": "uint256",
          "name": "tokenId",
          "type": "uint256"
        }
      ],
      "name": "safeTransferFrom",
      "outputs": [],
      "stateMutability": "nonpayable",
      "type": "function"
    },
    {
      "inputs": [
        {
          "internalType": "address",
          "name": "from",
          "type": "address"
        },
        {
          "internalType": "address",
          "name": "to",
          "type": "address"
        },
        {
          "internalType": "uint256",
          "name": "tokenId",
          "type": "uint256"
        },
        {
          "internalType": "bytes",
          "name": "_data",
          "type": "bytes"
        }
      ],
      "name": "safeTransferFrom",
      "outputs": [],
      "stateMutability": "nonpayable",
      "type": "function"
    },
    {
      "inputs": [
        {
          "internalType": "address",
          "name": "operator",
          "type": "address"
        },
        {
          "internalType": "bool",
          "name": "approved",
          "type": "bool"
        }
      ],
      "name": "setApprovalForAll",
      "outputs": [],
      "stateMutability": "nonpayable",
      "type": "function"
    },
    {
      "inputs": [
        {
          "internalType": "string",
          "name": "BaseURI",
          "type": "string"
        }
      ],
      "name": "setBaseURI",
      "outputs": [],
      "stateMutability": "nonpayable",
      "type": "function"
    },
    {
      "inputs": [
        {
          "internalType": "uint256",
          "name": "currentPrice",
          "type": "uint256"
        }
      ],
      "name": "setCurrentPrice",
      "outputs": [],
      "stateMutability": "nonpayable",
      "type": "function"
    },
    {
      "inputs": [
        {
          "internalType": "bytes4",
          "name": "interfaceId",
          "type": "bytes4"
        }
      ],
      "name": "supportsInterface",
      "outputs": [
        {
          "internalType": "bool",
          "name": "",
          "type": "bool"
        }
      ],
      "stateMutability": "view",
      "type": "function"
    },
    {
      "inputs": [],
      "name": "symbol",
      "outputs": [
        {
          "internalType": "string",
          "name": "",
          "type": "string"
        }
      ],
      "stateMutability": "view",
      "type": "function"
    },
    {
      "inputs": [
        {
          "internalType": "uint256",
          "name": "tokenId",
          "type": "uint256"
        }
      ],
      "name": "tokenURI",
      "outputs": [
        {
          "internalType": "string",
          "name": "",
          "type": "string"
        }
      ],
      "stateMutability": "view",
      "type": "function"
    },
    {
      "inputs": [],
      "name": "totalSupply",
      "outputs": [
        {
          "internalType": "uint256",
          "name": "",
          "type": "uint256"
        }
      ],
      "stateMutability": "view",
      "type": "function"
    },
    {
      "inputs": [
        {
          "internalType": "address",
          "name": "from",
          "type": "address"
        },
        {
          "internalType": "address",
          "name": "to",
          "type": "address"
        },
        {
          "internalType": "uint256",
          "name": "tokenId",
          "type": "uint256"
        }
      ],
      "name": "transferFrom",
      "outputs": [],
      "stateMutability": "nonpayable",
      "type": "function"
    },
    {
      "inputs": [
        {
          "internalType": "address",
          "name": "newOwner",
          "type": "address"
        }
      ],
      "name": "transferOwnership",
      "outputs": [],
      "stateMutability": "nonpayable",
      "type": "function"
    },
    {
      "inputs": [],
      "name": "withdraw",
      "outputs": [],
      "stateMutability": "nonpayable",
      "type": "function"
    }
  ],
  "bytecode": "0x60806040523480156200001157600080fd5b506040518060400160405280600e81526020017f416943727970746f50756e6b73340000000000000000000000000000000000008152506040518060400160405280600681526020017f50554e4b53340000000000000000000000000000000000000000000000000000815250816000908051906020019062000096929190620001ef565b508060019080519060200190620000af929190620001ef565b505050620000d2620000c66200012160201b60201c565b6200012960201b60201c565b610fa060098190555066354a6ba7a18000600a81905550604051806060016040528060258152602001620039e260259139600b90805190602001906200011a929190620001ef565b5062000304565b600033905090565b6000600760009054906101000a900473ffffffffffffffffffffffffffffffffffffffff16905081600760006101000a81548173ffffffffffffffffffffffffffffffffffffffff021916908373ffffffffffffffffffffffffffffffffffffffff1602179055508173ffffffffffffffffffffffffffffffffffffffff168173ffffffffffffffffffffffffffffffffffffffff167f8be0079c531659141344cd1fd0a4f28419497f9722a3daafe3b4186f6b6457e060405160405180910390a35050565b828054620001fd906200029f565b90600052602060002090601f0160209004810192826200022157600085556200026d565b82601f106200023c57805160ff19168380011785556200026d565b828001600101855582156200026d579182015b828111156200026c5782518255916020019190600101906200024f565b5b5090506200027c919062000280565b5090565b5b808211156200029b57600081600090555060010162000281565b5090565b60006002820490506001821680620002b857607f821691505b60208210811415620002cf57620002ce620002d5565b5b50919050565b7f4e487b7100000000000000000000000000000000000000000000000000000000600052602260045260246000fd5b6136ce80620003146000396000f3fe6080604052600436106101665760003560e01c806370a08231116100d1578063b88d4fde1161008a578063dbddb26a11610064578063dbddb26a146104e1578063e985e9c51461050c578063f2fde38b14610549578063f47c84c51461057257610166565b8063b88d4fde14610464578063c617f4ed1461048d578063c87b56dd146104a457610166565b806370a0823114610387578063715018a6146103c45780638da5cb5b146103db57806395d89b4114610406578063a22cb46514610431578063b036b4bd1461045a57610166565b806323b872dd1161012357806323b872dd1461028d5780633ccfd60b146102b657806342842e0e146102cd5780634b369a61146102f657806355f804b3146103215780636352211e1461034a57610166565b806301ffc9a71461016b57806306fdde03146101a8578063081812fc146101d3578063095ea7b31461021057806318160ddd1461023957806318b2007114610264575b600080fd5b34801561017757600080fd5b50610192600480360381019061018d91906125cd565b61059d565b60405161019f9190612aa6565b60405180910390f35b3480156101b457600080fd5b506101bd61067f565b6040516101ca9190612ac1565b60405180910390f35b3480156101df57600080fd5b506101fa60048036038101906101f59190612660565b610711565b6040516102079190612a16565b60405180910390f35b34801561021c57600080fd5b5061023760048036038101906102329190612591565b610796565b005b34801561024557600080fd5b5061024e6108ae565b60405161025b9190612d43565b60405180910390f35b34801561027057600080fd5b5061028b60048036038101906102869190612660565b6108bf565b005b34801561029957600080fd5b506102b460048036038101906102af919061248b565b610945565b005b3480156102c257600080fd5b506102cb6109a5565b005b3480156102d957600080fd5b506102f460048036038101906102ef919061248b565b610a70565b005b34801561030257600080fd5b5061030b610a90565b6040516103189190612d43565b60405180910390f35b34801561032d57600080fd5b506103486004803603810190610343919061261f565b610a96565b005b34801561035657600080fd5b50610371600480360381019061036c9190612660565b610b2c565b60405161037e9190612a16565b60405180910390f35b34801561039357600080fd5b506103ae60048036038101906103a99190612426565b610bde565b6040516103bb9190612d43565b60405180910390f35b3480156103d057600080fd5b506103d9610c96565b005b3480156103e757600080fd5b506103f0610d1e565b6040516103fd9190612a16565b60405180910390f35b34801561041257600080fd5b5061041b610d48565b6040516104289190612ac1565b60405180910390f35b34801561043d57600080fd5b5061045860048036038101906104539190612555565b610dda565b005b610462610f5b565b005b34801561047057600080fd5b5061048b600480360381019061048691906124da565b611042565b005b34801561049957600080fd5b506104a26110a4565b005b3480156104b057600080fd5b506104cb60048036038101906104c69190612660565b6111e5565b6040516104d89190612ac1565b60405180910390f35b3480156104ed57600080fd5b506104f6611337565b6040516105039190612ac1565b60405180910390f35b34801561051857600080fd5b50610533600480360381019061052e919061244f565b6113c5565b6040516105409190612aa6565b60405180910390f35b34801561055557600080fd5b50610570600480360381019061056b9190612426565b611459565b005b34801561057e57600080fd5b50610587611551565b6040516105949190612d43565b60405180910390f35b60007f80ac58cd000000000000000000000000000000000000000000000000000000007bffffffffffffffffffffffffffffffffffffffffffffffffffffffff1916827bffffffffffffffffffffffffffffffffffffffffffffffffffffffff1916148061066857507f5b5e139f000000000000000000000000000000000000000000000000000000007bffffffffffffffffffffffffffffffffffffffffffffffffffffffff1916827bffffffffffffffffffffffffffffffffffffffffffffffffffffffff1916145b80610678575061067782611557565b5b9050919050565b60606000805461068e90612f99565b80601f01602080910402602001604051908101604052809291908181526020018280546106ba90612f99565b80156107075780601f106106dc57610100808354040283529160200191610707565b820191906000526020600020905b8154815290600101906020018083116106ea57829003601f168201915b5050505050905090565b600061071c826115c1565b61075b576040517f08c379a000000000000000000000000000000000000000000000000000000000815260040161075290612c83565b60405180910390fd5b6004600083815260200190815260200160002060009054906101000a900473ffffffffffffffffffffffffffffffffffffffff169050919050565b60006107a182610b2c565b90508073ffffffffffffffffffffffffffffffffffffffff168373ffffffffffffffffffffffffffffffffffffffff161415610812576040517f08c379a000000000000000000000000000000000000000000000000000000000815260040161080990612d03565b60405180910390fd5b8073ffffffffffffffffffffffffffffffffffffffff1661083161162d565b73ffffffffffffffffffffffffffffffffffffffff161480610860575061085f8161085a61162d565b6113c5565b5b61089f576040517f08c379a000000000000000000000000000000000000000000000000000000000815260040161089690612bc3565b60405180910390fd5b6108a98383611635565b505050565b60006108ba60086116ee565b905090565b6108c761162d565b73ffffffffffffffffffffffffffffffffffffffff166108e5610d1e565b73ffffffffffffffffffffffffffffffffffffffff161461093b576040517f08c379a000000000000000000000000000000000000000000000000000000000815260040161093290612ca3565b60405180910390fd5b80600a8190555050565b61095661095061162d565b826116fc565b610995576040517f08c379a000000000000000000000000000000000000000000000000000000000815260040161098c90612d23565b60405180910390fd5b6109a08383836117da565b505050565b6109ad61162d565b73ffffffffffffffffffffffffffffffffffffffff166109cb610d1e565b73ffffffffffffffffffffffffffffffffffffffff1614610a21576040517f08c379a0000000000000000000000000000000000000000000000000000000008152600401610a1890612ca3565b60405180910390fd5b60004790503373ffffffffffffffffffffffffffffffffffffffff166108fc829081150290604051600060405180830381858888f19350505050158015610a6c573d6000803e3d6000fd5b5050565b610a8b83838360405180602001604052806000815250611042565b505050565b600a5481565b610a9e61162d565b73ffffffffffffffffffffffffffffffffffffffff16610abc610d1e565b73ffffffffffffffffffffffffffffffffffffffff1614610b12576040517f08c379a0000000000000000000000000000000000000000000000000000000008152600401610b0990612ca3565b60405180910390fd5b80600b9080519060200190610b2892919061224a565b5050565b6000806002600084815260200190815260200160002060009054906101000a900473ffffffffffffffffffffffffffffffffffffffff169050600073ffffffffffffffffffffffffffffffffffffffff168173ffffffffffffffffffffffffffffffffffffffff161415610bd5576040517f08c379a0000000000000000000000000000000000000000000000000000000008152600401610bcc90612c03565b60405180910390fd5b80915050919050565b60008073ffffffffffffffffffffffffffffffffffffffff168273ffffffffffffffffffffffffffffffffffffffff161415610c4f576040517f08c379a0000000000000000000000000000000000000000000000000000000008152600401610c4690612be3565b60405180910390fd5b600360008373ffffffffffffffffffffffffffffffffffffffff1673ffffffffffffffffffffffffffffffffffffffff168152602001908152602001600020549050919050565b610c9e61162d565b73ffffffffffffffffffffffffffffffffffffffff16610cbc610d1e565b73ffffffffffffffffffffffffffffffffffffffff1614610d12576040517f08c379a0000000000000000000000000000000000000000000000000000000008152600401610d0990612ca3565b60405180910390fd5b610d1c6000611a36565b565b6000600760009054906101000a900473ffffffffffffffffffffffffffffffffffffffff16905090565b606060018054610d5790612f99565b80601f0160208091040260200160405190810160405280929190818152602001828054610d8390612f99565b8015610dd05780601f10610da557610100808354040283529160200191610dd0565b820191906000526020600020905b815481529060010190602001808311610db357829003601f168201915b5050505050905090565b610de261162d565b73ffffffffffffffffffffffffffffffffffffffff168273ffffffffffffffffffffffffffffffffffffffff161415610e50576040517f08c379a0000000000000000000000000000000000000000000000000000000008152600401610e4790612b83565b60405180910390fd5b8060056000610e5d61162d565b73ffffffffffffffffffffffffffffffffffffffff1673ffffffffffffffffffffffffffffffffffffffff16815260200190815260200160002060008473ffffffffffffffffffffffffffffffffffffffff1673ffffffffffffffffffffffffffffffffffffffff16815260200190815260200160002060006101000a81548160ff0219169083151502179055508173ffffffffffffffffffffffffffffffffffffffff16610f0a61162d565b73ffffffffffffffffffffffffffffffffffffffff167f17307eab39ab6107e8899845ad3d59bd9653f200f220920489ca2b5937696c3183604051610f4f9190612aa6565b60405180910390a35050565b6000610f6760086116ee565b905034600a541115610fae576040517f08c379a0000000000000000000000000000000000000000000000000000000008152600401610fa590612c23565b60405180910390fd5b6009548110610ff2576040517f08c379a0000000000000000000000000000000000000000000000000000000008152600401610fe990612ae3565b60405180910390fd5b610ffc3382611afc565b6110066008611b1a565b7f1c05098ed1ff38e6238d2b1b04b2c7977d4c94ce651bda6473f9dba8dbf01da03382604051611037929190612a7d565b60405180910390a150565b61105361104d61162d565b836116fc565b611092576040517f08c379a000000000000000000000000000000000000000000000000000000000815260040161108990612d23565b60405180910390fd5b61109e84848484611b30565b50505050565b6110ac61162d565b73ffffffffffffffffffffffffffffffffffffffff166110ca610d1e565b73ffffffffffffffffffffffffffffffffffffffff1614611120576040517f08c379a000000000000000000000000000000000000000000000000000000000815260040161111790612ca3565b60405180910390fd5b6000600190505b603281116111e257600061113b60086116ee565b90506009548110611181576040517f08c379a000000000000000000000000000000000000000000000000000000000815260040161117890612ae3565b60405180910390fd5b61118b3382611afc565b6111956008611b1a565b7f1c05098ed1ff38e6238d2b1b04b2c7977d4c94ce651bda6473f9dba8dbf01da033826040516111c6929190612a7d565b60405180910390a15080806111da90612ffc565b915050611127565b50565b60606111f0826115c1565b61122f576040517f08c379a000000000000000000000000000000000000000000000000000000000815260040161122690612c63565b60405180910390fd5b600060066000848152602001908152602001600020805461124f90612f99565b80601f016020809104026020016040519081016040528092919081815260200182805461127b90612f99565b80156112c85780601f1061129d576101008083540402835291602001916112c8565b820191906000526020600020905b8154815290600101906020018083116112ab57829003601f168201915b5050505050905060006112d9611b8c565b90506000815114156112ef578192505050611332565b60008251111561132457808260405160200161130c9291906129f2565b60405160208183030381529060405292505050611332565b61132d84611c1e565b925050505b919050565b600b805461134490612f99565b80601f016020809104026020016040519081016040528092919081815260200182805461137090612f99565b80156113bd5780601f10611392576101008083540402835291602001916113bd565b820191906000526020600020905b8154815290600101906020018083116113a057829003601f168201915b505050505081565b6000600560008473ffffffffffffffffffffffffffffffffffffffff1673ffffffffffffffffffffffffffffffffffffffff16815260200190815260200160002060008373ffffffffffffffffffffffffffffffffffffffff1673ffffffffffffffffffffffffffffffffffffffff16815260200190815260200160002060009054906101000a900460ff16905092915050565b61146161162d565b73ffffffffffffffffffffffffffffffffffffffff1661147f610d1e565b73ffffffffffffffffffffffffffffffffffffffff16146114d5576040517f08c379a00000000000000000000000000000000000000000000000000000000081526004016114cc90612ca3565b60405180910390fd5b600073ffffffffffffffffffffffffffffffffffffffff168173ffffffffffffffffffffffffffffffffffffffff161415611545576040517f08c379a000000000000000000000000000000000000000000000000000000000815260040161153c90612b23565b60405180910390fd5b61154e81611a36565b50565b60095481565b60007f01ffc9a7000000000000000000000000000000000000000000000000000000007bffffffffffffffffffffffffffffffffffffffffffffffffffffffff1916827bffffffffffffffffffffffffffffffffffffffffffffffffffffffff1916149050919050565b60008073ffffffffffffffffffffffffffffffffffffffff166002600084815260200190815260200160002060009054906101000a900473ffffffffffffffffffffffffffffffffffffffff1673ffffffffffffffffffffffffffffffffffffffff1614159050919050565b600033905090565b816004600083815260200190815260200160002060006101000a81548173ffffffffffffffffffffffffffffffffffffffff021916908373ffffffffffffffffffffffffffffffffffffffff160217905550808273ffffffffffffffffffffffffffffffffffffffff166116a883610b2c565b73ffffffffffffffffffffffffffffffffffffffff167f8c5be1e5ebec7d5bd14f71427d1e84f3dd0314c0f7b2291e5b200ac8c7c3b92560405160405180910390a45050565b600081600001549050919050565b6000611707826115c1565b611746576040517f08c379a000000000000000000000000000000000000000000000000000000000815260040161173d90612ba3565b60405180910390fd5b600061175183610b2c565b90508073ffffffffffffffffffffffffffffffffffffffff168473ffffffffffffffffffffffffffffffffffffffff1614806117c057508373ffffffffffffffffffffffffffffffffffffffff166117a884610711565b73ffffffffffffffffffffffffffffffffffffffff16145b806117d157506117d081856113c5565b5b91505092915050565b8273ffffffffffffffffffffffffffffffffffffffff166117fa82610b2c565b73ffffffffffffffffffffffffffffffffffffffff1614611850576040517f08c379a000000000000000000000000000000000000000000000000000000000815260040161184790612cc3565b60405180910390fd5b600073ffffffffffffffffffffffffffffffffffffffff168273ffffffffffffffffffffffffffffffffffffffff1614156118c0576040517f08c379a00000000000000000000000000000000000000000000000000000000081526004016118b790612b63565b60405180910390fd5b6118cb838383611cc5565b6118d6600082611635565b6001600360008573ffffffffffffffffffffffffffffffffffffffff1673ffffffffffffffffffffffffffffffffffffffff16815260200190815260200160002060008282546119269190612eaf565b925050819055506001600360008473ffffffffffffffffffffffffffffffffffffffff1673ffffffffffffffffffffffffffffffffffffffff168152602001908152602001600020600082825461197d9190612e28565b92505081905550816002600083815260200190815260200160002060006101000a81548173ffffffffffffffffffffffffffffffffffffffff021916908373ffffffffffffffffffffffffffffffffffffffff160217905550808273ffffffffffffffffffffffffffffffffffffffff168473ffffffffffffffffffffffffffffffffffffffff167fddf252ad1be2c89b69c2b068fc378daa952ba7f163c4a11628f55a4df523b3ef60405160405180910390a4505050565b6000600760009054906101000a900473ffffffffffffffffffffffffffffffffffffffff16905081600760006101000a81548173ffffffffffffffffffffffffffffffffffffffff021916908373ffffffffffffffffffffffffffffffffffffffff1602179055508173ffffffffffffffffffffffffffffffffffffffff168173ffffffffffffffffffffffffffffffffffffffff167f8be0079c531659141344cd1fd0a4f28419497f9722a3daafe3b4186f6b6457e060405160405180910390a35050565b611b16828260405180602001604052806000815250611cca565b5050565b6001816000016000828254019250508190555050565b611b3b8484846117da565b611b4784848484611d25565b611b86576040517f08c379a0000000000000000000000000000000000000000000000000000000008152600401611b7d90612b03565b60405180910390fd5b50505050565b6060600b8054611b9b90612f99565b80601f0160208091040260200160405190810160405280929190818152602001828054611bc790612f99565b8015611c145780601f10611be957610100808354040283529160200191611c14565b820191906000526020600020905b815481529060010190602001808311611bf757829003601f168201915b5050505050905090565b6060611c29826115c1565b611c68576040517f08c379a0000000000000000000000000000000000000000000000000000000008152600401611c5f90612ce3565b60405180910390fd5b6000611c72611b8c565b90506000815111611c925760405180602001604052806000815250611cbd565b80611c9c84611ebc565b604051602001611cad9291906129f2565b6040516020818303038152906040525b915050919050565b505050565b611cd48383612069565b611ce16000848484611d25565b611d20576040517f08c379a0000000000000000000000000000000000000000000000000000000008152600401611d1790612b03565b60405180910390fd5b505050565b6000611d468473ffffffffffffffffffffffffffffffffffffffff16612237565b15611eaf578373ffffffffffffffffffffffffffffffffffffffff1663150b7a02611d6f61162d565b8786866040518563ffffffff1660e01b8152600401611d919493929190612a31565b602060405180830381600087803b158015611dab57600080fd5b505af1925050508015611ddc57506040513d601f19601f82011682018060405250810190611dd991906125f6565b60015b611e5f573d8060008114611e0c576040519150601f19603f3d011682016040523d82523d6000602084013e611e11565b606091505b50600081511415611e57576040517f08c379a0000000000000000000000000000000000000000000000000000000008152600401611e4e90612b03565b60405180910390fd5b805181602001fd5b63150b7a0260e01b7bffffffffffffffffffffffffffffffffffffffffffffffffffffffff1916817bffffffffffffffffffffffffffffffffffffffffffffffffffffffff191614915050611eb4565b600190505b949350505050565b60606000821415611f04576040518060400160405280600181526020017f30000000000000000000000000000000000000000000000000000000000000008152509050612064565b600082905060005b60008214611f36578080611f1f90612ffc565b915050600a82611f2f9190612e7e565b9150611f0c565b60008167ffffffffffffffff811115611f78577f4e487b7100000000000000000000000000000000000000000000000000000000600052604160045260246000fd5b6040519080825280601f01601f191660200182016040528015611faa5781602001600182028036833780820191505090505b5090505b6000851461205d57600182611fc39190612eaf565b9150600a85611fd29190613045565b6030611fde9190612e28565b60f81b81838151811061201a577f4e487b7100000000000000000000000000000000000000000000000000000000600052603260045260246000fd5b60200101907effffffffffffffffffffffffffffffffffffffffffffffffffffffffffffff1916908160001a905350600a856120569190612e7e565b9450611fae565b8093505050505b919050565b600073ffffffffffffffffffffffffffffffffffffffff168273ffffffffffffffffffffffffffffffffffffffff1614156120d9576040517f08c379a00000000000000000000000000000000000000000000000000000000081526004016120d090612c43565b60405180910390fd5b6120e2816115c1565b15612122576040517f08c379a000000000000000000000000000000000000000000000000000000000815260040161211990612b43565b60405180910390fd5b61212e60008383611cc5565b6001600360008473ffffffffffffffffffffffffffffffffffffffff1673ffffffffffffffffffffffffffffffffffffffff168152602001908152602001600020600082825461217e9190612e28565b92505081905550816002600083815260200190815260200160002060006101000a81548173ffffffffffffffffffffffffffffffffffffffff021916908373ffffffffffffffffffffffffffffffffffffffff160217905550808273ffffffffffffffffffffffffffffffffffffffff16600073ffffffffffffffffffffffffffffffffffffffff167fddf252ad1be2c89b69c2b068fc378daa952ba7f163c4a11628f55a4df523b3ef60405160405180910390a45050565b600080823b905060008111915050919050565b82805461225690612f99565b90600052602060002090601f01602090048101928261227857600085556122bf565b82601f1061229157805160ff19168380011785556122bf565b828001600101855582156122bf579182015b828111156122be5782518255916020019190600101906122a3565b5b5090506122cc91906122d0565b5090565b5b808211156122e95760008160009055506001016122d1565b5090565b60006123006122fb84612d83565b612d5e565b90508281526020810184848401111561231857600080fd5b612323848285612f57565b509392505050565b600061233e61233984612db4565b612d5e565b90508281526020810184848401111561235657600080fd5b612361848285612f57565b509392505050565b6000813590506123788161363c565b92915050565b60008135905061238d81613653565b92915050565b6000813590506123a28161366a565b92915050565b6000815190506123b78161366a565b92915050565b600082601f8301126123ce57600080fd5b81356123de8482602086016122ed565b91505092915050565b600082601f8301126123f857600080fd5b813561240884826020860161232b565b91505092915050565b60008135905061242081613681565b92915050565b60006020828403121561243857600080fd5b600061244684828501612369565b91505092915050565b6000806040838503121561246257600080fd5b600061247085828601612369565b925050602061248185828601612369565b9150509250929050565b6000806000606084860312156124a057600080fd5b60006124ae86828701612369565b93505060206124bf86828701612369565b92505060406124d086828701612411565b9150509250925092565b600080600080608085870312156124f057600080fd5b60006124fe87828801612369565b945050602061250f87828801612369565b935050604061252087828801612411565b925050606085013567ffffffffffffffff81111561253d57600080fd5b612549878288016123bd565b91505092959194509250565b6000806040838503121561256857600080fd5b600061257685828601612369565b92505060206125878582860161237e565b9150509250929050565b600080604083850312156125a457600080fd5b60006125b285828601612369565b92505060206125c385828601612411565b9150509250929050565b6000602082840312156125df57600080fd5b60006125ed84828501612393565b91505092915050565b60006020828403121561260857600080fd5b6000612616848285016123a8565b91505092915050565b60006020828403121561263157600080fd5b600082013567ffffffffffffffff81111561264b57600080fd5b612657848285016123e7565b91505092915050565b60006020828403121561267257600080fd5b600061268084828501612411565b91505092915050565b61269281612ee3565b82525050565b6126a181612ef5565b82525050565b60006126b282612de5565b6126bc8185612dfb565b93506126cc818560208601612f66565b6126d581613132565b840191505092915050565b60006126eb82612df0565b6126f58185612e0c565b9350612705818560208601612f66565b61270e81613132565b840191505092915050565b600061272482612df0565b61272e8185612e1d565b935061273e818560208601612f66565b80840191505092915050565b6000612757601183612e0c565b915061276282613143565b602082019050919050565b600061277a603283612e0c565b91506127858261316c565b604082019050919050565b600061279d602683612e0c565b91506127a8826131bb565b604082019050919050565b60006127c0601c83612e0c565b91506127cb8261320a565b602082019050919050565b60006127e3602483612e0c565b91506127ee82613233565b604082019050919050565b6000612806601983612e0c565b915061281182613282565b602082019050919050565b6000612829602c83612e0c565b9150612834826132ab565b604082019050919050565b600061284c603883612e0c565b9150612857826132fa565b604082019050919050565b600061286f602a83612e0c565b915061287a82613349565b604082019050919050565b6000612892602983612e0c565b915061289d82613398565b604082019050919050565b60006128b5601983612e0c565b91506128c0826133e7565b602082019050919050565b60006128d8602083612e0c565b91506128e382613410565b602082019050919050565b60006128fb603183612e0c565b915061290682613439565b604082019050919050565b600061291e602c83612e0c565b915061292982613488565b604082019050919050565b6000612941602083612e0c565b915061294c826134d7565b602082019050919050565b6000612964602983612e0c565b915061296f82613500565b604082019050919050565b6000612987602f83612e0c565b91506129928261354f565b604082019050919050565b60006129aa602183612e0c565b91506129b58261359e565b604082019050919050565b60006129cd603183612e0c565b91506129d8826135ed565b604082019050919050565b6129ec81612f4d565b82525050565b60006129fe8285612719565b9150612a0a8284612719565b91508190509392505050565b6000602082019050612a2b6000830184612689565b92915050565b6000608082019050612a466000830187612689565b612a536020830186612689565b612a6060408301856129e3565b8181036060830152612a7281846126a7565b905095945050505050565b6000604082019050612a926000830185612689565b612a9f60208301846129e3565b9392505050565b6000602082019050612abb6000830184612698565b92915050565b60006020820190508181036000830152612adb81846126e0565b905092915050565b60006020820190508181036000830152612afc8161274a565b9050919050565b60006020820190508181036000830152612b1c8161276d565b9050919050565b60006020820190508181036000830152612b3c81612790565b9050919050565b60006020820190508181036000830152612b5c816127b3565b9050919050565b60006020820190508181036000830152612b7c816127d6565b9050919050565b60006020820190508181036000830152612b9c816127f9565b9050919050565b60006020820190508181036000830152612bbc8161281c565b9050919050565b60006020820190508181036000830152612bdc8161283f565b9050919050565b60006020820190508181036000830152612bfc81612862565b9050919050565b60006020820190508181036000830152612c1c81612885565b9050919050565b60006020820190508181036000830152612c3c816128a8565b9050919050565b60006020820190508181036000830152612c5c816128cb565b9050919050565b60006020820190508181036000830152612c7c816128ee565b9050919050565b60006020820190508181036000830152612c9c81612911565b9050919050565b60006020820190508181036000830152612cbc81612934565b9050919050565b60006020820190508181036000830152612cdc81612957565b9050919050565b60006020820190508181036000830152612cfc8161297a565b9050919050565b60006020820190508181036000830152612d1c8161299d565b9050919050565b60006020820190508181036000830152612d3c816129c0565b9050919050565b6000602082019050612d5860008301846129e3565b92915050565b6000612d68612d79565b9050612d748282612fcb565b919050565b6000604051905090565b600067ffffffffffffffff821115612d9e57612d9d613103565b5b612da782613132565b9050602081019050919050565b600067ffffffffffffffff821115612dcf57612dce613103565b5b612dd882613132565b9050602081019050919050565b600081519050919050565b600081519050919050565b600082825260208201905092915050565b600082825260208201905092915050565b600081905092915050565b6000612e3382612f4d565b9150612e3e83612f4d565b9250827fffffffffffffffffffffffffffffffffffffffffffffffffffffffffffffffff03821115612e7357612e72613076565b5b828201905092915050565b6000612e8982612f4d565b9150612e9483612f4d565b925082612ea457612ea36130a5565b5b828204905092915050565b6000612eba82612f4d565b9150612ec583612f4d565b925082821015612ed857612ed7613076565b5b828203905092915050565b6000612eee82612f2d565b9050919050565b60008115159050919050565b60007fffffffff0000000000000000000000000000000000000000000000000000000082169050919050565b600073ffffffffffffffffffffffffffffffffffffffff82169050919050565b6000819050919050565b82818337600083830152505050565b60005b83811015612f84578082015181840152602081019050612f69565b83811115612f93576000848401525b50505050565b60006002820490506001821680612fb157607f821691505b60208210811415612fc557612fc46130d4565b5b50919050565b612fd482613132565b810181811067ffffffffffffffff82111715612ff357612ff2613103565b5b80604052505050565b600061300782612f4d565b91507fffffffffffffffffffffffffffffffffffffffffffffffffffffffffffffffff82141561303a57613039613076565b5b600182019050919050565b600061305082612f4d565b915061305b83612f4d565b92508261306b5761306a6130a5565b5b828206905092915050565b7f4e487b7100000000000000000000000000000000000000000000000000000000600052601160045260246000fd5b7f4e487b7100000000000000000000000000000000000000000000000000000000600052601260045260246000fd5b7f4e487b7100000000000000000000000000000000000000000000000000000000600052602260045260246000fd5b7f4e487b7100000000000000000000000000000000000000000000000000000000600052604160045260246000fd5b6000601f19601f8301169050919050565b7f4d617820737570706c79206f66204e4654000000000000000000000000000000600082015250565b7f4552433732313a207472616e7366657220746f206e6f6e20455243373231526560008201527f63656976657220696d706c656d656e7465720000000000000000000000000000602082015250565b7f4f776e61626c653a206e6577206f776e657220697320746865207a65726f206160008201527f6464726573730000000000000000000000000000000000000000000000000000602082015250565b7f4552433732313a20746f6b656e20616c7265616479206d696e74656400000000600082015250565b7f4552433732313a207472616e7366657220746f20746865207a65726f2061646460008201527f7265737300000000000000000000000000000000000000000000000000000000602082015250565b7f4552433732313a20617070726f766520746f2063616c6c657200000000000000600082015250565b7f4552433732313a206f70657261746f7220717565727920666f72206e6f6e657860008201527f697374656e7420746f6b656e0000000000000000000000000000000000000000602082015250565b7f4552433732313a20617070726f76652063616c6c6572206973206e6f74206f7760008201527f6e6572206e6f7220617070726f76656420666f7220616c6c0000000000000000602082015250565b7f4552433732313a2062616c616e636520717565727920666f7220746865207a6560008201527f726f206164647265737300000000000000000000000000000000000000000000602082015250565b7f4552433732313a206f776e657220717565727920666f72206e6f6e657869737460008201527f656e7420746f6b656e0000000000000000000000000000000000000000000000602082015250565b7f56616c75652073656e74206973206e6f7420636f727265637400000000000000600082015250565b7f4552433732313a206d696e7420746f20746865207a65726f2061646472657373600082015250565b7f45524337323155524953746f726167653a2055524920717565727920666f722060008201527f6e6f6e6578697374656e7420746f6b656e000000000000000000000000000000602082015250565b7f4552433732313a20617070726f76656420717565727920666f72206e6f6e657860008201527f697374656e7420746f6b656e0000000000000000000000000000000000000000602082015250565b7f4f776e61626c653a2063616c6c6572206973206e6f7420746865206f776e6572600082015250565b7f4552433732313a207472616e73666572206f6620746f6b656e2074686174206960008201527f73206e6f74206f776e0000000000000000000000000000000000000000000000602082015250565b7f4552433732314d657461646174613a2055524920717565727920666f72206e6f60008201527f6e6578697374656e7420746f6b656e0000000000000000000000000000000000602082015250565b7f4552433732313a20617070726f76616c20746f2063757272656e74206f776e6560008201527f7200000000000000000000000000000000000000000000000000000000000000602082015250565b7f4552433732313a207472616e736665722063616c6c6572206973206e6f74206f60008201527f776e6572206e6f7220617070726f766564000000000000000000000000000000602082015250565b61364581612ee3565b811461365057600080fd5b50565b61365c81612ef5565b811461366757600080fd5b50565b61367381612f01565b811461367e57600080fd5b50565b61368a81612f4d565b811461369557600080fd5b5056fea2646970667358221220ebce32dd5cd04f10d81c4592a6c12e23d227007d489b984c3185600e6e0c048164736f6c6343000804003368747470733a2f2f616963727970746f70756e6b732e626169636f6d2e636f6d2f6170692f",
  "linkReferences": {},
  "deployedLinkReferences": {}
}