{
  "_format": "hh-sol-artifact-1",
  "contractName": "PunksNFT",
  "sourceName": "contracts/PunksNFT.sol",
  "abi": [
    {
      "inputs": [],
      "stateMutability": "nonpayable",
      "type": "constructor"
    },
    {
      "anonymous": false,
      "inputs": [
        {
          "indexed": true,
          "internalType": "address",
          "name": "owner",
          "type": "address"
        },
        {
          "indexed": true,
          "internalType": "address",
          "name": "approved",
          "type": "address"
        },
        {
          "indexed": true,
          "internalType": "uint256",
          "name": "tokenId",
          "type": "uint256"
        }
      ],
      "name": "Approval",
      "type": "event"
    },
    {
      "anonymous": false,
      "inputs": [
        {
          "indexed": true,
          "internalType": "address",
          "name": "owner",
          "type": "address"
        },
        {
          "indexed": true,
          "internalType": "address",
          "name": "operator",
          "type": "address"
        },
        {
          "indexed": false,
          "internalType": "bool",
          "name": "approved",
          "type": "bool"
        }
      ],
      "name": "ApprovalForAll",
      "type": "event"
    },
    {
      "anonymous": false,
      "inputs": [
        {
          "indexed": false,
          "internalType": "address",
          "name": "sender",
          "type": "address"
        },
        {
          "indexed": false,
          "internalType": "uint256",
          "name": "tokenId",
          "type": "uint256"
        }
      ],
      "name": "NewNFTMinted",
      "type": "event"
    },
    {
      "anonymous": false,
      "inputs": [
        {
          "indexed": true,
          "internalType": "address",
          "name": "from",
          "type": "address"
        },
        {
          "indexed": true,
          "internalType": "address",
          "name": "to",
          "type": "address"
        },
        {
          "indexed": true,
          "internalType": "uint256",
          "name": "tokenId",
          "type": "uint256"
        }
      ],
      "name": "Transfer",
      "type": "event"
    },
    {
      "inputs": [],
      "name": "BASE_URL",
      "outputs": [
        {
          "internalType": "string",
          "name": "",
          "type": "string"
        }
      ],
      "stateMutability": "view",
      "type": "function"
    },
    {
      "inputs": [],
      "name": "MAX_TOKENS",
      "outputs": [
        {
          "internalType": "uint256",
          "name": "",
          "type": "uint256"
        }
      ],
      "stateMutability": "view",
      "type": "function"
    },
    {
      "inputs": [
        {
          "internalType": "address",
          "name": "to",
          "type": "address"
        },
        {
          "internalType": "uint256",
          "name": "tokenId",
          "type": "uint256"
        }
      ],
      "name": "approve",
      "outputs": [],
      "stateMutability": "nonpayable",
      "type": "function"
    },
    {
      "inputs": [
        {
          "internalType": "address",
          "name": "owner",
          "type": "address"
        }
      ],
      "name": "balanceOf",
      "outputs": [
        {
          "internalType": "uint256",
          "name": "",
          "type": "uint256"
        }
      ],
      "stateMutability": "view",
      "type": "function"
    },
    {
      "inputs": [
        {
          "internalType": "uint256",
          "name": "tokenId",
          "type": "uint256"
        }
      ],
      "name": "getApproved",
      "outputs": [
        {
          "internalType": "address",
          "name": "",
          "type": "address"
        }
      ],
      "stateMutability": "view",
      "type": "function"
    },
    {
      "inputs": [],
      "name": "getTotal",
      "outputs": [
        {
          "internalType": "uint256",
          "name": "",
          "type": "uint256"
        }
      ],
      "stateMutability": "view",
      "type": "function"
    },
    {
      "inputs": [
        {
          "internalType": "address",
          "name": "owner",
          "type": "address"
        },
        {
          "internalType": "address",
          "name": "operator",
          "type": "address"
        }
      ],
      "name": "isApprovedForAll",
      "outputs": [
        {
          "internalType": "bool",
          "name": "",
          "type": "bool"
        }
      ],
      "stateMutability": "view",
      "type": "function"
    },
    {
      "inputs": [],
      "name": "makeNFT",
      "outputs": [],
      "stateMutability": "nonpayable",
      "type": "function"
    },
    {
      "inputs": [],
      "name": "name",
      "outputs": [
        {
          "internalType": "string",
          "name": "",
          "type": "string"
        }
      ],
      "stateMutability": "view",
      "type": "function"
    },
    {
      "inputs": [
        {
          "internalType": "uint256",
          "name": "tokenId",
          "type": "uint256"
        }
      ],
      "name": "ownerOf",
      "outputs": [
        {
          "internalType": "address",
          "name": "",
          "type": "address"
        }
      ],
      "stateMutability": "view",
      "type": "function"
    },
    {
      "inputs": [
        {
          "internalType": "address",
          "name": "from",
          "type": "address"
        },
        {
          "internalType": "address",
          "name": "to",
          "type": "address"
        },
        {
          "internalType": "uint256",
          "name": "tokenId",
          "type": "uint256"
        }
      ],
      "name": "safeTransferFrom",
      "outputs": [],
      "stateMutability": "nonpayable",
      "type": "function"
    },
    {
      "inputs": [
        {
          "internalType": "address",
          "name": "from",
          "type": "address"
        },
        {
          "internalType": "address",
          "name": "to",
          "type": "address"
        },
        {
          "internalType": "uint256",
          "name": "tokenId",
          "type": "uint256"
        },
        {
          "internalType": "bytes",
          "name": "_data",
          "type": "bytes"
        }
      ],
      "name": "safeTransferFrom",
      "outputs": [],
      "stateMutability": "nonpayable",
      "type": "function"
    },
    {
      "inputs": [
        {
          "internalType": "address",
          "name": "operator",
          "type": "address"
        },
        {
          "internalType": "bool",
          "name": "approved",
          "type": "bool"
        }
      ],
      "name": "setApprovalForAll",
      "outputs": [],
      "stateMutability": "nonpayable",
      "type": "function"
    },
    {
      "inputs": [
        {
          "internalType": "bytes4",
          "name": "interfaceId",
          "type": "bytes4"
        }
      ],
      "name": "supportsInterface",
      "outputs": [
        {
          "internalType": "bool",
          "name": "",
          "type": "bool"
        }
      ],
      "stateMutability": "view",
      "type": "function"
    },
    {
      "inputs": [],
      "name": "symbol",
      "outputs": [
        {
          "internalType": "string",
          "name": "",
          "type": "string"
        }
      ],
      "stateMutability": "view",
      "type": "function"
    },
    {
      "inputs": [
        {
          "internalType": "uint256",
          "name": "tokenId",
          "type": "uint256"
        }
      ],
      "name": "tokenURI",
      "outputs": [
        {
          "internalType": "string",
          "name": "",
          "type": "string"
        }
      ],
      "stateMutability": "view",
      "type": "function"
    },
    {
      "inputs": [
        {
          "internalType": "address",
          "name": "from",
          "type": "address"
        },
        {
          "internalType": "address",
          "name": "to",
          "type": "address"
        },
        {
          "internalType": "uint256",
          "name": "tokenId",
          "type": "uint256"
        }
      ],
      "name": "transferFrom",
      "outputs": [],
      "stateMutability": "nonpayable",
      "type": "function"
    }
  ],
  "bytecode": "0x608060405260646008556040518060600160405280602581526020016200344f60259139600990805190602001906200003a92919062000206565b503480156200004857600080fd5b506040518060400160405280600d81526020017f416943727970746f50756e6b73000000000000000000000000000000000000008152506040518060400160405280600581526020017f50554e4b530000000000000000000000000000000000000000000000000000008152508160009080519060200190620000cd92919062000206565b508060019080519060200190620000e692919062000206565b505050620001346040518060400160405280601e81526020017f54686973206973206d79204e465420636f6e74726163742e20576f61682100008152506200013a60201b62000ee81760201c565b620003e3565b620001da81604051602401620001519190620002f7565b6040516020818303038152906040527f41304fac000000000000000000000000000000000000000000000000000000007bffffffffffffffffffffffffffffffffffffffffffffffffffffffff19166020820180517bffffffffffffffffffffffffffffffffffffffffffffffffffffffff8381831617835250505050620001dd60201b60201c565b50565b60008151905060006a636f6e736f6c652e6c6f679050602083016000808483855afa5050505050565b82805462000214906200036d565b90600052602060002090601f01602090048101928262000238576000855562000284565b82601f106200025357805160ff191683800117855562000284565b8280016001018555821562000284579182015b828111156200028357825182559160200191906001019062000266565b5b50905062000293919062000297565b5090565b5b80821115620002b257600081600090555060010162000298565b5090565b6000620002c3826200031b565b620002cf818562000326565b9350620002e181856020860162000337565b620002ec81620003d2565b840191505092915050565b60006020820190508181036000830152620003138184620002b6565b905092915050565b600081519050919050565b600082825260208201905092915050565b60005b83811015620003575780820151818401526020810190506200033a565b8381111562000367576000848401525b50505050565b600060028204905060018216806200038657607f821691505b602082108114156200039d576200039c620003a3565b5b50919050565b7f4e487b7100000000000000000000000000000000000000000000000000000000600052602260045260246000fd5b6000601f19601f8301169050919050565b61305c80620003f36000396000f3fe608060405234801561001057600080fd5b506004361061010b5760003560e01c8063775a25e3116100a2578063b036b4bd11610071578063b036b4bd146102b8578063b88d4fde146102c2578063c87b56dd146102de578063e985e9c51461030e578063f47c84c51461033e5761010b565b8063775a25e3146102425780637f78636a1461026057806395d89b411461027e578063a22cb4651461029c5761010b565b806323b872dd116100de57806323b872dd146101aa57806342842e0e146101c65780636352211e146101e257806370a08231146102125761010b565b806301ffc9a71461011057806306fdde0314610140578063081812fc1461015e578063095ea7b31461018e575b600080fd5b61012a60048036038101906101259190611f8a565b61035c565b604051610137919061247f565b60405180910390f35b61014861043e565b604051610155919061249a565b60405180910390f35b61017860048036038101906101739190611fdc565b6104d0565b60405161018591906123ef565b60405180910390f35b6101a860048036038101906101a39190611f4e565b610555565b005b6101c460048036038101906101bf9190611e48565b61066d565b005b6101e060048036038101906101db9190611e48565b6106cd565b005b6101fc60048036038101906101f79190611fdc565b6106ed565b60405161020991906123ef565b60405180910390f35b61022c60048036038101906102279190611de3565b61079f565b604051610239919061271a565b60405180910390f35b61024a610857565b604051610257919061271a565b60405180910390f35b610268610868565b604051610275919061249a565b60405180910390f35b6102866108f6565b604051610293919061249a565b60405180910390f35b6102b660048036038101906102b19190611f12565b610988565b005b6102c0610b09565b005b6102dc60048036038101906102d79190611e97565b610c9a565b005b6102f860048036038101906102f39190611fdc565b610cfc565b604051610305919061249a565b60405180910390f35b61032860048036038101906103239190611e0c565b610e4e565b604051610335919061247f565b60405180910390f35b610346610ee2565b604051610353919061271a565b60405180910390f35b60007f80ac58cd000000000000000000000000000000000000000000000000000000007bffffffffffffffffffffffffffffffffffffffffffffffffffffffff1916827bffffffffffffffffffffffffffffffffffffffffffffffffffffffff1916148061042757507f5b5e139f000000000000000000000000000000000000000000000000000000007bffffffffffffffffffffffffffffffffffffffffffffffffffffffff1916827bffffffffffffffffffffffffffffffffffffffffffffffffffffffff1916145b80610437575061043682610f81565b5b9050919050565b60606000805461044d90612954565b80601f016020809104026020016040519081016040528092919081815260200182805461047990612954565b80156104c65780601f1061049b576101008083540402835291602001916104c6565b820191906000526020600020905b8154815290600101906020018083116104a957829003601f168201915b5050505050905090565b60006104db82610feb565b61051a576040517f08c379a00000000000000000000000000000000000000000000000000000000081526004016105119061267a565b60405180910390fd5b6004600083815260200190815260200160002060009054906101000a900473ffffffffffffffffffffffffffffffffffffffff169050919050565b6000610560826106ed565b90508073ffffffffffffffffffffffffffffffffffffffff168373ffffffffffffffffffffffffffffffffffffffff1614156105d1576040517f08c379a00000000000000000000000000000000000000000000000000000000081526004016105c8906126da565b60405180910390fd5b8073ffffffffffffffffffffffffffffffffffffffff166105f0611057565b73ffffffffffffffffffffffffffffffffffffffff16148061061f575061061e81610619611057565b610e4e565b5b61065e576040517f08c379a0000000000000000000000000000000000000000000000000000000008152600401610655906125ba565b60405180910390fd5b610668838361105f565b505050565b61067e610678611057565b82611118565b6106bd576040517f08c379a00000000000000000000000000000000000000000000000000000000081526004016106b4906126fa565b60405180910390fd5b6106c88383836111f6565b505050565b6106e883838360405180602001604052806000815250610c9a565b505050565b6000806002600084815260200190815260200160002060009054906101000a900473ffffffffffffffffffffffffffffffffffffffff169050600073ffffffffffffffffffffffffffffffffffffffff168173ffffffffffffffffffffffffffffffffffffffff161415610796576040517f08c379a000000000000000000000000000000000000000000000000000000000815260040161078d906125fa565b60405180910390fd5b80915050919050565b60008073ffffffffffffffffffffffffffffffffffffffff168273ffffffffffffffffffffffffffffffffffffffff161415610810576040517f08c379a0000000000000000000000000000000000000000000000000000000008152600401610807906125da565b60405180910390fd5b600360008373ffffffffffffffffffffffffffffffffffffffff1673ffffffffffffffffffffffffffffffffffffffff168152602001908152602001600020549050919050565b60006108636007611452565b905090565b6009805461087590612954565b80601f01602080910402602001604051908101604052809291908181526020018280546108a190612954565b80156108ee5780601f106108c3576101008083540402835291602001916108ee565b820191906000526020600020905b8154815290600101906020018083116108d157829003601f168201915b505050505081565b60606001805461090590612954565b80601f016020809104026020016040519081016040528092919081815260200182805461093190612954565b801561097e5780601f106109535761010080835404028352916020019161097e565b820191906000526020600020905b81548152906001019060200180831161096157829003601f168201915b5050505050905090565b610990611057565b73ffffffffffffffffffffffffffffffffffffffff168273ffffffffffffffffffffffffffffffffffffffff1614156109fe576040517f08c379a00000000000000000000000000000000000000000000000000000000081526004016109f59061257a565b60405180910390fd5b8060056000610a0b611057565b73ffffffffffffffffffffffffffffffffffffffff1673ffffffffffffffffffffffffffffffffffffffff16815260200190815260200160002060008473ffffffffffffffffffffffffffffffffffffffff1673ffffffffffffffffffffffffffffffffffffffff16815260200190815260200160002060006101000a81548160ff0219169083151502179055508173ffffffffffffffffffffffffffffffffffffffff16610ab8611057565b73ffffffffffffffffffffffffffffffffffffffff167f17307eab39ab6107e8899845ad3d59bd9653f200f220920489ca2b5937696c3183604051610afd919061247f565b60405180910390a35050565b6000610b156007611452565b9050600854600182610b2791906127e3565b1115610b68576040517f08c379a0000000000000000000000000000000000000000000000000000000008152600401610b5f906124fa565b60405180910390fd5b60006009610b7583611460565b604051602001610b869291906123cb565b6040516020818303038152906040529050610bd56040518060400160405280601581526020017f0a2d2d2d2d2d2d2d2d2d2d2d2d2d2d2d2d2d2d2d2d0000000000000000000000815250610ee8565b610bde81610ee8565b610c1c6040518060400160405280601581526020017f2d2d2d2d2d2d2d2d2d2d2d2d2d2d2d2d2d2d2d2d0a0000000000000000000000815250610ee8565b610c26338361160d565b610c30828261162b565b610c3a600761169f565b610c5d6040518060600160405280602581526020016130026025913983336116b5565b7f1c05098ed1ff38e6238d2b1b04b2c7977d4c94ce651bda6473f9dba8dbf01da03383604051610c8e929190612456565b60405180910390a15050565b610cab610ca5611057565b83611118565b610cea576040517f08c379a0000000000000000000000000000000000000000000000000000000008152600401610ce1906126fa565b60405180910390fd5b610cf684848484611754565b50505050565b6060610d0782610feb565b610d46576040517f08c379a0000000000000000000000000000000000000000000000000000000008152600401610d3d9061265a565b60405180910390fd5b6000600660008481526020019081526020016000208054610d6690612954565b80601f0160208091040260200160405190810160405280929190818152602001828054610d9290612954565b8015610ddf5780601f10610db457610100808354040283529160200191610ddf565b820191906000526020600020905b815481529060010190602001808311610dc257829003601f168201915b505050505090506000610df06117b0565b9050600081511415610e06578192505050610e49565b600082511115610e3b578082604051602001610e239291906123a7565b60405160208183030381529060405292505050610e49565b610e44846117c7565b925050505b919050565b6000600560008473ffffffffffffffffffffffffffffffffffffffff1673ffffffffffffffffffffffffffffffffffffffff16815260200190815260200160002060008373ffffffffffffffffffffffffffffffffffffffff1673ffffffffffffffffffffffffffffffffffffffff16815260200190815260200160002060009054906101000a900460ff16905092915050565b60085481565b610f7e81604051602401610efc919061249a565b6040516020818303038152906040527f41304fac000000000000000000000000000000000000000000000000000000007bffffffffffffffffffffffffffffffffffffffffffffffffffffffff19166020820180517bffffffffffffffffffffffffffffffffffffffffffffffffffffffff838183161783525050505061186e565b50565b60007f01ffc9a7000000000000000000000000000000000000000000000000000000007bffffffffffffffffffffffffffffffffffffffffffffffffffffffff1916827bffffffffffffffffffffffffffffffffffffffffffffffffffffffff1916149050919050565b60008073ffffffffffffffffffffffffffffffffffffffff166002600084815260200190815260200160002060009054906101000a900473ffffffffffffffffffffffffffffffffffffffff1673ffffffffffffffffffffffffffffffffffffffff1614159050919050565b600033905090565b816004600083815260200190815260200160002060006101000a81548173ffffffffffffffffffffffffffffffffffffffff021916908373ffffffffffffffffffffffffffffffffffffffff160217905550808273ffffffffffffffffffffffffffffffffffffffff166110d2836106ed565b73ffffffffffffffffffffffffffffffffffffffff167f8c5be1e5ebec7d5bd14f71427d1e84f3dd0314c0f7b2291e5b200ac8c7c3b92560405160405180910390a45050565b600061112382610feb565b611162576040517f08c379a00000000000000000000000000000000000000000000000000000000081526004016111599061259a565b60405180910390fd5b600061116d836106ed565b90508073ffffffffffffffffffffffffffffffffffffffff168473ffffffffffffffffffffffffffffffffffffffff1614806111dc57508373ffffffffffffffffffffffffffffffffffffffff166111c4846104d0565b73ffffffffffffffffffffffffffffffffffffffff16145b806111ed57506111ec8185610e4e565b5b91505092915050565b8273ffffffffffffffffffffffffffffffffffffffff16611216826106ed565b73ffffffffffffffffffffffffffffffffffffffff161461126c576040517f08c379a00000000000000000000000000000000000000000000000000000000081526004016112639061269a565b60405180910390fd5b600073ffffffffffffffffffffffffffffffffffffffff168273ffffffffffffffffffffffffffffffffffffffff1614156112dc576040517f08c379a00000000000000000000000000000000000000000000000000000000081526004016112d39061255a565b60405180910390fd5b6112e7838383611897565b6112f260008261105f565b6001600360008573ffffffffffffffffffffffffffffffffffffffff1673ffffffffffffffffffffffffffffffffffffffff1681526020019081526020016000206000828254611342919061286a565b925050819055506001600360008473ffffffffffffffffffffffffffffffffffffffff1673ffffffffffffffffffffffffffffffffffffffff168152602001908152602001600020600082825461139991906127e3565b92505081905550816002600083815260200190815260200160002060006101000a81548173ffffffffffffffffffffffffffffffffffffffff021916908373ffffffffffffffffffffffffffffffffffffffff160217905550808273ffffffffffffffffffffffffffffffffffffffff168473ffffffffffffffffffffffffffffffffffffffff167fddf252ad1be2c89b69c2b068fc378daa952ba7f163c4a11628f55a4df523b3ef60405160405180910390a4505050565b600081600001549050919050565b606060008214156114a8576040518060400160405280600181526020017f30000000000000000000000000000000000000000000000000000000000000008152509050611608565b600082905060005b600082146114da5780806114c3906129b7565b915050600a826114d39190612839565b91506114b0565b60008167ffffffffffffffff81111561151c577f4e487b7100000000000000000000000000000000000000000000000000000000600052604160045260246000fd5b6040519080825280601f01601f19166020018201604052801561154e5781602001600182028036833780820191505090505b5090505b6000851461160157600182611567919061286a565b9150600a856115769190612a00565b603061158291906127e3565b60f81b8183815181106115be577f4e487b7100000000000000000000000000000000000000000000000000000000600052603260045260246000fd5b60200101907effffffffffffffffffffffffffffffffffffffffffffffffffffffffffffff1916908160001a905350600a856115fa9190612839565b9450611552565b8093505050505b919050565b61162782826040518060200160405280600081525061189c565b5050565b61163482610feb565b611673576040517f08c379a000000000000000000000000000000000000000000000000000000000815260040161166a9061261a565b60405180910390fd5b8060066000848152602001908152602001600020908051906020019061169a929190611c6f565b505050565b6001816000016000828254019250508190555050565b61174f8383836040516024016116cd939291906124bc565b6040516020818303038152906040527fe3849f79000000000000000000000000000000000000000000000000000000007bffffffffffffffffffffffffffffffffffffffffffffffffffffffff19166020820180517bffffffffffffffffffffffffffffffffffffffffffffffffffffffff838183161783525050505061186e565b505050565b61175f8484846111f6565b61176b848484846118f7565b6117aa576040517f08c379a00000000000000000000000000000000000000000000000000000000081526004016117a19061251a565b60405180910390fd5b50505050565b606060405180602001604052806000815250905090565b60606117d282610feb565b611811576040517f08c379a0000000000000000000000000000000000000000000000000000000008152600401611808906126ba565b60405180910390fd5b600061181b6117b0565b9050600081511161183b5760405180602001604052806000815250611866565b8061184584611460565b6040516020016118569291906123a7565b6040516020818303038152906040525b915050919050565b60008151905060006a636f6e736f6c652e6c6f679050602083016000808483855afa5050505050565b505050565b6118a68383611a8e565b6118b360008484846118f7565b6118f2576040517f08c379a00000000000000000000000000000000000000000000000000000000081526004016118e99061251a565b60405180910390fd5b505050565b60006119188473ffffffffffffffffffffffffffffffffffffffff16611c5c565b15611a81578373ffffffffffffffffffffffffffffffffffffffff1663150b7a02611941611057565b8786866040518563ffffffff1660e01b8152600401611963949392919061240a565b602060405180830381600087803b15801561197d57600080fd5b505af19250505080156119ae57506040513d601f19601f820116820180604052508101906119ab9190611fb3565b60015b611a31573d80600081146119de576040519150601f19603f3d011682016040523d82523d6000602084013e6119e3565b606091505b50600081511415611a29576040517f08c379a0000000000000000000000000000000000000000000000000000000008152600401611a209061251a565b60405180910390fd5b805181602001fd5b63150b7a0260e01b7bffffffffffffffffffffffffffffffffffffffffffffffffffffffff1916817bffffffffffffffffffffffffffffffffffffffffffffffffffffffff191614915050611a86565b600190505b949350505050565b600073ffffffffffffffffffffffffffffffffffffffff168273ffffffffffffffffffffffffffffffffffffffff161415611afe576040517f08c379a0000000000000000000000000000000000000000000000000000000008152600401611af59061263a565b60405180910390fd5b611b0781610feb565b15611b47576040517f08c379a0000000000000000000000000000000000000000000000000000000008152600401611b3e9061253a565b60405180910390fd5b611b5360008383611897565b6001600360008473ffffffffffffffffffffffffffffffffffffffff1673ffffffffffffffffffffffffffffffffffffffff1681526020019081526020016000206000828254611ba391906127e3565b92505081905550816002600083815260200190815260200160002060006101000a81548173ffffffffffffffffffffffffffffffffffffffff021916908373ffffffffffffffffffffffffffffffffffffffff160217905550808273ffffffffffffffffffffffffffffffffffffffff16600073ffffffffffffffffffffffffffffffffffffffff167fddf252ad1be2c89b69c2b068fc378daa952ba7f163c4a11628f55a4df523b3ef60405160405180910390a45050565b600080823b905060008111915050919050565b828054611c7b90612954565b90600052602060002090601f016020900481019282611c9d5760008555611ce4565b82601f10611cb657805160ff1916838001178555611ce4565b82800160010185558215611ce4579182015b82811115611ce3578251825591602001919060010190611cc8565b5b509050611cf19190611cf5565b5090565b5b80821115611d0e576000816000905550600101611cf6565b5090565b6000611d25611d208461275a565b612735565b905082815260208101848484011115611d3d57600080fd5b611d48848285612912565b509392505050565b600081359050611d5f81612fa5565b92915050565b600081359050611d7481612fbc565b92915050565b600081359050611d8981612fd3565b92915050565b600081519050611d9e81612fd3565b92915050565b600082601f830112611db557600080fd5b8135611dc5848260208601611d12565b91505092915050565b600081359050611ddd81612fea565b92915050565b600060208284031215611df557600080fd5b6000611e0384828501611d50565b91505092915050565b60008060408385031215611e1f57600080fd5b6000611e2d85828601611d50565b9250506020611e3e85828601611d50565b9150509250929050565b600080600060608486031215611e5d57600080fd5b6000611e6b86828701611d50565b9350506020611e7c86828701611d50565b9250506040611e8d86828701611dce565b9150509250925092565b60008060008060808587031215611ead57600080fd5b6000611ebb87828801611d50565b9450506020611ecc87828801611d50565b9350506040611edd87828801611dce565b925050606085013567ffffffffffffffff811115611efa57600080fd5b611f0687828801611da4565b91505092959194509250565b60008060408385031215611f2557600080fd5b6000611f3385828601611d50565b9250506020611f4485828601611d65565b9150509250929050565b60008060408385031215611f6157600080fd5b6000611f6f85828601611d50565b9250506020611f8085828601611dce565b9150509250929050565b600060208284031215611f9c57600080fd5b6000611faa84828501611d7a565b91505092915050565b600060208284031215611fc557600080fd5b6000611fd384828501611d8f565b91505092915050565b600060208284031215611fee57600080fd5b6000611ffc84828501611dce565b91505092915050565b61200e8161289e565b82525050565b61201d816128b0565b82525050565b600061202e826127a0565b61203881856127b6565b9350612048818560208601612921565b61205181612aed565b840191505092915050565b6000612067826127ab565b61207181856127c7565b9350612081818560208601612921565b61208a81612aed565b840191505092915050565b60006120a0826127ab565b6120aa81856127d8565b93506120ba818560208601612921565b80840191505092915050565b600081546120d381612954565b6120dd81866127d8565b945060018216600081146120f857600181146121095761213c565b60ff1983168652818601935061213c565b6121128561278b565b60005b8381101561213457815481890152600182019150602081019050612115565b838801955050505b50505092915050565b60006121526011836127c7565b915061215d82612afe565b602082019050919050565b60006121756032836127c7565b915061218082612b27565b604082019050919050565b6000612198601c836127c7565b91506121a382612b76565b602082019050919050565b60006121bb6024836127c7565b91506121c682612b9f565b604082019050919050565b60006121de6019836127c7565b91506121e982612bee565b602082019050919050565b6000612201602c836127c7565b915061220c82612c17565b604082019050919050565b60006122246038836127c7565b915061222f82612c66565b604082019050919050565b6000612247602a836127c7565b915061225282612cb5565b604082019050919050565b600061226a6029836127c7565b915061227582612d04565b604082019050919050565b600061228d602e836127c7565b915061229882612d53565b604082019050919050565b60006122b06020836127c7565b91506122bb82612da2565b602082019050919050565b60006122d36031836127c7565b91506122de82612dcb565b604082019050919050565b60006122f6602c836127c7565b915061230182612e1a565b604082019050919050565b60006123196029836127c7565b915061232482612e69565b604082019050919050565b600061233c602f836127c7565b915061234782612eb8565b604082019050919050565b600061235f6021836127c7565b915061236a82612f07565b604082019050919050565b60006123826031836127c7565b915061238d82612f56565b604082019050919050565b6123a181612908565b82525050565b60006123b38285612095565b91506123bf8284612095565b91508190509392505050565b60006123d782856120c6565b91506123e38284612095565b91508190509392505050565b60006020820190506124046000830184612005565b92915050565b600060808201905061241f6000830187612005565b61242c6020830186612005565b6124396040830185612398565b818103606083015261244b8184612023565b905095945050505050565b600060408201905061246b6000830185612005565b6124786020830184612398565b9392505050565b60006020820190506124946000830184612014565b92915050565b600060208201905081810360008301526124b4818461205c565b905092915050565b600060608201905081810360008301526124d6818661205c565b90506124e56020830185612398565b6124f26040830184612005565b949350505050565b6000602082019050818103600083015261251381612145565b9050919050565b6000602082019050818103600083015261253381612168565b9050919050565b600060208201905081810360008301526125538161218b565b9050919050565b60006020820190508181036000830152612573816121ae565b9050919050565b60006020820190508181036000830152612593816121d1565b9050919050565b600060208201905081810360008301526125b3816121f4565b9050919050565b600060208201905081810360008301526125d381612217565b9050919050565b600060208201905081810360008301526125f38161223a565b9050919050565b600060208201905081810360008301526126138161225d565b9050919050565b6000602082019050818103600083015261263381612280565b9050919050565b60006020820190508181036000830152612653816122a3565b9050919050565b60006020820190508181036000830152612673816122c6565b9050919050565b60006020820190508181036000830152612693816122e9565b9050919050565b600060208201905081810360008301526126b38161230c565b9050919050565b600060208201905081810360008301526126d38161232f565b9050919050565b600060208201905081810360008301526126f381612352565b9050919050565b6000602082019050818103600083015261271381612375565b9050919050565b600060208201905061272f6000830184612398565b92915050565b600061273f612750565b905061274b8282612986565b919050565b6000604051905090565b600067ffffffffffffffff82111561277557612774612abe565b5b61277e82612aed565b9050602081019050919050565b60008190508160005260206000209050919050565b600081519050919050565b600081519050919050565b600082825260208201905092915050565b600082825260208201905092915050565b600081905092915050565b60006127ee82612908565b91506127f983612908565b9250827fffffffffffffffffffffffffffffffffffffffffffffffffffffffffffffffff0382111561282e5761282d612a31565b5b828201905092915050565b600061284482612908565b915061284f83612908565b92508261285f5761285e612a60565b5b828204905092915050565b600061287582612908565b915061288083612908565b92508282101561289357612892612a31565b5b828203905092915050565b60006128a9826128e8565b9050919050565b60008115159050919050565b60007fffffffff0000000000000000000000000000000000000000000000000000000082169050919050565b600073ffffffffffffffffffffffffffffffffffffffff82169050919050565b6000819050919050565b82818337600083830152505050565b60005b8381101561293f578082015181840152602081019050612924565b8381111561294e576000848401525b50505050565b6000600282049050600182168061296c57607f821691505b602082108114156129805761297f612a8f565b5b50919050565b61298f82612aed565b810181811067ffffffffffffffff821117156129ae576129ad612abe565b5b80604052505050565b60006129c282612908565b91507fffffffffffffffffffffffffffffffffffffffffffffffffffffffffffffffff8214156129f5576129f4612a31565b5b600182019050919050565b6000612a0b82612908565b9150612a1683612908565b925082612a2657612a25612a60565b5b828206905092915050565b7f4e487b7100000000000000000000000000000000000000000000000000000000600052601160045260246000fd5b7f4e487b7100000000000000000000000000000000000000000000000000000000600052601260045260246000fd5b7f4e487b7100000000000000000000000000000000000000000000000000000000600052602260045260246000fd5b7f4e487b7100000000000000000000000000000000000000000000000000000000600052604160045260246000fd5b6000601f19601f8301169050919050565b7f4d617820737570706c79206f66204e4654000000000000000000000000000000600082015250565b7f4552433732313a207472616e7366657220746f206e6f6e20455243373231526560008201527f63656976657220696d706c656d656e7465720000000000000000000000000000602082015250565b7f4552433732313a20746f6b656e20616c7265616479206d696e74656400000000600082015250565b7f4552433732313a207472616e7366657220746f20746865207a65726f2061646460008201527f7265737300000000000000000000000000000000000000000000000000000000602082015250565b7f4552433732313a20617070726f766520746f2063616c6c657200000000000000600082015250565b7f4552433732313a206f70657261746f7220717565727920666f72206e6f6e657860008201527f697374656e7420746f6b656e0000000000000000000000000000000000000000602082015250565b7f4552433732313a20617070726f76652063616c6c6572206973206e6f74206f7760008201527f6e6572206e6f7220617070726f76656420666f7220616c6c0000000000000000602082015250565b7f4552433732313a2062616c616e636520717565727920666f7220746865207a6560008201527f726f206164647265737300000000000000000000000000000000000000000000602082015250565b7f4552433732313a206f776e657220717565727920666f72206e6f6e657869737460008201527f656e7420746f6b656e0000000000000000000000000000000000000000000000602082015250565b7f45524337323155524953746f726167653a2055524920736574206f66206e6f6e60008201527f6578697374656e7420746f6b656e000000000000000000000000000000000000602082015250565b7f4552433732313a206d696e7420746f20746865207a65726f2061646472657373600082015250565b7f45524337323155524953746f726167653a2055524920717565727920666f722060008201527f6e6f6e6578697374656e7420746f6b656e000000000000000000000000000000602082015250565b7f4552433732313a20617070726f76656420717565727920666f72206e6f6e657860008201527f697374656e7420746f6b656e0000000000000000000000000000000000000000602082015250565b7f4552433732313a207472616e73666572206f6620746f6b656e2074686174206960008201527f73206e6f74206f776e0000000000000000000000000000000000000000000000602082015250565b7f4552433732314d657461646174613a2055524920717565727920666f72206e6f60008201527f6e6578697374656e7420746f6b656e0000000000000000000000000000000000602082015250565b7f4552433732313a20617070726f76616c20746f2063757272656e74206f776e6560008201527f7200000000000000000000000000000000000000000000000000000000000000602082015250565b7f4552433732313a207472616e736665722063616c6c6572206973206e6f74206f60008201527f776e6572206e6f7220617070726f766564000000000000000000000000000000602082015250565b612fae8161289e565b8114612fb957600080fd5b50565b612fc5816128b0565b8114612fd057600080fd5b50565b612fdc816128bc565b8114612fe757600080fd5b50565b612ff381612908565b8114612ffe57600080fd5b5056fe416e204e465420772f20494420257320686173206265656e206d696e74656420746f202573a26469706673582212204e9ba08c495cb3deb47abfefd26a766dc88fa8a240de807671836d508fa34b1e64736f6c6343000804003368747470733a2f2f616963727970746f70756e6b732e626169636f6d2e636f6d2f6170692f",
  "linkReferences": {},
  "deployedLinkReferences": {}
}